{
  "_format": "hh-sol-artifact-1",
  "contractName": "HornMarketplace",
  "sourceName": "contracts/HornMarketplace.sol",
  "abi": [
    {
      "inputs": [],
      "stateMutability": "nonpayable",
      "type": "constructor"
    },
    {
      "anonymous": false,
      "inputs": [
        {
          "indexed": true,
          "internalType": "address",
          "name": "owner",
          "type": "address"
        },
        {
          "indexed": true,
          "internalType": "address",
          "name": "approved",
          "type": "address"
        },
        {
          "indexed": true,
          "internalType": "uint256",
          "name": "tokenId",
          "type": "uint256"
        }
      ],
      "name": "Approval",
      "type": "event"
    },
    {
      "anonymous": false,
      "inputs": [
        {
          "indexed": true,
          "internalType": "address",
          "name": "owner",
          "type": "address"
        },
        {
          "indexed": true,
          "internalType": "address",
          "name": "operator",
          "type": "address"
        },
        {
          "indexed": false,
          "internalType": "bool",
          "name": "approved",
          "type": "bool"
        }
      ],
      "name": "ApprovalForAll",
      "type": "event"
    },
    {
      "anonymous": false,
      "inputs": [
        {
          "indexed": true,
          "internalType": "address",
          "name": "payee",
          "type": "address"
        },
        {
          "indexed": true,
          "internalType": "uint256",
          "name": "amountInWei",
          "type": "uint256"
        }
      ],
      "name": "DepositedToEscrow",
      "type": "event"
    },
    {
      "anonymous": false,
      "inputs": [
        {
          "indexed": true,
          "internalType": "uint256",
          "name": "hornId",
          "type": "uint256"
        },
        {
          "indexed": true,
          "internalType": "address",
          "name": "from",
          "type": "address"
        },
        {
          "indexed": true,
          "internalType": "address",
          "name": "to",
          "type": "address"
        }
      ],
      "name": "HornDeliveredAndNFTOwnershipTransferred",
      "type": "event"
    },
    {
      "anonymous": false,
      "inputs": [
        {
          "indexed": true,
          "internalType": "uint256",
          "name": "hornId",
          "type": "uint256"
        },
        {
          "indexed": true,
          "internalType": "address",
          "name": "seller",
          "type": "address"
        },
        {
          "indexed": true,
          "internalType": "string",
          "name": "make",
          "type": "string"
        }
      ],
      "name": "HornListedForSale",
      "type": "event"
    },
    {
      "anonymous": false,
      "inputs": [
        {
          "indexed": true,
          "internalType": "uint256",
          "name": "hornId",
          "type": "uint256"
        },
        {
          "indexed": true,
          "internalType": "string",
          "name": "shipTo",
          "type": "string"
        },
        {
          "indexed": true,
          "internalType": "address",
          "name": "buyer",
          "type": "address"
        }
      ],
      "name": "HornPurchased",
      "type": "event"
    },
    {
      "anonymous": false,
      "inputs": [
        {
          "indexed": true,
          "internalType": "uint256",
          "name": "hornId",
          "type": "uint256"
        },
        {
          "indexed": true,
          "internalType": "string",
          "name": "shipTo",
          "type": "string"
        },
        {
          "indexed": true,
          "internalType": "address",
          "name": "to",
          "type": "address"
        }
      ],
      "name": "HornShipped",
      "type": "event"
    },
    {
      "anonymous": false,
      "inputs": [
        {
          "indexed": true,
          "internalType": "uint256",
          "name": "hornId",
          "type": "uint256"
        },
        {
          "indexed": true,
          "internalType": "address",
          "name": "seller",
          "type": "address"
        },
        {
          "indexed": true,
          "internalType": "string",
          "name": "make",
          "type": "string"
        }
      ],
      "name": "NewHornNFTMinted",
      "type": "event"
    },
    {
      "anonymous": false,
      "inputs": [
        {
          "indexed": true,
          "internalType": "address",
          "name": "previousOwner",
          "type": "address"
        },
        {
          "indexed": true,
          "internalType": "address",
          "name": "newOwner",
          "type": "address"
        }
      ],
      "name": "OwnershipTransferred",
      "type": "event"
    },
    {
      "anonymous": false,
      "inputs": [
        {
          "indexed": true,
          "internalType": "uint256",
          "name": "hornId",
          "type": "uint256"
        },
        {
          "indexed": true,
          "internalType": "address",
          "name": "payer",
          "type": "address"
        },
        {
          "indexed": true,
          "internalType": "address",
          "name": "payee",
          "type": "address"
        }
      ],
      "name": "SellerPaid",
      "type": "event"
    },
    {
      "anonymous": false,
      "inputs": [
        {
          "indexed": true,
          "internalType": "address",
          "name": "from",
          "type": "address"
        },
        {
          "indexed": true,
          "internalType": "address",
          "name": "to",
          "type": "address"
        },
        {
          "indexed": true,
          "internalType": "uint256",
          "name": "tokenId",
          "type": "uint256"
        }
      ],
      "name": "Transfer",
      "type": "event"
    },
    {
      "anonymous": false,
      "inputs": [
        {
          "indexed": true,
          "internalType": "address",
          "name": "payee",
          "type": "address"
        },
        {
          "indexed": true,
          "internalType": "uint256",
          "name": "amountInWei",
          "type": "uint256"
        }
      ],
      "name": "WithdrawnFromEscrow",
      "type": "event"
    },
    {
      "stateMutability": "nonpayable",
      "type": "fallback"
    },
    {
      "inputs": [
        {
          "internalType": "address",
          "name": "to",
          "type": "address"
        },
        {
          "internalType": "uint256",
          "name": "tokenId",
          "type": "uint256"
        }
      ],
      "name": "approve",
      "outputs": [],
      "stateMutability": "nonpayable",
      "type": "function"
    },
    {
      "inputs": [
        {
          "internalType": "address",
          "name": "owner",
          "type": "address"
        }
      ],
      "name": "balanceOf",
      "outputs": [
        {
          "internalType": "uint256",
          "name": "",
          "type": "uint256"
        }
      ],
      "stateMutability": "view",
      "type": "function"
    },
    {
      "inputs": [
        {
          "internalType": "uint256",
          "name": "",
          "type": "uint256"
        }
      ],
      "name": "buyers",
      "outputs": [
        {
          "internalType": "address",
          "name": "",
          "type": "address"
        }
      ],
      "stateMutability": "view",
      "type": "function"
    },
    {
      "inputs": [
        {
          "internalType": "uint256",
          "name": "tokenId",
          "type": "uint256"
        }
      ],
      "name": "getApproved",
      "outputs": [
        {
          "internalType": "address",
          "name": "",
          "type": "address"
        }
      ],
      "stateMutability": "view",
      "type": "function"
    },
    {
      "inputs": [
        {
          "internalType": "uint256",
          "name": "_tokenId",
          "type": "uint256"
        }
      ],
      "name": "getApprovedToSpend",
      "outputs": [
        {
          "internalType": "address",
          "name": "",
          "type": "address"
        }
      ],
      "stateMutability": "view",
      "type": "function"
    },
    {
      "inputs": [
        {
          "internalType": "address",
          "name": "_owner",
          "type": "address"
        }
      ],
      "name": "getBalanceOf",
      "outputs": [
        {
          "internalType": "uint256",
          "name": "",
          "type": "uint256"
        }
      ],
      "stateMutability": "view",
      "type": "function"
    },
    {
      "inputs": [],
      "name": "getCurrentHornsForSale",
      "outputs": [
        {
          "internalType": "uint256[]",
          "name": "",
          "type": "uint256[]"
        }
      ],
      "stateMutability": "view",
      "type": "function"
    },
    {
      "inputs": [
        {
          "internalType": "uint256",
          "name": "__hornId",
          "type": "uint256"
        }
      ],
      "name": "getCurrentOwnerByMapping",
      "outputs": [
        {
          "internalType": "address payable",
          "name": "",
          "type": "address"
        }
      ],
      "stateMutability": "view",
      "type": "function"
    },
    {
      "inputs": [
        {
          "internalType": "uint256",
          "name": "__hornId",
          "type": "uint256"
        }
      ],
      "name": "getCurrentOwnerByStructAttribute",
      "outputs": [
        {
          "internalType": "address payable",
          "name": "",
          "type": "address"
        }
      ],
      "stateMutability": "view",
      "type": "function"
    },
    {
      "inputs": [],
      "name": "getCurrentlyListedHorns",
      "outputs": [
        {
          "components": [
            {
              "internalType": "string",
              "name": "make",
              "type": "string"
            },
            {
              "internalType": "string",
              "name": "model",
              "type": "string"
            },
            {
              "internalType": "string",
              "name": "style",
              "type": "string"
            },
            {
              "internalType": "uint256",
              "name": "serialNumber",
              "type": "uint256"
            },
            {
              "internalType": "uint256",
              "name": "listPrice",
              "type": "uint256"
            },
            {
              "internalType": "uint256",
              "name": "tokenId",
              "type": "uint256"
            },
            {
              "internalType": "enum HornMarketplace.HornStatus",
              "name": "status",
              "type": "uint8"
            },
            {
              "internalType": "address payable",
              "name": "currentOwner",
              "type": "address"
            }
          ],
          "internalType": "struct HornMarketplace.Horn[]",
          "name": "",
          "type": "tuple[]"
        }
      ],
      "stateMutability": "view",
      "type": "function"
    },
    {
      "inputs": [],
      "name": "getCurrentlyOwnedHorns",
      "outputs": [
        {
          "components": [
            {
              "internalType": "string",
              "name": "make",
              "type": "string"
            },
            {
              "internalType": "string",
              "name": "model",
              "type": "string"
            },
            {
              "internalType": "string",
              "name": "style",
              "type": "string"
            },
            {
              "internalType": "uint256",
              "name": "serialNumber",
              "type": "uint256"
            },
            {
              "internalType": "uint256",
              "name": "listPrice",
              "type": "uint256"
            },
            {
              "internalType": "uint256",
              "name": "tokenId",
              "type": "uint256"
            },
            {
              "internalType": "enum HornMarketplace.HornStatus",
              "name": "status",
              "type": "uint8"
            },
            {
              "internalType": "address payable",
              "name": "currentOwner",
              "type": "address"
            }
          ],
          "internalType": "struct HornMarketplace.Horn[]",
          "name": "",
          "type": "tuple[]"
        }
      ],
      "stateMutability": "view",
      "type": "function"
    },
    {
      "inputs": [
        {
          "internalType": "address",
          "name": "payee",
          "type": "address"
        }
      ],
      "name": "getEscrowDepositValue",
      "outputs": [
        {
          "internalType": "uint256",
          "name": "",
          "type": "uint256"
        }
      ],
      "stateMutability": "view",
      "type": "function"
    },
    {
      "inputs": [],
      "name": "getEscrowOwner",
      "outputs": [
        {
          "internalType": "address",
          "name": "",
          "type": "address"
        }
      ],
      "stateMutability": "view",
      "type": "function"
    },
    {
      "inputs": [
        {
          "internalType": "uint256",
          "name": "_index",
          "type": "uint256"
        }
      ],
      "name": "getHornById",
      "outputs": [
        {
          "components": [
            {
              "internalType": "string",
              "name": "make",
              "type": "string"
            },
            {
              "internalType": "string",
              "name": "model",
              "type": "string"
            },
            {
              "internalType": "string",
              "name": "style",
              "type": "string"
            },
            {
              "internalType": "uint256",
              "name": "serialNumber",
              "type": "uint256"
            },
            {
              "internalType": "uint256",
              "name": "listPrice",
              "type": "uint256"
            },
            {
              "internalType": "uint256",
              "name": "tokenId",
              "type": "uint256"
            },
            {
              "internalType": "enum HornMarketplace.HornStatus",
              "name": "status",
              "type": "uint8"
            },
            {
              "internalType": "address payable",
              "name": "currentOwner",
              "type": "address"
            }
          ],
          "internalType": "struct HornMarketplace.Horn",
          "name": "",
          "type": "tuple"
        }
      ],
      "stateMutability": "view",
      "type": "function"
    },
    {
      "inputs": [
        {
          "internalType": "uint256",
          "name": "__hornId",
          "type": "uint256"
        }
      ],
      "name": "getListPriceByHornId",
      "outputs": [
        {
          "internalType": "uint256",
          "name": "",
          "type": "uint256"
        }
      ],
      "stateMutability": "view",
      "type": "function"
    },
    {
      "inputs": [],
      "name": "getShippingAddress",
      "outputs": [
        {
          "internalType": "string",
          "name": "",
          "type": "string"
        }
      ],
      "stateMutability": "view",
      "type": "function"
    },
    {
      "inputs": [
        {
          "internalType": "uint256",
          "name": "__hornId",
          "type": "uint256"
        }
      ],
      "name": "getStatusOfHornByHornId",
      "outputs": [
        {
          "internalType": "enum HornMarketplace.HornStatus",
          "name": "",
          "type": "uint8"
        }
      ],
      "stateMutability": "view",
      "type": "function"
    },
    {
      "inputs": [
        {
          "internalType": "uint256",
          "name": "",
          "type": "uint256"
        }
      ],
      "name": "horns",
      "outputs": [
        {
          "internalType": "string",
          "name": "make",
          "type": "string"
        },
        {
          "internalType": "string",
          "name": "model",
          "type": "string"
        },
        {
          "internalType": "string",
          "name": "style",
          "type": "string"
        },
        {
          "internalType": "uint256",
          "name": "serialNumber",
          "type": "uint256"
        },
        {
          "internalType": "uint256",
          "name": "listPrice",
          "type": "uint256"
        },
        {
          "internalType": "uint256",
          "name": "tokenId",
          "type": "uint256"
        },
        {
          "internalType": "enum HornMarketplace.HornStatus",
          "name": "status",
          "type": "uint8"
        },
        {
          "internalType": "address payable",
          "name": "currentOwner",
          "type": "address"
        }
      ],
      "stateMutability": "view",
      "type": "function"
    },
    {
      "inputs": [
        {
          "internalType": "uint256",
          "name": "",
          "type": "uint256"
        }
      ],
      "name": "hornsForSale",
      "outputs": [
        {
          "internalType": "uint256",
          "name": "",
          "type": "uint256"
        }
      ],
      "stateMutability": "view",
      "type": "function"
    },
    {
      "inputs": [
        {
          "internalType": "address",
          "name": "owner",
          "type": "address"
        },
        {
          "internalType": "address",
          "name": "operator",
          "type": "address"
        }
      ],
      "name": "isApprovedForAll",
      "outputs": [
        {
          "internalType": "bool",
          "name": "",
          "type": "bool"
        }
      ],
      "stateMutability": "view",
      "type": "function"
    },
    {
      "inputs": [
        {
          "internalType": "uint256",
          "name": "__hornId",
          "type": "uint256"
        },
        {
          "internalType": "uint256",
          "name": "_desiredPrice",
          "type": "uint256"
        }
      ],
      "name": "listExistingHornNFT",
      "outputs": [
        {
          "internalType": "uint256",
          "name": "",
          "type": "uint256"
        }
      ],
      "stateMutability": "nonpayable",
      "type": "function"
    },
    {
      "inputs": [
        {
          "internalType": "uint256",
          "name": "__hornId",
          "type": "uint256"
        }
      ],
      "name": "markHornDeliveredAndOwnershipTransferred",
      "outputs": [
        {
          "internalType": "uint256",
          "name": "",
          "type": "uint256"
        }
      ],
      "stateMutability": "nonpayable",
      "type": "function"
    },
    {
      "inputs": [
        {
          "internalType": "uint256",
          "name": "__hornId",
          "type": "uint256"
        },
        {
          "internalType": "string",
          "name": "shippedTo",
          "type": "string"
        }
      ],
      "name": "markHornShipped",
      "outputs": [
        {
          "internalType": "string",
          "name": "",
          "type": "string"
        }
      ],
      "stateMutability": "nonpayable",
      "type": "function"
    },
    {
      "inputs": [
        {
          "internalType": "string",
          "name": "tokenUri",
          "type": "string"
        },
        {
          "internalType": "string",
          "name": "_make",
          "type": "string"
        },
        {
          "internalType": "string",
          "name": "_model",
          "type": "string"
        },
        {
          "internalType": "string",
          "name": "_style",
          "type": "string"
        },
        {
          "internalType": "uint256",
          "name": "_serialNumber",
          "type": "uint256"
        }
      ],
      "name": "mintButDontListNewHornNFT",
      "outputs": [
        {
          "internalType": "uint256",
          "name": "",
          "type": "uint256"
        }
      ],
      "stateMutability": "nonpayable",
      "type": "function"
    },
    {
      "inputs": [
        {
          "internalType": "string",
          "name": "tokenUri",
          "type": "string"
        },
        {
          "internalType": "string",
          "name": "_make",
          "type": "string"
        },
        {
          "internalType": "string",
          "name": "_model",
          "type": "string"
        },
        {
          "internalType": "string",
          "name": "_style",
          "type": "string"
        },
        {
          "internalType": "uint256",
          "name": "_serialNumber",
          "type": "uint256"
        },
        {
          "internalType": "uint256",
          "name": "_desiredPrice",
          "type": "uint256"
        }
      ],
      "name": "mintThenListNewHornNFT",
      "outputs": [
        {
          "internalType": "uint256",
          "name": "",
          "type": "uint256"
        }
      ],
      "stateMutability": "nonpayable",
      "type": "function"
    },
    {
      "inputs": [],
      "name": "name",
      "outputs": [
        {
          "internalType": "string",
          "name": "",
          "type": "string"
        }
      ],
      "stateMutability": "view",
      "type": "function"
    },
    {
      "inputs": [],
      "name": "owner",
      "outputs": [
        {
          "internalType": "address",
          "name": "",
          "type": "address"
        }
      ],
      "stateMutability": "view",
      "type": "function"
    },
    {
      "inputs": [
        {
          "internalType": "uint256",
          "name": "tokenId",
          "type": "uint256"
        }
      ],
      "name": "ownerOf",
      "outputs": [
        {
          "internalType": "address",
          "name": "",
          "type": "address"
        }
      ],
      "stateMutability": "view",
      "type": "function"
    },
    {
      "inputs": [
        {
          "internalType": "uint256",
          "name": "__hornId",
          "type": "uint256"
        },
        {
          "internalType": "string",
          "name": "_shipTo",
          "type": "string"
        }
      ],
      "name": "purchaseHornByHornId",
      "outputs": [],
      "stateMutability": "payable",
      "type": "function"
    },
    {
      "inputs": [],
      "name": "renounceOwnership",
      "outputs": [],
      "stateMutability": "nonpayable",
      "type": "function"
    },
    {
      "inputs": [
        {
          "internalType": "address",
          "name": "from",
          "type": "address"
        },
        {
          "internalType": "address",
          "name": "to",
          "type": "address"
        },
        {
          "internalType": "uint256",
          "name": "tokenId",
          "type": "uint256"
        }
      ],
      "name": "safeTransferFrom",
      "outputs": [],
      "stateMutability": "nonpayable",
      "type": "function"
    },
    {
      "inputs": [
        {
          "internalType": "address",
          "name": "from",
          "type": "address"
        },
        {
          "internalType": "address",
          "name": "to",
          "type": "address"
        },
        {
          "internalType": "uint256",
          "name": "tokenId",
          "type": "uint256"
        },
        {
          "internalType": "bytes",
          "name": "_data",
          "type": "bytes"
        }
      ],
      "name": "safeTransferFrom",
      "outputs": [],
      "stateMutability": "nonpayable",
      "type": "function"
    },
    {
      "inputs": [
        {
          "internalType": "address",
          "name": "operator",
          "type": "address"
        },
        {
          "internalType": "bool",
          "name": "approved",
          "type": "bool"
        }
      ],
      "name": "setApprovalForAll",
      "outputs": [],
      "stateMutability": "nonpayable",
      "type": "function"
    },
    {
      "inputs": [
        {
          "internalType": "address",
          "name": "",
          "type": "address"
        }
      ],
      "name": "shippingAddresses",
      "outputs": [
        {
          "internalType": "string",
          "name": "",
          "type": "string"
        }
      ],
      "stateMutability": "view",
      "type": "function"
    },
    {
      "inputs": [
        {
          "internalType": "bytes4",
          "name": "interfaceId",
          "type": "bytes4"
        }
      ],
      "name": "supportsInterface",
      "outputs": [
        {
          "internalType": "bool",
          "name": "",
          "type": "bool"
        }
      ],
      "stateMutability": "view",
      "type": "function"
    },
    {
      "inputs": [],
      "name": "symbol",
      "outputs": [
        {
          "internalType": "string",
          "name": "",
          "type": "string"
        }
      ],
      "stateMutability": "view",
      "type": "function"
    },
    {
      "inputs": [
        {
          "internalType": "uint256",
          "name": "tokenId",
          "type": "uint256"
        }
      ],
      "name": "tokenURI",
      "outputs": [
        {
          "internalType": "string",
          "name": "",
          "type": "string"
        }
      ],
      "stateMutability": "view",
      "type": "function"
    },
    {
      "inputs": [
        {
          "internalType": "address",
          "name": "from",
          "type": "address"
        },
        {
          "internalType": "address",
          "name": "to",
          "type": "address"
        },
        {
          "internalType": "uint256",
          "name": "tokenId",
          "type": "uint256"
        }
      ],
      "name": "transferFrom",
      "outputs": [],
      "stateMutability": "nonpayable",
      "type": "function"
    },
    {
      "inputs": [
        {
          "internalType": "address",
          "name": "newOwner",
          "type": "address"
        }
      ],
      "name": "transferOwnership",
      "outputs": [],
      "stateMutability": "nonpayable",
      "type": "function"
    },
    {
      "stateMutability": "payable",
      "type": "receive"
    }
  ],
  "bytecode": "0x60806040523480156200001157600080fd5b50604051806040016040528060048152602001632437b93760e11b815250604051806040016040528060048152602001632427a92760e11b8152506200006662000060620000e660201b60201c565b620000ea565b81516200007b9060019060208501906200013a565b508051620000919060029060208401906200013a565b505050604051620000a290620001c9565b604051809103906000f080158015620000bf573d6000803e3d6000fd5b50600980546001600160a01b0319166001600160a01b03929092169190911790556200022b565b3390565b600080546001600160a01b038381166001600160a01b0319831681178455604051919092169283917f8be0079c531659141344cd1fd0a4f28419497f9722a3daafe3b4186f6b6457e09190a35050565b8280546200014890620001ee565b90600052602060002090601f0160209004810192826200016c5760008555620001b7565b82601f106200018757805160ff1916838001178555620001b7565b82800160010185558215620001b7579182015b82811115620001b75782518255916020019190600101906200019a565b50620001c5929150620001d7565b5090565b61069f80620047ed83390190565b5b80821115620001c55760008155600101620001d8565b6002810460018216806200020357607f821691505b602082108114156200022557634e487b7160e01b600052602260045260246000fd5b50919050565b6145b2806200023b6000396000f3fe6080604052600436106102345760003560e01c80638da5cb5b1161012e578063b88d4fde116100ab578063cf44981a1161006f578063cf44981a146106d6578063e985e9c5146106f6578063f2aa821814610716578063f2fde38b14610736578063fd92de01146107565761025a565b8063b88d4fde14610641578063ba80a2c414610661578063c0227bbb14610681578063c87b56dd146106a1578063cce44056146106c15761025a565b8063a081feb1116100f2578063a081feb114610598578063a22cb465146105ad578063b15fca9e146105cd578063b5178ed5146105ed578063b7d002f4146106215761025a565b80638da5cb5b14610517578063914b37a11461052c57806395d89b411461054157806398960435146105565780639b96eece146105785761025a565b80633a770745116101bc5780636352211e116101805780636352211e1461047357806370a0823114610493578063715018a6146104b357806376cb00ee146104c857806378b5270c146104f55761025a565b80633a770745146103d35780633dda1fca146103e657806342842e0e1461040657806349870e531461042657806362547501146104535761025a565b806311723dc21161020357806311723dc214610326578063125bba371461034657806319df66f4146103735780631c5e1d5e1461039357806323b872dd146103b35761025a565b806301ffc9a71461027f57806306fdde03146102b5578063081812fc146102d7578063095ea7b3146103045761025a565b3661025a5760405162461bcd60e51b815260040161025190613c75565b60405180910390fd5b34801561026657600080fd5b5060405162461bcd60e51b815260040161025190613c75565b34801561028b57600080fd5b5061029f61029a3660046134a8565b610776565b6040516102ac9190613a35565b60405180910390f35b3480156102c157600080fd5b506102ca6107be565b6040516102ac9190613a4e565b3480156102e357600080fd5b506102f76102f236600461366d565b610850565b6040516102ac9190613940565b34801561031057600080fd5b5061032461031f36600461347d565b610893565b005b34801561033257600080fd5b506102f761034136600461366d565b61092b565b34801561035257600080fd5b5061036661036136600461372c565b61094e565b6040516102ac9190614421565b34801561037f57600080fd5b5061036661038e36600461331f565b610a94565b34801561039f57600080fd5b506102f76103ae36600461366d565b610b20565b3480156103bf57600080fd5b506103246103ce36600461338f565b610b3b565b6103246103e13660046136e7565b610b73565b3480156103f257600080fd5b506102f761040136600461366d565b610e09565b34801561041257600080fd5b5061032461042136600461338f565b610e15565b34801561043257600080fd5b5061044661044136600461366d565b610e30565b6040516102ac9190613a40565b34801561045f57600080fd5b5061036661046e3660046134e0565b610e48565b34801561047f57600080fd5b506102f761048e36600461366d565b6110df565b34801561049f57600080fd5b506103666104ae36600461331f565b611114565b3480156104bf57600080fd5b50610324611158565b3480156104d457600080fd5b506104e86104e336600461366d565b6111a3565b6040516102ac919061440e565b34801561050157600080fd5b5061050a611406565b6040516102ac9190613991565b34801561052357600080fd5b506102f76117d6565b34801561053857600080fd5b506102ca6117e5565b34801561054d57600080fd5b506102ca611803565b34801561056257600080fd5b5061056b611812565b6040516102ac91906139f1565b34801561058457600080fd5b5061036661059336600461331f565b611869565b3480156105a457600080fd5b5061050a611875565b3480156105b957600080fd5b506103246105c836600461344c565b611bbf565b3480156105d957600080fd5b506102ca6105e836600461331f565b611c8d565b3480156105f957600080fd5b5061060d61060836600461366d565b611d27565b6040516102ac989796959493929190613a61565b34801561062d57600080fd5b5061036661063c36600461366d565b611f0d565b34801561064d57600080fd5b5061032461065c3660046133cf565b612214565b34801561066d57600080fd5b5061036661067c3660046135a1565b612253565b34801561068d57600080fd5b5061036661069c36600461366d565b61253f565b3480156106ad57600080fd5b506102ca6106bc36600461366d565b612560565b3480156106cd57600080fd5b506102f7612681565b3480156106e257600080fd5b506102ca6106f136600461369d565b612710565b34801561070257600080fd5b5061029f610711366004613357565b6129a6565b34801561072257600080fd5b506102f761073136600461366d565b6129d6565b34801561074257600080fd5b5061032461075136600461331f565b6129f1565b34801561076257600080fd5b5061036661077136600461366d565b612a62565b60006001600160e01b031982166380ac58cd60e01b14806107a757506001600160e01b03198216635b5e139f60e01b145b806107b657506107b682612a77565b90505b919050565b6060600180546107cd906144a5565b80601f01602080910402602001604051908101604052809291908181526020018280546107f9906144a5565b80156108465780601f1061081b57610100808354040283529160200191610846565b820191906000526020600020905b81548152906001019060200180831161082957829003601f168201915b5050505050905090565b600061085b82612a90565b6108775760405162461bcd60e51b8152600401610251906140e1565b506000908152600560205260409020546001600160a01b031690565b600061089e826110df565b9050806001600160a01b0316836001600160a01b031614156108d25760405162461bcd60e51b8152600401610251906142f1565b806001600160a01b03166108e4612aad565b6001600160a01b03161480610900575061090081610711612aad565b61091c5760405162461bcd60e51b815260040161025190613d85565b6109268383612ab1565b505050565b6000908152600b602052604090206006015461010090046001600160a01b031690565b6000828152600d602052604081205483906001600160a01b031633146109865760405162461bcd60e51b815260040161025190614084565b600083116109a65760405162461bcd60e51b815260040161025190613ce7565b6000848152600b602052604081206006015460ff1660038111156109da57634e487b7160e01b600052602160045260246000fd5b14156109f85760405162461bcd60e51b8152600401610251906143ca565b600a8054600181019091557fc65a7bb8d6351c1cf70c95a316cc6a92839c986682d98bc35f958f4883f9d2a8018490556000848152600b6020526040908190206004810185905560068101805460ff1916905590518591610a58916138a5565b60405190819003812090339083907f762f1a2f7e87bdc2ebbbeb92df2d742317f8e1353aafc0c70b060981e72271f490600090a4949350505050565b6009546040516371d4ed8d60e11b815260009182916001600160a01b039091169063e3a9db1a90610ac9908690600401613940565b60206040518083038186803b158015610ae157600080fd5b505afa158015610af5573d6000803e3d6000fd5b505050506040513d601f19601f82011682018060405250810190610b199190613685565b9392505050565b6000908152600d60205260409020546001600160a01b031690565b610b4c610b46612aad565b82612b1f565b610b685760405162461bcd60e51b815260040161025190614332565b610926838383612b9c565b6000828152600b60205260409020600401548290610ba35760405162461bcd60e51b8152600401610251906141b6565b6000818152600b602052604090206006015460ff166003811115610bd757634e487b7160e01b600052602160045260246000fd5b15610bf45760405162461bcd60e51b815260040161025190613f69565b6000838152600b602052604090206004015483903414610c265760405162461bcd60e51b815260040161025190613add565b6009546000858152600d60205260409081902054905163f340fa0160e01b81526001600160a01b039283169263f340fa01923492610c6a9290911690600401613940565b6000604051808303818588803b158015610c8357600080fd5b505af1158015610c97573d6000803e3d6000fd5b5050336000908152600f602090815260409091208751889550610cc194509092509084019061314c565b506000858152600e6020908152604080832080546001600160a01b03191633179055600b9091528120600601805460ff191660011790555b600a54811015610d755785600a8281548110610d2557634e487b7160e01b600052603260045260246000fd5b90600052602060002001541415610d6357600a8181548110610d5757634e487b7160e01b600052603260045260246000fd5b60009182526020822001555b80610d6d816144e0565b915050610cf9565b506040513390610d8690869061385a565b6040519081900381209087907fdbca9a11cad69a5ab275fd9838feb30068a34f31d0f876d995c14a8dd906f70990600090a46000858152600b602052604080822060060154905134926101009092046001600160a01b0316917fe6138e0eb7be5ea87d2296f3ad7469a8364406bface7d4e5de0a21dce1841cdd91a35050505050565b600080610b1983610850565b61092683838360405180602001604052806000815250612214565b6000908152600b602052604090206006015460ff1690565b6000610e546008612cc9565b6000610e606008612cd2565b9050610e6c3382612cd6565b610e76818b612db5565b6040518061010001604052808a8a8080601f016020809104026020016040519081016040528093929190818152602001838380828437600092019190915250505090825250604080516020601f8b0181900481028201810190925289815291810191908a908a9081908401838280828437600092019190915250505090825250604080516020601f89018190048102820181019092528781529181019190889088908190840183828082843760009201829052509385525050506020820186905260408201526060810183905260800160038152336020918201526000838152600b825260409020825180519192610f739284929091019061314c565b506020828101518051610f8c926001850192019061314c565b5060408201518051610fa891600284019160209091019061314c565b50606082015181600301556080820151816004015560a0820151816005015560c08201518160060160006101000a81548160ff02191690836003811115610fff57634e487b7160e01b600052602160045260246000fd5b021790555060e09190910151600690910180546001600160a01b0390921661010002610100600160a81b03199092169190911790556000818152600d6020908152604080832080546001600160a01b0319163317905551611066918c918c91889101613845565b60408051601f1981840301815282825280516020918201206000868152600c909252919020819055915061109d908b908b90613835565b60405190819003812090339084907f4d80549dfe39c90078d620fcd854e5cbf03ace471593a7df725d1191056f30a190600090a4509998505050505050505050565b6000818152600360205260408120546001600160a01b0316806107b65760405162461bcd60e51b815260040161025190613e2c565b60006001600160a01b03821661113c5760405162461bcd60e51b815260040161025190613de2565b506001600160a01b031660009081526004602052604090205490565b611160612aad565b6001600160a01b03166111716117d6565b6001600160a01b0316146111975760405162461bcd60e51b815260040161025190614181565b6111a16000612df9565b565b6111ab6131d0565b6000828152600b602052604090819020815161010081019092528054829082906111d4906144a5565b80601f0160208091040260200160405190810160405280929190818152602001828054611200906144a5565b801561124d5780601f106112225761010080835404028352916020019161124d565b820191906000526020600020905b81548152906001019060200180831161123057829003601f168201915b50505050508152602001600182018054611266906144a5565b80601f0160208091040260200160405190810160405280929190818152602001828054611292906144a5565b80156112df5780601f106112b4576101008083540402835291602001916112df565b820191906000526020600020905b8154815290600101906020018083116112c257829003601f168201915b505050505081526020016002820180546112f8906144a5565b80601f0160208091040260200160405190810160405280929190818152602001828054611324906144a5565b80156113715780601f1061134657610100808354040283529160200191611371565b820191906000526020600020905b81548152906001019060200180831161135457829003601f168201915b505050918352505060038281015460208301526004830154604083015260058301546060830152600683015460809092019160ff16908111156113c457634e487b7160e01b600052602160045260246000fd5b60038111156113e357634e487b7160e01b600052602160045260246000fd5b81526006919091015461010090046001600160a01b031660209091015292915050565b606060006114146008612cd2565b90506000805b828110156114725733600d6000611432846001614436565b81526020810191909152604001600020546001600160a01b03161415611460578161145c816144e0565b9250505b8061146a816144e0565b91505061141a565b506000808267ffffffffffffffff81111561149d57634e487b7160e01b600052604160045260246000fd5b6040519080825280602002602001820160405280156114d657816020015b6114c36131d0565b8152602001906001900390816114bb5790505b50905060005b848110156117cd5733600d60006114f4846001614436565b81526020810191909152604001600020546001600160a01b031614156117bb576000611521826001614436565b9050600b600082815260200190815260200160002060405180610100016040529081600082018054611552906144a5565b80601f016020809104026020016040519081016040528092919081815260200182805461157e906144a5565b80156115cb5780601f106115a0576101008083540402835291602001916115cb565b820191906000526020600020905b8154815290600101906020018083116115ae57829003601f168201915b505050505081526020016001820180546115e4906144a5565b80601f0160208091040260200160405190810160405280929190818152602001828054611610906144a5565b801561165d5780601f106116325761010080835404028352916020019161165d565b820191906000526020600020905b81548152906001019060200180831161164057829003601f168201915b50505050508152602001600282018054611676906144a5565b80601f01602080910402602001604051908101604052809291908181526020018280546116a2906144a5565b80156116ef5780601f106116c4576101008083540402835291602001916116ef565b820191906000526020600020905b8154815290600101906020018083116116d257829003601f168201915b505050918352505060038281015460208301526004830154604083015260058301546060830152600683015460809092019160ff169081111561174257634e487b7160e01b600052602160045260246000fd5b600381111561176157634e487b7160e01b600052602160045260246000fd5b81526006919091015461010090046001600160a01b031660209091015283518490869081106117a057634e487b7160e01b600052603260045260246000fd5b602002602001018190525083806117b6906144e0565b945050505b806117c5816144e0565b9150506114dc565b50935050505090565b6000546001600160a01b031690565b336000908152600f602052604090208054606091906107cd906144a5565b6060600280546107cd906144a5565b6060600a80548060200260200160405190810160405280929190818152602001828054801561084657602002820191906000526020600020905b81548152602001906001019080831161184c575050505050905090565b600080610b1983611114565b600a5460609060009067ffffffffffffffff8111156118a457634e487b7160e01b600052604160045260246000fd5b6040519080825280602002602001820160405280156118dd57816020015b6118ca6131d0565b8152602001906001900390816118c25790505b50905060005b600a54811015611bb9576000600a828154811061191057634e487b7160e01b600052603260045260246000fd5b90600052602060002001549050600b60008281526020019081526020016000206040518061010001604052908160008201805461194c906144a5565b80601f0160208091040260200160405190810160405280929190818152602001828054611978906144a5565b80156119c55780601f1061199a576101008083540402835291602001916119c5565b820191906000526020600020905b8154815290600101906020018083116119a857829003601f168201915b505050505081526020016001820180546119de906144a5565b80601f0160208091040260200160405190810160405280929190818152602001828054611a0a906144a5565b8015611a575780601f10611a2c57610100808354040283529160200191611a57565b820191906000526020600020905b815481529060010190602001808311611a3a57829003601f168201915b50505050508152602001600282018054611a70906144a5565b80601f0160208091040260200160405190810160405280929190818152602001828054611a9c906144a5565b8015611ae95780601f10611abe57610100808354040283529160200191611ae9565b820191906000526020600020905b815481529060010190602001808311611acc57829003601f168201915b505050918352505060038281015460208301526004830154604083015260058301546060830152600683015460809092019160ff1690811115611b3c57634e487b7160e01b600052602160045260246000fd5b6003811115611b5b57634e487b7160e01b600052602160045260246000fd5b81526006919091015461010090046001600160a01b03166020909101528351849084908110611b9a57634e487b7160e01b600052603260045260246000fd5b6020026020010181905250508080611bb1906144e0565b9150506118e3565b50905090565b611bc7612aad565b6001600160a01b0316826001600160a01b03161415611bf85760405162461bcd60e51b815260040161025190613c3e565b8060066000611c05612aad565b6001600160a01b03908116825260208083019390935260409182016000908120918716808252919093529120805460ff191692151592909217909155611c49612aad565b6001600160a01b03167f17307eab39ab6107e8899845ad3d59bd9653f200f220920489ca2b5937696c3183604051611c819190613a35565b60405180910390a35050565b600f6020526000908152604090208054611ca6906144a5565b80601f0160208091040260200160405190810160405280929190818152602001828054611cd2906144a5565b8015611d1f5780601f10611cf457610100808354040283529160200191611d1f565b820191906000526020600020905b815481529060010190602001808311611d0257829003601f168201915b505050505081565b600b60205260009081526040902080548190611d42906144a5565b80601f0160208091040260200160405190810160405280929190818152602001828054611d6e906144a5565b8015611dbb5780601f10611d9057610100808354040283529160200191611dbb565b820191906000526020600020905b815481529060010190602001808311611d9e57829003601f168201915b505050505090806001018054611dd0906144a5565b80601f0160208091040260200160405190810160405280929190818152602001828054611dfc906144a5565b8015611e495780601f10611e1e57610100808354040283529160200191611e49565b820191906000526020600020905b815481529060010190602001808311611e2c57829003601f168201915b505050505090806002018054611e5e906144a5565b80601f0160208091040260200160405190810160405280929190818152602001828054611e8a906144a5565b8015611ed75780601f10611eac57610100808354040283529160200191611ed7565b820191906000526020600020905b815481529060010190602001808311611eba57829003601f168201915b505050506003830154600484015460058501546006909501549394919390925060ff81169061010090046001600160a01b031688565b6000818152600e602052604081205482906001600160a01b03163314611f455760405162461bcd60e51b815260040161025190613f0b565b82611f503382612b1f565b611f6c5760405162461bcd60e51b815260040161025190613fae565b6000818152600b602052604090206006015460ff166003811115611fa057634e487b7160e01b600052602160045260246000fd5b600214611fbf5760405162461bcd60e51b815260040161025190614383565b6000848152600b60205260408082206006015460095491516371d4ed8d60e11b81526101009091046001600160a01b039081169392169063e3a9db1a9061200a908590600401613940565b60206040518083038186803b15801561202257600080fd5b505afa158015612036573d6000803e3d6000fd5b505050506040513d601f19601f8201168201806040525081019061205a9190613685565b6009546040516351cff8d960e01b81529192506001600160a01b0316906351cff8d99061208b908590600401613940565b600060405180830381600087803b1580156120a557600080fd5b505af11580156120b9573d6000803e3d6000fd5b5050506000878152600e6020908152604080832080546001600160a01b03191690558051808301808352848252338552600f909352922091516120fc935061314c565b506000868152600b602090815260408083206006018054600360ff1990911617610100600160a81b03191633610100810291909117909155600d90925290912080546001600160a01b0319811683179091556001600160a01b03169061216490829089610b3b565b60405133906001600160a01b0383169089907f86ff2a738e00d7cf2613e4bd44ae641e080a2877f978be45ac950525d26d04c590600090a460405133906001600160a01b0383169089907ffc99b02f822d46feedca53aafaa97c596bf87bb34925d350b64a13275388de4a90600090a460405182906001600160a01b038316907f033e0f8c9aa8fcdd1b01ad637814ecdb49b6ddc7445f13555d21b3c2959b5d1f90600090a35095945050505050565b61222561221f612aad565b83612b1f565b6122415760405162461bcd60e51b815260040161025190614332565b61224d84848484612e49565b50505050565b60008082116122745760405162461bcd60e51b815260040161025190613ce7565b61227e6008612cc9565b600061228a6008612cd2565b90506122963382612cd6565b6122a0818c612db5565b6040518061010001604052808b8b8080601f016020809104026020016040519081016040528093929190818152602001838380828437600092019190915250505090825250604080516020601f8c018190048102820181019092528a815291810191908b908b9081908401838280828437600092019190915250505090825250604080516020601f8a018190048102820181019092528881529181019190899089908190840183828082843760009201829052509385525050506020820187905260408201869052606082018490526080909101908152336020918201526000838152600b8252604090208251805191926123a09284929091019061314c565b5060208281015180516123b9926001850192019061314c565b50604082015180516123d591600284019160209091019061314c565b50606082015181600301556080820151816004015560a0820151816005015560c08201518160060160006101000a81548160ff0219169083600381111561242c57634e487b7160e01b600052602160045260246000fd5b021790555060e09190910151600690910180546001600160a01b0390921661010002610100600160a81b03199092169190911790556000818152600d6020908152604080832080546001600160a01b03191633179055600a80546001810182559084527fc65a7bb8d6351c1cf70c95a316cc6a92839c986682d98bc35f958f4883f9d2a801849055516124c5918d918d91899101613845565b60408051601f1981840301815282825280516020918201206000868152600c90925291902081905591506124fc908c908c90613835565b60405190819003812090339084907f762f1a2f7e87bdc2ebbbeb92df2d742317f8e1353aafc0c70b060981e72271f490600090a4509a9950505050505050505050565b600a818154811061254f57600080fd5b600091825260209091200154905081565b606061256b82612a90565b6125875760405162461bcd60e51b815260040161025190614033565b600082815260076020526040812080546125a0906144a5565b80601f01602080910402602001604051908101604052809291908181526020018280546125cc906144a5565b80156126195780601f106125ee57610100808354040283529160200191612619565b820191906000526020600020905b8154815290600101906020018083116125fc57829003601f168201915b50505050509050600061262a612e7c565b905080516000141561263e575090506107b9565b815115612670578082604051602001612658929190613876565b604051602081830303815290604052925050506107b9565b61267984612e8e565b949350505050565b600080600960009054906101000a90046001600160a01b03166001600160a01b0316638da5cb5b6040518163ffffffff1660e01b815260040160206040518083038186803b1580156126d257600080fd5b505afa1580156126e6573d6000803e3d6000fd5b505050506040513d601f19601f8201168201806040525081019061270a919061333b565b91505090565b6000838152600d602052604090205460609084906001600160a01b0316331461274b5760405162461bcd60e51b815260040161025190614084565b6000858152600b60205260409081902060049081015460095492516371d4ed8d60e11b8152889391926001600160a01b039092169163e3a9db1a9161279291339101613940565b60206040518083038186803b1580156127aa57600080fd5b505afa1580156127be573d6000803e3d6000fd5b505050506040513d601f19601f820116820180604052508101906127e29190613685565b146127ff5760405162461bcd60e51b81526004016102519061412d565b6000818152600b602052604090206006015460ff16600381111561283357634e487b7160e01b600052602160045260246000fd5b6001146128525760405162461bcd60e51b815260040161025190613ec3565b6000868152600e60209081526040808320546001600160a01b0316808452600f835292819020905161288492016138a5565b6040516020818303038152906040528051906020012086866040516020016128ad929190613835565b60405160208183030381529060405280519060200120146128e05760405162461bcd60e51b815260040161025190614294565b6000878152600b60205260409020600601805460ff191660021790556129068188610893565b6000878152600e6020526040908190205490516001600160a01b03909116906129329088908890613835565b6040519081900381209089907f39fd051deea672a32743d0c813cc2c161b3dacddbff9e2415abc2acbf2e088fb90600090a485858080601f016020809104026020016040519081016040528093929190818152602001838380828437600092019190915250929a9950505050505050505050565b6001600160a01b0380831660009081526006602090815260408083209385168352929052205460ff165b92915050565b600e602052600090815260409020546001600160a01b031681565b6129f9612aad565b6001600160a01b0316612a0a6117d6565b6001600160a01b031614612a305760405162461bcd60e51b815260040161025190614181565b6001600160a01b038116612a565760405162461bcd60e51b815260040161025190613b7d565b612a5f81612df9565b50565b6000908152600b602052604090206004015490565b6001600160e01b031981166301ffc9a760e01b14919050565b6000908152600360205260409020546001600160a01b0316151590565b3390565b600081815260056020526040902080546001600160a01b0319166001600160a01b0384169081179091558190612ae6826110df565b6001600160a01b03167f8c5be1e5ebec7d5bd14f71427d1e84f3dd0314c0f7b2291e5b200ac8c7c3b92560405160405180910390a45050565b6000612b2a82612a90565b612b465760405162461bcd60e51b815260040161025190613d39565b6000612b51836110df565b9050806001600160a01b0316846001600160a01b03161480612b8c5750836001600160a01b0316612b8184610850565b6001600160a01b0316145b80612679575061267981856129a6565b826001600160a01b0316612baf826110df565b6001600160a01b031614612bd55760405162461bcd60e51b8152600401610251906141fc565b6001600160a01b038216612bfb5760405162461bcd60e51b815260040161025190613bfa565b612c06838383610926565b612c11600082612ab1565b6001600160a01b0383166000908152600460205260408120805460019290612c3a908490614462565b90915550506001600160a01b0382166000908152600460205260408120805460019290612c68908490614436565b909155505060008181526003602052604080822080546001600160a01b0319166001600160a01b0386811691821790925591518493918716917fddf252ad1be2c89b69c2b068fc378daa952ba7f163c4a11628f55a4df523b3ef91a4505050565b80546001019055565b5490565b6001600160a01b038216612cfc5760405162461bcd60e51b815260040161025190613ffe565b612d0581612a90565b15612d225760405162461bcd60e51b815260040161025190613bc3565b612d2e60008383610926565b6001600160a01b0382166000908152600460205260408120805460019290612d57908490614436565b909155505060008181526003602052604080822080546001600160a01b0319166001600160a01b03861690811790915590518392907fddf252ad1be2c89b69c2b068fc378daa952ba7f163c4a11628f55a4df523b3ef908290a45050565b612dbe82612a90565b612dda5760405162461bcd60e51b815260040161025190613e75565b600082815260076020908152604090912082516109269284019061314c565b600080546001600160a01b038381166001600160a01b0319831681178455604051919092169283917f8be0079c531659141344cd1fd0a4f28419497f9722a3daafe3b4186f6b6457e09190a35050565b612e54848484612b9c565b612e6084848484612f10565b61224d5760405162461bcd60e51b815260040161025190613b2b565b60408051602081019091526000815290565b6060612e9982612a90565b612eb55760405162461bcd60e51b815260040161025190614245565b6000612ebf612e7c565b90506000815111612edf5760405180602001604052806000815250610b19565b80612ee98461302b565b604051602001612efa929190613876565b6040516020818303038152906040529392505050565b6000612f24846001600160a01b0316613146565b1561302057836001600160a01b031663150b7a02612f40612aad565b8786866040518563ffffffff1660e01b8152600401612f629493929190613954565b602060405180830381600087803b158015612f7c57600080fd5b505af1925050508015612fac575060408051601f3d908101601f19168201909252612fa9918101906134c4565b60015b613006573d808015612fda576040519150601f19603f3d011682016040523d82523d6000602084013e612fdf565b606091505b508051612ffe5760405162461bcd60e51b815260040161025190613b2b565b805181602001fd5b6001600160e01b031916630a85bd0160e11b149050612679565b506001949350505050565b60608161305057506040805180820190915260018152600360fc1b60208201526107b9565b8160005b811561307a5780613064816144e0565b91506130739050600a8361444e565b9150613054565b60008167ffffffffffffffff8111156130a357634e487b7160e01b600052604160045260246000fd5b6040519080825280601f01601f1916602001820160405280156130cd576020820181803683370190505b5090505b8415612679576130e2600183614462565b91506130ef600a866144fb565b6130fa906030614436565b60f81b81838151811061311d57634e487b7160e01b600052603260045260246000fd5b60200101906001600160f81b031916908160001a90535061313f600a8661444e565b94506130d1565b3b151590565b828054613158906144a5565b90600052602060002090601f01602090048101928261317a57600085556131c0565b82601f1061319357805160ff19168380011785556131c0565b828001600101855582156131c0579182015b828111156131c05782518255916020019190600101906131a5565b506131cc929150613234565b5090565b6040518061010001604052806060815260200160608152602001606081526020016000815260200160008152602001600081526020016000600381111561322757634e487b7160e01b600052602160045260246000fd5b8152600060209091015290565b5b808211156131cc5760008155600101613235565b600067ffffffffffffffff808411156132645761326461453b565b604051601f8501601f1916810160200182811182821017156132885761328861453b565b6040528481529150818385018610156132a057600080fd5b8484602083013760006020868301015250509392505050565b60008083601f8401126132ca578182fd5b50813567ffffffffffffffff8111156132e1578182fd5b6020830191508360208285010111156132f957600080fd5b9250929050565b600082601f830112613310578081fd5b610b1983833560208501613249565b600060208284031215613330578081fd5b8135610b1981614551565b60006020828403121561334c578081fd5b8151610b1981614551565b60008060408385031215613369578081fd5b823561337481614551565b9150602083013561338481614551565b809150509250929050565b6000806000606084860312156133a3578081fd5b83356133ae81614551565b925060208401356133be81614551565b929592945050506040919091013590565b600080600080608085870312156133e4578081fd5b84356133ef81614551565b935060208501356133ff81614551565b925060408501359150606085013567ffffffffffffffff811115613421578182fd5b8501601f81018713613431578182fd5b61344087823560208401613249565b91505092959194509250565b6000806040838503121561345e578182fd5b823561346981614551565b915060208301358015158114613384578182fd5b6000806040838503121561348f578182fd5b823561349a81614551565b946020939093013593505050565b6000602082840312156134b9578081fd5b8135610b1981614566565b6000602082840312156134d5578081fd5b8151610b1981614566565b60008060008060008060008060a0898b0312156134fb578384fd5b883567ffffffffffffffff80821115613512578586fd5b61351e8c838d01613300565b995060208b0135915080821115613533578586fd5b61353f8c838d016132b9565b909950975060408b0135915080821115613557578586fd5b6135638c838d016132b9565b909750955060608b013591508082111561357b578485fd5b506135888b828c016132b9565b999c989b50969995989497949560800135949350505050565b600080600080600080600080600060c08a8c0312156135be578283fd5b893567ffffffffffffffff808211156135d5578485fd5b6135e18d838e01613300565b9a5060208c01359150808211156135f6578485fd5b6136028d838e016132b9565b909a50985060408c013591508082111561361a578485fd5b6136268d838e016132b9565b909850965060608c013591508082111561363e578485fd5b5061364b8c828d016132b9565b9a9d999c50979a96999598959660808101359660a09091013595509350505050565b60006020828403121561367e578081fd5b5035919050565b600060208284031215613696578081fd5b5051919050565b6000806000604084860312156136b1578081fd5b83359250602084013567ffffffffffffffff8111156136ce578182fd5b6136da868287016132b9565b9497909650939450505050565b600080604083850312156136f9578182fd5b82359150602083013567ffffffffffffffff811115613716578182fd5b61372285828601613300565b9150509250929050565b6000806040838503121561373e578182fd5b50508035926020909101359150565b60008151808452613765816020860160208601614479565b601f01601f19169290920160200192915050565b6004811061379757634e487b7160e01b600052602160045260246000fd5b9052565b600061010082518185526137b18286018261374d565b915050602083015184820360208601526137cb828261374d565b915050604083015184820360408601526137e5828261374d565b915050606083015160608501526080830151608085015260a083015160a085015260c083015161381860c0860182613779565b5060e0928301516001600160a01b03169390920192909252919050565b6000828483379101908152919050565b60008385833750909101908152602001919050565b6000825161386c818460208701614479565b9190910192915050565b60008351613888818460208801614479565b83519083019061389c818360208801614479565b01949350505050565b81546000908190600281046001808316806138c157607f831692505b60208084108214156138e157634e487b7160e01b87526022600452602487fd5b8180156138f5576001811461390657613932565b60ff19861689528489019650613932565b61390f8a61442a565b885b8681101561392a5781548b820152908501908301613911565b505084890196505b509498975050505050505050565b6001600160a01b0391909116815260200190565b6001600160a01b03858116825284166020820152604081018390526080606082018190526000906139879083018461374d565b9695505050505050565b6000602080830181845280855180835260408601915060408482028701019250838701855b828110156139e457603f198886030184526139d285835161379b565b945092850192908501906001016139b6565b5092979650505050505050565b6020808252825182820181905260009190848201906040850190845b81811015613a2957835183529284019291840191600101613a0d565b50909695505050505050565b901515815260200190565b602081016129d08284613779565b600060208252610b19602083018461374d565b6000610100808352613a758184018c61374d565b90508281036020840152613a89818b61374d565b90508281036040840152613a9d818a61374d565b9150508660608301528560808301528460a0830152613abf60c0830185613779565b6001600160a01b039290921660e09190910152979650505050505050565b6020808252602e908201527f5061796d656e7420616d6f756e74206d7573742065786163746c79206d61746360408201526d68206c697374656420707269636560901b606082015260800190565b60208082526032908201527f4552433732313a207472616e7366657220746f206e6f6e20455243373231526560408201527131b2b4bb32b91034b6b83632b6b2b73a32b960711b606082015260800190565b60208082526026908201527f4f776e61626c653a206e6577206f776e657220697320746865207a65726f206160408201526564647265737360d01b606082015260800190565b6020808252601c908201527f4552433732313a20746f6b656e20616c7265616479206d696e74656400000000604082015260600190565b60208082526024908201527f4552433732313a207472616e7366657220746f20746865207a65726f206164646040820152637265737360e01b606082015260800190565b60208082526019908201527f4552433732313a20617070726f766520746f2063616c6c657200000000000000604082015260600190565b6020808252604c908201527f506c6561736520646f206e6f742073656e64207468697320636f6e747261637460408201527f2066756e6473206f722063616c6c20612066756e6374696f6e2074686174206460608201526b1bd95cdb89dd08195e1a5cdd60a21b608082015260a00190565b60208082526032908201527f596f757220486f726e2069732076616c7561626c6520616e642063616e6e6f7460408201527120626520736f6c6420666f7220667265652160701b606082015260800190565b6020808252602c908201527f4552433732313a206f70657261746f7220717565727920666f72206e6f6e657860408201526b34b9ba32b73a103a37b5b2b760a11b606082015260800190565b60208082526038908201527f4552433732313a20617070726f76652063616c6c6572206973206e6f74206f7760408201527f6e6572206e6f7220617070726f76656420666f7220616c6c0000000000000000606082015260800190565b6020808252602a908201527f4552433732313a2062616c616e636520717565727920666f7220746865207a65604082015269726f206164647265737360b01b606082015260800190565b60208082526029908201527f4552433732313a206f776e657220717565727920666f72206e6f6e657869737460408201526832b73a103a37b5b2b760b91b606082015260800190565b6020808252602e908201527f45524337323155524953746f726167653a2055524920736574206f66206e6f6e60408201526d32bc34b9ba32b73a103a37b5b2b760911b606082015260800190565b60208082526028908201527f486f726e20686173206e6f74206265656e206d61726b6564206173207061696460408201526708199bdc881e595d60c21b606082015260800190565b602080825260409082018190527f546869732066756e6374696f6e206d6179206f6e6c792062652063616c6c6564908201527f20627920612062757965722077686f2068617320616c72656164792070616964606082015260800190565b60208082526025908201527f486f726e206973206e6f742063757272656e746c79206c697374656420666f726040820152642073616c6560d81b606082015260800190565b60208082526030908201527f596f75206d75737420666972737420626520617070726f76656420627920637560408201526f393932b73a103437b9371037bbb732b960811b606082015260800190565b6020808252818101527f4552433732313a206d696e7420746f20746865207a65726f2061646472657373604082015260600190565b60208082526031908201527f45524337323155524953746f726167653a2055524920717565727920666f72206040820152703737b732bc34b9ba32b73a103a37b5b2b760791b606082015260800190565b60208082526038908201527f546869732066756e6374696f6e206d6179206f6e6c792062652063616c6c656460408201527f2062792074686520686f726e204e46542773206f776e65720000000000000000606082015260800190565b6020808252602c908201527f4552433732313a20617070726f76656420717565727920666f72206e6f6e657860408201526b34b9ba32b73a103a37b5b2b760a11b606082015260800190565b60208082526034908201527f4275796572206d7573742073656e64207061796d656e7420666f7220486f726e60408201527308139195081d1bc8195cd8dc9bddc8199a5c9cdd60621b606082015260800190565b6020808252818101527f4f776e61626c653a2063616c6c6572206973206e6f7420746865206f776e6572604082015260600190565b60208082526026908201527f486f726e204e4654206d75737420657869737420616e642063616e6e6f74206260408201526565206672656560d01b606082015260800190565b60208082526029908201527f4552433732313a207472616e73666572206f6620746f6b656e2074686174206960408201526839903737ba1037bbb760b91b606082015260800190565b6020808252602f908201527f4552433732314d657461646174613a2055524920717565727920666f72206e6f60408201526e3732bc34b9ba32b73a103a37b5b2b760891b606082015260800190565b6020808252603a908201527f4164647265737320676976656e20646f6573206e6f74206d617463682074686560408201527f206f6e65206f6e2066696c6520666f7220746865206275796572000000000000606082015260800190565b60208082526021908201527f4552433732313a20617070726f76616c20746f2063757272656e74206f776e656040820152603960f91b606082015260800190565b60208082526031908201527f4552433732313a207472616e736665722063616c6c6572206973206e6f74206f6040820152701ddb995c881b9bdc88185c1c1c9bdd9959607a1b606082015260800190565b60208082526027908201527f486f726e20686173206e6f74206265656e206d61726b656420617320736869706040820152661c1959081e595d60ca1b606082015260800190565b60208082526024908201527f596f757220486f726e20697320616c7265616479206c697374656420666f722060408201526373616c6560e01b606082015260800190565b600060208252610b19602083018461379b565b90815260200190565b60009081526020902090565b600082198211156144495761444961450f565b500190565b60008261445d5761445d614525565b500490565b6000828210156144745761447461450f565b500390565b60005b8381101561449457818101518382015260200161447c565b8381111561224d5750506000910152565b6002810460018216806144b957607f821691505b602082108114156144da57634e487b7160e01b600052602260045260246000fd5b50919050565b60006000198214156144f4576144f461450f565b5060010190565b60008261450a5761450a614525565b500690565b634e487b7160e01b600052601160045260246000fd5b634e487b7160e01b600052601260045260246000fd5b634e487b7160e01b600052604160045260246000fd5b6001600160a01b0381168114612a5f57600080fd5b6001600160e01b031981168114612a5f57600080fdfea2646970667358221220726b020d1c0556f39078732fdd5c5e6292ea2011eb1a54c8f0d57c1f4021757d64736f6c63430008000033608060405234801561001057600080fd5b5061002161001c610026565b61002a565b61007a565b3390565b600080546001600160a01b038381166001600160a01b0319831681178455604051919092169283917f8be0079c531659141344cd1fd0a4f28419497f9722a3daafe3b4186f6b6457e09190a35050565b610616806100896000396000f3fe6080604052600436106100555760003560e01c806351cff8d91461005a578063715018a61461007c5780638da5cb5b14610091578063e3a9db1a146100bc578063f2fde38b146100e9578063f340fa0114610109575b600080fd5b34801561006657600080fd5b5061007a610075366004610455565b61011c565b005b34801561008857600080fd5b5061007a6101d1565b34801561009d57600080fd5b506100a661021c565b6040516100b3919061047b565b60405180910390f35b3480156100c857600080fd5b506100dc6100d7366004610455565b61022b565b6040516100b3919061059e565b3480156100f557600080fd5b5061007a610104366004610455565b610246565b61007a610117366004610455565b6102b7565b610124610360565b6001600160a01b031661013561021c565b6001600160a01b0316146101645760405162461bcd60e51b815260040161015b90610569565b60405180910390fd5b6001600160a01b038116600081815260016020526040812080549190559061018c9082610364565b816001600160a01b03167f7084f5476618d8e60b11ef0d7d3f06914655adb8793e28ff7f018d4c76d505d5826040516101c5919061059e565b60405180910390a25050565b6101d9610360565b6001600160a01b03166101ea61021c565b6001600160a01b0316146102105760405162461bcd60e51b815260040161015b90610569565b61021a6000610405565b565b6000546001600160a01b031690565b6001600160a01b031660009081526001602052604090205490565b61024e610360565b6001600160a01b031661025f61021c565b6001600160a01b0316146102855760405162461bcd60e51b815260040161015b90610569565b6001600160a01b0381166102ab5760405162461bcd60e51b815260040161015b9061048f565b6102b481610405565b50565b6102bf610360565b6001600160a01b03166102d061021c565b6001600160a01b0316146102f65760405162461bcd60e51b815260040161015b90610569565b6001600160a01b0381166000908152600160205260408120805434928392916103209084906105a7565b92505081905550816001600160a01b03167f2da466a7b24304f47e87fa2e1e5a81b9831ce54fec19055ce277ca2f39ba42c4826040516101c5919061059e565b3390565b804710156103845760405162461bcd60e51b815260040161015b90610532565b6000826001600160a01b03168260405161039d90610478565b60006040518083038185875af1925050503d80600081146103da576040519150601f19603f3d011682016040523d82523d6000602084013e6103df565b606091505b50509050806104005760405162461bcd60e51b815260040161015b906104d5565b505050565b600080546001600160a01b038381166001600160a01b0319831681178455604051919092169283917f8be0079c531659141344cd1fd0a4f28419497f9722a3daafe3b4186f6b6457e09190a35050565b600060208284031215610466578081fd5b8135610471816105cb565b9392505050565b90565b6001600160a01b0391909116815260200190565b60208082526026908201527f4f776e61626c653a206e6577206f776e657220697320746865207a65726f206160408201526564647265737360d01b606082015260800190565b6020808252603a908201527f416464726573733a20756e61626c6520746f2073656e642076616c75652c207260408201527f6563697069656e74206d61792068617665207265766572746564000000000000606082015260800190565b6020808252601d908201527f416464726573733a20696e73756666696369656e742062616c616e6365000000604082015260600190565b6020808252818101527f4f776e61626c653a2063616c6c6572206973206e6f7420746865206f776e6572604082015260600190565b90815260200190565b600082198211156105c657634e487b7160e01b81526011600452602481fd5b500190565b6001600160a01b03811681146102b457600080fdfea26469706673582212201b4f49cf5b99cd6f1965f7902db7a17b9154df54bbb3556be1e31495e133f49a64736f6c63430008000033",
  "linkReferences": {},
  "deployedLinkReferences": {}
}