{
  "_format": "hh-sol-artifact-1",
  "contractName": "HornMarketplace",
  "sourceName": "contracts/HornMarketplace.sol",
  "abi": [
    {
      "inputs": [],
      "stateMutability": "nonpayable",
      "type": "constructor"
    },
    {
      "anonymous": false,
      "inputs": [
        {
          "indexed": true,
          "internalType": "address",
          "name": "owner",
          "type": "address"
        },
        {
          "indexed": true,
          "internalType": "address",
          "name": "approved",
          "type": "address"
        },
        {
          "indexed": true,
          "internalType": "uint256",
          "name": "tokenId",
          "type": "uint256"
        }
      ],
      "name": "Approval",
      "type": "event"
    },
    {
      "anonymous": false,
      "inputs": [
        {
          "indexed": true,
          "internalType": "address",
          "name": "owner",
          "type": "address"
        },
        {
          "indexed": true,
          "internalType": "address",
          "name": "operator",
          "type": "address"
        },
        {
          "indexed": false,
          "internalType": "bool",
          "name": "approved",
          "type": "bool"
        }
      ],
      "name": "ApprovalForAll",
      "type": "event"
    },
    {
      "anonymous": false,
      "inputs": [
        {
          "indexed": true,
          "internalType": "address",
          "name": "payee",
          "type": "address"
        },
        {
          "indexed": true,
          "internalType": "uint256",
          "name": "amountInWei",
          "type": "uint256"
        }
      ],
      "name": "DepositedToEscrow",
      "type": "event"
    },
    {
      "anonymous": false,
      "inputs": [
        {
          "indexed": true,
          "internalType": "uint256",
          "name": "hornId",
          "type": "uint256"
        },
        {
          "indexed": true,
          "internalType": "address",
          "name": "from",
          "type": "address"
        },
        {
          "indexed": true,
          "internalType": "address",
          "name": "to",
          "type": "address"
        }
      ],
      "name": "HornDeliveredAndNFTOwnershipTransferred",
      "type": "event"
    },
    {
      "anonymous": false,
      "inputs": [
        {
          "indexed": true,
          "internalType": "uint256",
          "name": "hornId",
          "type": "uint256"
        },
        {
          "indexed": true,
          "internalType": "address",
          "name": "seller",
          "type": "address"
        },
        {
          "indexed": true,
          "internalType": "string",
          "name": "make",
          "type": "string"
        }
      ],
      "name": "HornListedForSale",
      "type": "event"
    },
    {
      "anonymous": false,
      "inputs": [
        {
          "indexed": true,
          "internalType": "uint256",
          "name": "hornId",
          "type": "uint256"
        },
        {
          "indexed": true,
          "internalType": "string",
          "name": "shipTo",
          "type": "string"
        },
        {
          "indexed": true,
          "internalType": "address",
          "name": "buyer",
          "type": "address"
        }
      ],
      "name": "HornPurchased",
      "type": "event"
    },
    {
      "anonymous": false,
      "inputs": [
        {
          "indexed": true,
          "internalType": "uint256",
          "name": "hornId",
          "type": "uint256"
        },
        {
          "indexed": true,
          "internalType": "string",
          "name": "shipTo",
          "type": "string"
        },
        {
          "indexed": true,
          "internalType": "address",
          "name": "to",
          "type": "address"
        }
      ],
      "name": "HornShipped",
      "type": "event"
    },
    {
      "anonymous": false,
      "inputs": [
        {
          "indexed": true,
          "internalType": "uint256",
          "name": "hornId",
          "type": "uint256"
        },
        {
          "indexed": true,
          "internalType": "address",
          "name": "seller",
          "type": "address"
        },
        {
          "indexed": true,
          "internalType": "string",
          "name": "make",
          "type": "string"
        }
      ],
      "name": "NewHornNFTMinted",
      "type": "event"
    },
    {
      "anonymous": false,
      "inputs": [
        {
          "indexed": true,
          "internalType": "address",
          "name": "previousOwner",
          "type": "address"
        },
        {
          "indexed": true,
          "internalType": "address",
          "name": "newOwner",
          "type": "address"
        }
      ],
      "name": "OwnershipTransferred",
      "type": "event"
    },
    {
      "anonymous": false,
      "inputs": [
        {
          "indexed": true,
          "internalType": "uint256",
          "name": "hornId",
          "type": "uint256"
        },
        {
          "indexed": true,
          "internalType": "address",
          "name": "payer",
          "type": "address"
        },
        {
          "indexed": true,
          "internalType": "address",
          "name": "payee",
          "type": "address"
        }
      ],
      "name": "SellerPaid",
      "type": "event"
    },
    {
      "anonymous": false,
      "inputs": [
        {
          "indexed": true,
          "internalType": "address",
          "name": "from",
          "type": "address"
        },
        {
          "indexed": true,
          "internalType": "address",
          "name": "to",
          "type": "address"
        },
        {
          "indexed": true,
          "internalType": "uint256",
          "name": "tokenId",
          "type": "uint256"
        }
      ],
      "name": "Transfer",
      "type": "event"
    },
    {
      "anonymous": false,
      "inputs": [
        {
          "indexed": true,
          "internalType": "address",
          "name": "payee",
          "type": "address"
        },
        {
          "indexed": true,
          "internalType": "uint256",
          "name": "amountInWei",
          "type": "uint256"
        }
      ],
      "name": "WithdrawnFromEscrow",
      "type": "event"
    },
    {
      "stateMutability": "nonpayable",
      "type": "fallback"
    },
    {
      "inputs": [
        {
          "internalType": "address",
          "name": "to",
          "type": "address"
        },
        {
          "internalType": "uint256",
          "name": "tokenId",
          "type": "uint256"
        }
      ],
      "name": "approve",
      "outputs": [],
      "stateMutability": "nonpayable",
      "type": "function"
    },
    {
      "inputs": [
        {
          "internalType": "address",
          "name": "owner",
          "type": "address"
        }
      ],
      "name": "balanceOf",
      "outputs": [
        {
          "internalType": "uint256",
          "name": "",
          "type": "uint256"
        }
      ],
      "stateMutability": "view",
      "type": "function"
    },
    {
      "inputs": [
        {
          "internalType": "uint256",
          "name": "",
          "type": "uint256"
        }
      ],
      "name": "buyers",
      "outputs": [
        {
          "internalType": "address",
          "name": "",
          "type": "address"
        }
      ],
      "stateMutability": "view",
      "type": "function"
    },
    {
      "inputs": [
        {
          "internalType": "uint256",
          "name": "tokenId",
          "type": "uint256"
        }
      ],
      "name": "getApproved",
      "outputs": [
        {
          "internalType": "address",
          "name": "",
          "type": "address"
        }
      ],
      "stateMutability": "view",
      "type": "function"
    },
    {
      "inputs": [
        {
          "internalType": "uint256",
          "name": "_tokenId",
          "type": "uint256"
        }
      ],
      "name": "getApprovedToSpend",
      "outputs": [
        {
          "internalType": "address",
          "name": "",
          "type": "address"
        }
      ],
      "stateMutability": "view",
      "type": "function"
    },
    {
      "inputs": [
        {
          "internalType": "address",
          "name": "_owner",
          "type": "address"
        }
      ],
      "name": "getBalanceOf",
      "outputs": [
        {
          "internalType": "uint256",
          "name": "",
          "type": "uint256"
        }
      ],
      "stateMutability": "view",
      "type": "function"
    },
    {
      "inputs": [],
      "name": "getCurrentHornsForSale",
      "outputs": [
        {
          "internalType": "uint256[]",
          "name": "",
          "type": "uint256[]"
        }
      ],
      "stateMutability": "view",
      "type": "function"
    },
    {
      "inputs": [
        {
          "internalType": "uint256",
          "name": "__hornId",
          "type": "uint256"
        }
      ],
      "name": "getCurrentOwnerByMapping",
      "outputs": [
        {
          "internalType": "address payable",
          "name": "",
          "type": "address"
        }
      ],
      "stateMutability": "view",
      "type": "function"
    },
    {
      "inputs": [
        {
          "internalType": "uint256",
          "name": "__hornId",
          "type": "uint256"
        }
      ],
      "name": "getCurrentOwnerByStructAttribute",
      "outputs": [
        {
          "internalType": "address payable",
          "name": "",
          "type": "address"
        }
      ],
      "stateMutability": "view",
      "type": "function"
    },
    {
      "inputs": [],
      "name": "getCurrentlyListedHorns",
      "outputs": [
        {
          "components": [
            {
              "internalType": "string",
              "name": "make",
              "type": "string"
            },
            {
              "internalType": "string",
              "name": "model",
              "type": "string"
            },
            {
              "internalType": "string",
              "name": "style",
              "type": "string"
            },
            {
              "internalType": "uint256",
              "name": "serialNumber",
              "type": "uint256"
            },
            {
              "internalType": "uint256",
              "name": "listPrice",
              "type": "uint256"
            },
            {
              "internalType": "uint256",
              "name": "tokenId",
              "type": "uint256"
            },
            {
              "internalType": "enum HornMarketplace.HornStatus",
              "name": "status",
              "type": "uint8"
            },
            {
              "internalType": "address payable",
              "name": "currentOwner",
              "type": "address"
            }
          ],
          "internalType": "struct HornMarketplace.Horn[]",
          "name": "",
          "type": "tuple[]"
        }
      ],
      "stateMutability": "view",
      "type": "function"
    },
    {
      "inputs": [],
      "name": "getCurrentlyOwnedHorns",
      "outputs": [
        {
          "components": [
            {
              "internalType": "string",
              "name": "make",
              "type": "string"
            },
            {
              "internalType": "string",
              "name": "model",
              "type": "string"
            },
            {
              "internalType": "string",
              "name": "style",
              "type": "string"
            },
            {
              "internalType": "uint256",
              "name": "serialNumber",
              "type": "uint256"
            },
            {
              "internalType": "uint256",
              "name": "listPrice",
              "type": "uint256"
            },
            {
              "internalType": "uint256",
              "name": "tokenId",
              "type": "uint256"
            },
            {
              "internalType": "enum HornMarketplace.HornStatus",
              "name": "status",
              "type": "uint8"
            },
            {
              "internalType": "address payable",
              "name": "currentOwner",
              "type": "address"
            }
          ],
          "internalType": "struct HornMarketplace.Horn[]",
          "name": "",
          "type": "tuple[]"
        }
      ],
      "stateMutability": "view",
      "type": "function"
    },
    {
      "inputs": [
        {
          "internalType": "address",
          "name": "payee",
          "type": "address"
        }
      ],
      "name": "getEscrowDepositValue",
      "outputs": [
        {
          "internalType": "uint256",
          "name": "",
          "type": "uint256"
        }
      ],
      "stateMutability": "view",
      "type": "function"
    },
    {
      "inputs": [],
      "name": "getEscrowOwner",
      "outputs": [
        {
          "internalType": "address",
          "name": "",
          "type": "address"
        }
      ],
      "stateMutability": "view",
      "type": "function"
    },
    {
      "inputs": [
        {
          "internalType": "uint256",
          "name": "_index",
          "type": "uint256"
        }
      ],
      "name": "getHornById",
      "outputs": [
        {
          "components": [
            {
              "internalType": "string",
              "name": "make",
              "type": "string"
            },
            {
              "internalType": "string",
              "name": "model",
              "type": "string"
            },
            {
              "internalType": "string",
              "name": "style",
              "type": "string"
            },
            {
              "internalType": "uint256",
              "name": "serialNumber",
              "type": "uint256"
            },
            {
              "internalType": "uint256",
              "name": "listPrice",
              "type": "uint256"
            },
            {
              "internalType": "uint256",
              "name": "tokenId",
              "type": "uint256"
            },
            {
              "internalType": "enum HornMarketplace.HornStatus",
              "name": "status",
              "type": "uint8"
            },
            {
              "internalType": "address payable",
              "name": "currentOwner",
              "type": "address"
            }
          ],
          "internalType": "struct HornMarketplace.Horn",
          "name": "",
          "type": "tuple"
        }
      ],
      "stateMutability": "view",
      "type": "function"
    },
    {
      "inputs": [
        {
          "internalType": "uint256",
          "name": "__hornId",
          "type": "uint256"
        }
      ],
      "name": "getListPriceByHornId",
      "outputs": [
        {
          "internalType": "uint256",
          "name": "",
          "type": "uint256"
        }
      ],
      "stateMutability": "view",
      "type": "function"
    },
    {
      "inputs": [
        {
          "internalType": "uint256",
          "name": "__hornId",
          "type": "uint256"
        }
      ],
      "name": "getStatusOfHornByHornId",
      "outputs": [
        {
          "internalType": "enum HornMarketplace.HornStatus",
          "name": "",
          "type": "uint8"
        }
      ],
      "stateMutability": "view",
      "type": "function"
    },
    {
      "inputs": [
        {
          "internalType": "uint256",
          "name": "",
          "type": "uint256"
        }
      ],
      "name": "horns",
      "outputs": [
        {
          "internalType": "string",
          "name": "make",
          "type": "string"
        },
        {
          "internalType": "string",
          "name": "model",
          "type": "string"
        },
        {
          "internalType": "string",
          "name": "style",
          "type": "string"
        },
        {
          "internalType": "uint256",
          "name": "serialNumber",
          "type": "uint256"
        },
        {
          "internalType": "uint256",
          "name": "listPrice",
          "type": "uint256"
        },
        {
          "internalType": "uint256",
          "name": "tokenId",
          "type": "uint256"
        },
        {
          "internalType": "enum HornMarketplace.HornStatus",
          "name": "status",
          "type": "uint8"
        },
        {
          "internalType": "address payable",
          "name": "currentOwner",
          "type": "address"
        }
      ],
      "stateMutability": "view",
      "type": "function"
    },
    {
      "inputs": [
        {
          "internalType": "uint256",
          "name": "",
          "type": "uint256"
        }
      ],
      "name": "hornsForSale",
      "outputs": [
        {
          "internalType": "uint256",
          "name": "",
          "type": "uint256"
        }
      ],
      "stateMutability": "view",
      "type": "function"
    },
    {
      "inputs": [
        {
          "internalType": "address",
          "name": "owner",
          "type": "address"
        },
        {
          "internalType": "address",
          "name": "operator",
          "type": "address"
        }
      ],
      "name": "isApprovedForAll",
      "outputs": [
        {
          "internalType": "bool",
          "name": "",
          "type": "bool"
        }
      ],
      "stateMutability": "view",
      "type": "function"
    },
    {
      "inputs": [
        {
          "internalType": "uint256",
          "name": "__hornId",
          "type": "uint256"
        },
        {
          "internalType": "uint256",
          "name": "_desiredPrice",
          "type": "uint256"
        }
      ],
      "name": "listExistingHornNFT",
      "outputs": [
        {
          "internalType": "uint256",
          "name": "",
          "type": "uint256"
        }
      ],
      "stateMutability": "nonpayable",
      "type": "function"
    },
    {
      "inputs": [
        {
          "internalType": "uint256",
          "name": "__hornId",
          "type": "uint256"
        }
      ],
      "name": "markHornDeliveredAndOwnershipTransferred",
      "outputs": [
        {
          "internalType": "uint256",
          "name": "",
          "type": "uint256"
        }
      ],
      "stateMutability": "nonpayable",
      "type": "function"
    },
    {
      "inputs": [
        {
          "internalType": "uint256",
          "name": "__hornId",
          "type": "uint256"
        },
        {
          "internalType": "string",
          "name": "shippedTo",
          "type": "string"
        }
      ],
      "name": "markHornShipped",
      "outputs": [
        {
          "internalType": "string",
          "name": "",
          "type": "string"
        }
      ],
      "stateMutability": "nonpayable",
      "type": "function"
    },
    {
      "inputs": [
        {
          "internalType": "string",
          "name": "tokenUri",
          "type": "string"
        },
        {
          "internalType": "string",
          "name": "_make",
          "type": "string"
        },
        {
          "internalType": "string",
          "name": "_model",
          "type": "string"
        },
        {
          "internalType": "string",
          "name": "_style",
          "type": "string"
        },
        {
          "internalType": "uint256",
          "name": "_serialNumber",
          "type": "uint256"
        }
      ],
      "name": "mintButDontListNewHornNFT",
      "outputs": [
        {
          "internalType": "uint256",
          "name": "",
          "type": "uint256"
        }
      ],
      "stateMutability": "nonpayable",
      "type": "function"
    },
    {
      "inputs": [
        {
          "internalType": "string",
          "name": "tokenUri",
          "type": "string"
        },
        {
          "internalType": "string",
          "name": "_make",
          "type": "string"
        },
        {
          "internalType": "string",
          "name": "_model",
          "type": "string"
        },
        {
          "internalType": "string",
          "name": "_style",
          "type": "string"
        },
        {
          "internalType": "uint256",
          "name": "_serialNumber",
          "type": "uint256"
        },
        {
          "internalType": "uint256",
          "name": "_desiredPrice",
          "type": "uint256"
        }
      ],
      "name": "mintThenListNewHornNFT",
      "outputs": [
        {
          "internalType": "uint256",
          "name": "",
          "type": "uint256"
        }
      ],
      "stateMutability": "nonpayable",
      "type": "function"
    },
    {
      "inputs": [],
      "name": "name",
      "outputs": [
        {
          "internalType": "string",
          "name": "",
          "type": "string"
        }
      ],
      "stateMutability": "view",
      "type": "function"
    },
    {
      "inputs": [],
      "name": "owner",
      "outputs": [
        {
          "internalType": "address",
          "name": "",
          "type": "address"
        }
      ],
      "stateMutability": "view",
      "type": "function"
    },
    {
      "inputs": [
        {
          "internalType": "uint256",
          "name": "tokenId",
          "type": "uint256"
        }
      ],
      "name": "ownerOf",
      "outputs": [
        {
          "internalType": "address",
          "name": "",
          "type": "address"
        }
      ],
      "stateMutability": "view",
      "type": "function"
    },
    {
      "inputs": [
        {
          "internalType": "uint256",
          "name": "__hornId",
          "type": "uint256"
        },
        {
          "internalType": "string",
          "name": "_shipTo",
          "type": "string"
        }
      ],
      "name": "purchaseHornByHornId",
      "outputs": [],
      "stateMutability": "payable",
      "type": "function"
    },
    {
      "inputs": [],
      "name": "renounceOwnership",
      "outputs": [],
      "stateMutability": "nonpayable",
      "type": "function"
    },
    {
      "inputs": [
        {
          "internalType": "address",
          "name": "from",
          "type": "address"
        },
        {
          "internalType": "address",
          "name": "to",
          "type": "address"
        },
        {
          "internalType": "uint256",
          "name": "tokenId",
          "type": "uint256"
        }
      ],
      "name": "safeTransferFrom",
      "outputs": [],
      "stateMutability": "nonpayable",
      "type": "function"
    },
    {
      "inputs": [
        {
          "internalType": "address",
          "name": "from",
          "type": "address"
        },
        {
          "internalType": "address",
          "name": "to",
          "type": "address"
        },
        {
          "internalType": "uint256",
          "name": "tokenId",
          "type": "uint256"
        },
        {
          "internalType": "bytes",
          "name": "_data",
          "type": "bytes"
        }
      ],
      "name": "safeTransferFrom",
      "outputs": [],
      "stateMutability": "nonpayable",
      "type": "function"
    },
    {
      "inputs": [
        {
          "internalType": "address",
          "name": "operator",
          "type": "address"
        },
        {
          "internalType": "bool",
          "name": "approved",
          "type": "bool"
        }
      ],
      "name": "setApprovalForAll",
      "outputs": [],
      "stateMutability": "nonpayable",
      "type": "function"
    },
    {
      "inputs": [
        {
          "internalType": "address",
          "name": "",
          "type": "address"
        }
      ],
      "name": "shippingAddresses",
      "outputs": [
        {
          "internalType": "string",
          "name": "",
          "type": "string"
        }
      ],
      "stateMutability": "view",
      "type": "function"
    },
    {
      "inputs": [
        {
          "internalType": "bytes4",
          "name": "interfaceId",
          "type": "bytes4"
        }
      ],
      "name": "supportsInterface",
      "outputs": [
        {
          "internalType": "bool",
          "name": "",
          "type": "bool"
        }
      ],
      "stateMutability": "view",
      "type": "function"
    },
    {
      "inputs": [],
      "name": "symbol",
      "outputs": [
        {
          "internalType": "string",
          "name": "",
          "type": "string"
        }
      ],
      "stateMutability": "view",
      "type": "function"
    },
    {
      "inputs": [
        {
          "internalType": "uint256",
          "name": "tokenId",
          "type": "uint256"
        }
      ],
      "name": "tokenURI",
      "outputs": [
        {
          "internalType": "string",
          "name": "",
          "type": "string"
        }
      ],
      "stateMutability": "view",
      "type": "function"
    },
    {
      "inputs": [
        {
          "internalType": "address",
          "name": "from",
          "type": "address"
        },
        {
          "internalType": "address",
          "name": "to",
          "type": "address"
        },
        {
          "internalType": "uint256",
          "name": "tokenId",
          "type": "uint256"
        }
      ],
      "name": "transferFrom",
      "outputs": [],
      "stateMutability": "nonpayable",
      "type": "function"
    },
    {
      "inputs": [
        {
          "internalType": "address",
          "name": "newOwner",
          "type": "address"
        }
      ],
      "name": "transferOwnership",
      "outputs": [],
      "stateMutability": "nonpayable",
      "type": "function"
    },
    {
      "stateMutability": "payable",
      "type": "receive"
    }
  ],
  "bytecode": "0x60806040523480156200001157600080fd5b50604051806040016040528060048152602001632437b93760e11b815250604051806040016040528060048152602001632427a92760e11b8152506200006662000060620000e660201b60201c565b620000ea565b81516200007b9060019060208501906200013a565b508051620000919060029060208401906200013a565b505050604051620000a290620001c9565b604051809103906000f080158015620000bf573d6000803e3d6000fd5b50600980546001600160a01b0319166001600160a01b03929092169190911790556200022b565b3390565b600080546001600160a01b038381166001600160a01b0319831681178455604051919092169283917f8be0079c531659141344cd1fd0a4f28419497f9722a3daafe3b4186f6b6457e09190a35050565b8280546200014890620001ee565b90600052602060002090601f0160209004810192826200016c5760008555620001b7565b82601f106200018757805160ff1916838001178555620001b7565b82800160010185558215620001b7579182015b82811115620001b75782518255916020019190600101906200019a565b50620001c5929150620001d7565b5090565b61069f80620047af83390190565b5b80821115620001c55760008155600101620001d8565b6002810460018216806200020357607f821691505b602082108114156200022557634e487b7160e01b600052602260045260246000fd5b50919050565b614574806200023b6000396000f3fe6080604052600436106102295760003560e01c80638da5cb5b11610123578063b88d4fde116100ab578063cf44981a1161006f578063cf44981a146106b6578063e985e9c5146106d6578063f2aa8218146106f6578063f2fde38b14610716578063fd92de01146107365761024f565b8063b88d4fde14610621578063ba80a2c414610641578063c0227bbb14610661578063c87b56dd14610681578063cce44056146106a15761024f565b8063a081feb1116100f2578063a081feb114610578578063a22cb4651461058d578063b15fca9e146105ad578063b5178ed5146105cd578063b7d002f4146106015761024f565b80638da5cb5b1461050c57806395d89b411461052157806398960435146105365780639b96eece146105585761024f565b80633a770745116101b15780636352211e116101755780636352211e1461046857806370a0823114610488578063715018a6146104a857806376cb00ee146104bd57806378b5270c146104ea5761024f565b80633a770745146103c85780633dda1fca146103db57806342842e0e146103fb57806349870e531461041b57806362547501146104485761024f565b806311723dc2116101f857806311723dc21461031b578063125bba371461033b57806319df66f4146103685780631c5e1d5e1461038857806323b872dd146103a85761024f565b806301ffc9a71461027457806306fdde03146102aa578063081812fc146102cc578063095ea7b3146102f95761024f565b3661024f5760405162461bcd60e51b815260040161024690613c37565b60405180910390fd5b34801561025b57600080fd5b5060405162461bcd60e51b815260040161024690613c37565b34801561028057600080fd5b5061029461028f36600461346a565b610756565b6040516102a191906139f7565b60405180910390f35b3480156102b657600080fd5b506102bf61079e565b6040516102a19190613a10565b3480156102d857600080fd5b506102ec6102e736600461362f565b610830565b6040516102a19190613902565b34801561030557600080fd5b5061031961031436600461343f565b610873565b005b34801561032757600080fd5b506102ec61033636600461362f565b61090b565b34801561034757600080fd5b5061035b6103563660046136ee565b61092e565b6040516102a191906143e3565b34801561037457600080fd5b5061035b6103833660046132e1565b610a74565b34801561039457600080fd5b506102ec6103a336600461362f565b610b00565b3480156103b457600080fd5b506103196103c3366004613351565b610b1b565b6103196103d63660046136a9565b610b53565b3480156103e757600080fd5b506102ec6103f636600461362f565b610de9565b34801561040757600080fd5b50610319610416366004613351565b610df5565b34801561042757600080fd5b5061043b61043636600461362f565b610e10565b6040516102a19190613a02565b34801561045457600080fd5b5061035b6104633660046134a2565b610e28565b34801561047457600080fd5b506102ec61048336600461362f565b6110bf565b34801561049457600080fd5b5061035b6104a33660046132e1565b6110f4565b3480156104b457600080fd5b50610319611138565b3480156104c957600080fd5b506104dd6104d836600461362f565b611183565b6040516102a191906143d0565b3480156104f657600080fd5b506104ff6113e6565b6040516102a19190613953565b34801561051857600080fd5b506102ec6117b6565b34801561052d57600080fd5b506102bf6117c5565b34801561054257600080fd5b5061054b6117d4565b6040516102a191906139b3565b34801561056457600080fd5b5061035b6105733660046132e1565b61182b565b34801561058457600080fd5b506104ff611837565b34801561059957600080fd5b506103196105a836600461340e565b611b81565b3480156105b957600080fd5b506102bf6105c83660046132e1565b611c4f565b3480156105d957600080fd5b506105ed6105e836600461362f565b611ce9565b6040516102a1989796959493929190613a23565b34801561060d57600080fd5b5061035b61061c36600461362f565b611ecf565b34801561062d57600080fd5b5061031961063c366004613391565b6121d6565b34801561064d57600080fd5b5061035b61065c366004613563565b612215565b34801561066d57600080fd5b5061035b61067c36600461362f565b612501565b34801561068d57600080fd5b506102bf61069c36600461362f565b612522565b3480156106ad57600080fd5b506102ec612643565b3480156106c257600080fd5b506102bf6106d136600461365f565b6126d2565b3480156106e257600080fd5b506102946106f1366004613319565b612968565b34801561070257600080fd5b506102ec61071136600461362f565b612998565b34801561072257600080fd5b506103196107313660046132e1565b6129b3565b34801561074257600080fd5b5061035b61075136600461362f565b612a24565b60006001600160e01b031982166380ac58cd60e01b148061078757506001600160e01b03198216635b5e139f60e01b145b80610796575061079682612a39565b90505b919050565b6060600180546107ad90614467565b80601f01602080910402602001604051908101604052809291908181526020018280546107d990614467565b80156108265780601f106107fb57610100808354040283529160200191610826565b820191906000526020600020905b81548152906001019060200180831161080957829003601f168201915b5050505050905090565b600061083b82612a52565b6108575760405162461bcd60e51b8152600401610246906140a3565b506000908152600560205260409020546001600160a01b031690565b600061087e826110bf565b9050806001600160a01b0316836001600160a01b031614156108b25760405162461bcd60e51b8152600401610246906142b3565b806001600160a01b03166108c4612a6f565b6001600160a01b031614806108e057506108e0816106f1612a6f565b6108fc5760405162461bcd60e51b815260040161024690613d47565b6109068383612a73565b505050565b6000908152600b602052604090206006015461010090046001600160a01b031690565b6000828152600d602052604081205483906001600160a01b031633146109665760405162461bcd60e51b815260040161024690614046565b600083116109865760405162461bcd60e51b815260040161024690613ca9565b6000848152600b602052604081206006015460ff1660038111156109ba57634e487b7160e01b600052602160045260246000fd5b14156109d85760405162461bcd60e51b81526004016102469061438c565b600a8054600181019091557fc65a7bb8d6351c1cf70c95a316cc6a92839c986682d98bc35f958f4883f9d2a8018490556000848152600b6020526040908190206004810185905560068101805460ff1916905590518591610a3891613867565b60405190819003812090339083907f762f1a2f7e87bdc2ebbbeb92df2d742317f8e1353aafc0c70b060981e72271f490600090a4949350505050565b6009546040516371d4ed8d60e11b815260009182916001600160a01b039091169063e3a9db1a90610aa9908690600401613902565b60206040518083038186803b158015610ac157600080fd5b505afa158015610ad5573d6000803e3d6000fd5b505050506040513d601f19601f82011682018060405250810190610af99190613647565b9392505050565b6000908152600d60205260409020546001600160a01b031690565b610b2c610b26612a6f565b82612ae1565b610b485760405162461bcd60e51b8152600401610246906142f4565b610906838383612b5e565b6000828152600b60205260409020600401548290610b835760405162461bcd60e51b815260040161024690614178565b6000818152600b602052604090206006015460ff166003811115610bb757634e487b7160e01b600052602160045260246000fd5b15610bd45760405162461bcd60e51b815260040161024690613f2b565b6000838152600b602052604090206004015483903414610c065760405162461bcd60e51b815260040161024690613a9f565b6009546000858152600d60205260409081902054905163f340fa0160e01b81526001600160a01b039283169263f340fa01923492610c4a9290911690600401613902565b6000604051808303818588803b158015610c6357600080fd5b505af1158015610c77573d6000803e3d6000fd5b5050336000908152600f602090815260409091208751889550610ca194509092509084019061310e565b506000858152600e6020908152604080832080546001600160a01b03191633179055600b9091528120600601805460ff191660011790555b600a54811015610d555785600a8281548110610d0557634e487b7160e01b600052603260045260246000fd5b90600052602060002001541415610d4357600a8181548110610d3757634e487b7160e01b600052603260045260246000fd5b60009182526020822001555b80610d4d816144a2565b915050610cd9565b506040513390610d6690869061381c565b6040519081900381209087907fdbca9a11cad69a5ab275fd9838feb30068a34f31d0f876d995c14a8dd906f70990600090a46000858152600b602052604080822060060154905134926101009092046001600160a01b0316917fe6138e0eb7be5ea87d2296f3ad7469a8364406bface7d4e5de0a21dce1841cdd91a35050505050565b600080610af983610830565b610906838383604051806020016040528060008152506121d6565b6000908152600b602052604090206006015460ff1690565b6000610e346008612c8b565b6000610e406008612c94565b9050610e4c3382612c98565b610e56818b612d77565b6040518061010001604052808a8a8080601f016020809104026020016040519081016040528093929190818152602001838380828437600092019190915250505090825250604080516020601f8b0181900481028201810190925289815291810191908a908a9081908401838280828437600092019190915250505090825250604080516020601f89018190048102820181019092528781529181019190889088908190840183828082843760009201829052509385525050506020820186905260408201526060810183905260800160038152336020918201526000838152600b825260409020825180519192610f539284929091019061310e565b506020828101518051610f6c926001850192019061310e565b5060408201518051610f8891600284019160209091019061310e565b50606082015181600301556080820151816004015560a0820151816005015560c08201518160060160006101000a81548160ff02191690836003811115610fdf57634e487b7160e01b600052602160045260246000fd5b021790555060e09190910151600690910180546001600160a01b0390921661010002610100600160a81b03199092169190911790556000818152600d6020908152604080832080546001600160a01b0319163317905551611046918c918c91889101613807565b60408051601f1981840301815282825280516020918201206000868152600c909252919020819055915061107d908b908b906137f7565b60405190819003812090339084907f4d80549dfe39c90078d620fcd854e5cbf03ace471593a7df725d1191056f30a190600090a4509998505050505050505050565b6000818152600360205260408120546001600160a01b0316806107965760405162461bcd60e51b815260040161024690613dee565b60006001600160a01b03821661111c5760405162461bcd60e51b815260040161024690613da4565b506001600160a01b031660009081526004602052604090205490565b611140612a6f565b6001600160a01b03166111516117b6565b6001600160a01b0316146111775760405162461bcd60e51b815260040161024690614143565b6111816000612dbb565b565b61118b613192565b6000828152600b602052604090819020815161010081019092528054829082906111b490614467565b80601f01602080910402602001604051908101604052809291908181526020018280546111e090614467565b801561122d5780601f106112025761010080835404028352916020019161122d565b820191906000526020600020905b81548152906001019060200180831161121057829003601f168201915b5050505050815260200160018201805461124690614467565b80601f016020809104026020016040519081016040528092919081815260200182805461127290614467565b80156112bf5780601f10611294576101008083540402835291602001916112bf565b820191906000526020600020905b8154815290600101906020018083116112a257829003601f168201915b505050505081526020016002820180546112d890614467565b80601f016020809104026020016040519081016040528092919081815260200182805461130490614467565b80156113515780601f1061132657610100808354040283529160200191611351565b820191906000526020600020905b81548152906001019060200180831161133457829003601f168201915b505050918352505060038281015460208301526004830154604083015260058301546060830152600683015460809092019160ff16908111156113a457634e487b7160e01b600052602160045260246000fd5b60038111156113c357634e487b7160e01b600052602160045260246000fd5b81526006919091015461010090046001600160a01b031660209091015292915050565b606060006113f46008612c94565b90506000805b828110156114525733600d60006114128460016143f8565b81526020810191909152604001600020546001600160a01b03161415611440578161143c816144a2565b9250505b8061144a816144a2565b9150506113fa565b506000808267ffffffffffffffff81111561147d57634e487b7160e01b600052604160045260246000fd5b6040519080825280602002602001820160405280156114b657816020015b6114a3613192565b81526020019060019003908161149b5790505b50905060005b848110156117ad5733600d60006114d48460016143f8565b81526020810191909152604001600020546001600160a01b0316141561179b5760006115018260016143f8565b9050600b60008281526020019081526020016000206040518061010001604052908160008201805461153290614467565b80601f016020809104026020016040519081016040528092919081815260200182805461155e90614467565b80156115ab5780601f10611580576101008083540402835291602001916115ab565b820191906000526020600020905b81548152906001019060200180831161158e57829003601f168201915b505050505081526020016001820180546115c490614467565b80601f01602080910402602001604051908101604052809291908181526020018280546115f090614467565b801561163d5780601f106116125761010080835404028352916020019161163d565b820191906000526020600020905b81548152906001019060200180831161162057829003601f168201915b5050505050815260200160028201805461165690614467565b80601f016020809104026020016040519081016040528092919081815260200182805461168290614467565b80156116cf5780601f106116a4576101008083540402835291602001916116cf565b820191906000526020600020905b8154815290600101906020018083116116b257829003601f168201915b505050918352505060038281015460208301526004830154604083015260058301546060830152600683015460809092019160ff169081111561172257634e487b7160e01b600052602160045260246000fd5b600381111561174157634e487b7160e01b600052602160045260246000fd5b81526006919091015461010090046001600160a01b0316602090910152835184908690811061178057634e487b7160e01b600052603260045260246000fd5b60200260200101819052508380611796906144a2565b945050505b806117a5816144a2565b9150506114bc565b50935050505090565b6000546001600160a01b031690565b6060600280546107ad90614467565b6060600a80548060200260200160405190810160405280929190818152602001828054801561082657602002820191906000526020600020905b81548152602001906001019080831161180e575050505050905090565b600080610af9836110f4565b600a5460609060009067ffffffffffffffff81111561186657634e487b7160e01b600052604160045260246000fd5b60405190808252806020026020018201604052801561189f57816020015b61188c613192565b8152602001906001900390816118845790505b50905060005b600a54811015611b7b576000600a82815481106118d257634e487b7160e01b600052603260045260246000fd5b90600052602060002001549050600b60008281526020019081526020016000206040518061010001604052908160008201805461190e90614467565b80601f016020809104026020016040519081016040528092919081815260200182805461193a90614467565b80156119875780601f1061195c57610100808354040283529160200191611987565b820191906000526020600020905b81548152906001019060200180831161196a57829003601f168201915b505050505081526020016001820180546119a090614467565b80601f01602080910402602001604051908101604052809291908181526020018280546119cc90614467565b8015611a195780601f106119ee57610100808354040283529160200191611a19565b820191906000526020600020905b8154815290600101906020018083116119fc57829003601f168201915b50505050508152602001600282018054611a3290614467565b80601f0160208091040260200160405190810160405280929190818152602001828054611a5e90614467565b8015611aab5780601f10611a8057610100808354040283529160200191611aab565b820191906000526020600020905b815481529060010190602001808311611a8e57829003601f168201915b505050918352505060038281015460208301526004830154604083015260058301546060830152600683015460809092019160ff1690811115611afe57634e487b7160e01b600052602160045260246000fd5b6003811115611b1d57634e487b7160e01b600052602160045260246000fd5b81526006919091015461010090046001600160a01b03166020909101528351849084908110611b5c57634e487b7160e01b600052603260045260246000fd5b6020026020010181905250508080611b73906144a2565b9150506118a5565b50905090565b611b89612a6f565b6001600160a01b0316826001600160a01b03161415611bba5760405162461bcd60e51b815260040161024690613c00565b8060066000611bc7612a6f565b6001600160a01b03908116825260208083019390935260409182016000908120918716808252919093529120805460ff191692151592909217909155611c0b612a6f565b6001600160a01b03167f17307eab39ab6107e8899845ad3d59bd9653f200f220920489ca2b5937696c3183604051611c4391906139f7565b60405180910390a35050565b600f6020526000908152604090208054611c6890614467565b80601f0160208091040260200160405190810160405280929190818152602001828054611c9490614467565b8015611ce15780601f10611cb657610100808354040283529160200191611ce1565b820191906000526020600020905b815481529060010190602001808311611cc457829003601f168201915b505050505081565b600b60205260009081526040902080548190611d0490614467565b80601f0160208091040260200160405190810160405280929190818152602001828054611d3090614467565b8015611d7d5780601f10611d5257610100808354040283529160200191611d7d565b820191906000526020600020905b815481529060010190602001808311611d6057829003601f168201915b505050505090806001018054611d9290614467565b80601f0160208091040260200160405190810160405280929190818152602001828054611dbe90614467565b8015611e0b5780601f10611de057610100808354040283529160200191611e0b565b820191906000526020600020905b815481529060010190602001808311611dee57829003601f168201915b505050505090806002018054611e2090614467565b80601f0160208091040260200160405190810160405280929190818152602001828054611e4c90614467565b8015611e995780601f10611e6e57610100808354040283529160200191611e99565b820191906000526020600020905b815481529060010190602001808311611e7c57829003601f168201915b505050506003830154600484015460058501546006909501549394919390925060ff81169061010090046001600160a01b031688565b6000818152600e602052604081205482906001600160a01b03163314611f075760405162461bcd60e51b815260040161024690613ecd565b82611f123382612ae1565b611f2e5760405162461bcd60e51b815260040161024690613f70565b6000818152600b602052604090206006015460ff166003811115611f6257634e487b7160e01b600052602160045260246000fd5b600214611f815760405162461bcd60e51b815260040161024690614345565b6000848152600b60205260408082206006015460095491516371d4ed8d60e11b81526101009091046001600160a01b039081169392169063e3a9db1a90611fcc908590600401613902565b60206040518083038186803b158015611fe457600080fd5b505afa158015611ff8573d6000803e3d6000fd5b505050506040513d601f19601f8201168201806040525081019061201c9190613647565b6009546040516351cff8d960e01b81529192506001600160a01b0316906351cff8d99061204d908590600401613902565b600060405180830381600087803b15801561206757600080fd5b505af115801561207b573d6000803e3d6000fd5b5050506000878152600e6020908152604080832080546001600160a01b03191690558051808301808352848252338552600f909352922091516120be935061310e565b506000868152600b602090815260408083206006018054600360ff1990911617610100600160a81b03191633610100810291909117909155600d90925290912080546001600160a01b0319811683179091556001600160a01b03169061212690829089610b1b565b60405133906001600160a01b0383169089907f86ff2a738e00d7cf2613e4bd44ae641e080a2877f978be45ac950525d26d04c590600090a460405133906001600160a01b0383169089907ffc99b02f822d46feedca53aafaa97c596bf87bb34925d350b64a13275388de4a90600090a460405182906001600160a01b038316907f033e0f8c9aa8fcdd1b01ad637814ecdb49b6ddc7445f13555d21b3c2959b5d1f90600090a35095945050505050565b6121e76121e1612a6f565b83612ae1565b6122035760405162461bcd60e51b8152600401610246906142f4565b61220f84848484612e0b565b50505050565b60008082116122365760405162461bcd60e51b815260040161024690613ca9565b6122406008612c8b565b600061224c6008612c94565b90506122583382612c98565b612262818c612d77565b6040518061010001604052808b8b8080601f016020809104026020016040519081016040528093929190818152602001838380828437600092019190915250505090825250604080516020601f8c018190048102820181019092528a815291810191908b908b9081908401838280828437600092019190915250505090825250604080516020601f8a018190048102820181019092528881529181019190899089908190840183828082843760009201829052509385525050506020820187905260408201869052606082018490526080909101908152336020918201526000838152600b8252604090208251805191926123629284929091019061310e565b50602082810151805161237b926001850192019061310e565b506040820151805161239791600284019160209091019061310e565b50606082015181600301556080820151816004015560a0820151816005015560c08201518160060160006101000a81548160ff021916908360038111156123ee57634e487b7160e01b600052602160045260246000fd5b021790555060e09190910151600690910180546001600160a01b0390921661010002610100600160a81b03199092169190911790556000818152600d6020908152604080832080546001600160a01b03191633179055600a80546001810182559084527fc65a7bb8d6351c1cf70c95a316cc6a92839c986682d98bc35f958f4883f9d2a80184905551612487918d918d91899101613807565b60408051601f1981840301815282825280516020918201206000868152600c90925291902081905591506124be908c908c906137f7565b60405190819003812090339084907f762f1a2f7e87bdc2ebbbeb92df2d742317f8e1353aafc0c70b060981e72271f490600090a4509a9950505050505050505050565b600a818154811061251157600080fd5b600091825260209091200154905081565b606061252d82612a52565b6125495760405162461bcd60e51b815260040161024690613ff5565b6000828152600760205260408120805461256290614467565b80601f016020809104026020016040519081016040528092919081815260200182805461258e90614467565b80156125db5780601f106125b0576101008083540402835291602001916125db565b820191906000526020600020905b8154815290600101906020018083116125be57829003601f168201915b5050505050905060006125ec612e3e565b905080516000141561260057509050610799565b81511561263257808260405160200161261a929190613838565b60405160208183030381529060405292505050610799565b61263b84612e50565b949350505050565b600080600960009054906101000a90046001600160a01b03166001600160a01b0316638da5cb5b6040518163ffffffff1660e01b815260040160206040518083038186803b15801561269457600080fd5b505afa1580156126a8573d6000803e3d6000fd5b505050506040513d601f19601f820116820180604052508101906126cc91906132fd565b91505090565b6000838152600d602052604090205460609084906001600160a01b0316331461270d5760405162461bcd60e51b815260040161024690614046565b6000858152600b60205260409081902060049081015460095492516371d4ed8d60e11b8152889391926001600160a01b039092169163e3a9db1a9161275491339101613902565b60206040518083038186803b15801561276c57600080fd5b505afa158015612780573d6000803e3d6000fd5b505050506040513d601f19601f820116820180604052508101906127a49190613647565b146127c15760405162461bcd60e51b8152600401610246906140ef565b6000818152600b602052604090206006015460ff1660038111156127f557634e487b7160e01b600052602160045260246000fd5b6001146128145760405162461bcd60e51b815260040161024690613e85565b6000868152600e60209081526040808320546001600160a01b0316808452600f83529281902090516128469201613867565b60405160208183030381529060405280519060200120868660405160200161286f9291906137f7565b60405160208183030381529060405280519060200120146128a25760405162461bcd60e51b815260040161024690614256565b6000878152600b60205260409020600601805460ff191660021790556128c88188610873565b6000878152600e6020526040908190205490516001600160a01b03909116906128f490889088906137f7565b6040519081900381209089907f39fd051deea672a32743d0c813cc2c161b3dacddbff9e2415abc2acbf2e088fb90600090a485858080601f016020809104026020016040519081016040528093929190818152602001838380828437600092019190915250929a9950505050505050505050565b6001600160a01b0380831660009081526006602090815260408083209385168352929052205460ff165b92915050565b600e602052600090815260409020546001600160a01b031681565b6129bb612a6f565b6001600160a01b03166129cc6117b6565b6001600160a01b0316146129f25760405162461bcd60e51b815260040161024690614143565b6001600160a01b038116612a185760405162461bcd60e51b815260040161024690613b3f565b612a2181612dbb565b50565b6000908152600b602052604090206004015490565b6001600160e01b031981166301ffc9a760e01b14919050565b6000908152600360205260409020546001600160a01b0316151590565b3390565b600081815260056020526040902080546001600160a01b0319166001600160a01b0384169081179091558190612aa8826110bf565b6001600160a01b03167f8c5be1e5ebec7d5bd14f71427d1e84f3dd0314c0f7b2291e5b200ac8c7c3b92560405160405180910390a45050565b6000612aec82612a52565b612b085760405162461bcd60e51b815260040161024690613cfb565b6000612b13836110bf565b9050806001600160a01b0316846001600160a01b03161480612b4e5750836001600160a01b0316612b4384610830565b6001600160a01b0316145b8061263b575061263b8185612968565b826001600160a01b0316612b71826110bf565b6001600160a01b031614612b975760405162461bcd60e51b8152600401610246906141be565b6001600160a01b038216612bbd5760405162461bcd60e51b815260040161024690613bbc565b612bc8838383610906565b612bd3600082612a73565b6001600160a01b0383166000908152600460205260408120805460019290612bfc908490614424565b90915550506001600160a01b0382166000908152600460205260408120805460019290612c2a9084906143f8565b909155505060008181526003602052604080822080546001600160a01b0319166001600160a01b0386811691821790925591518493918716917fddf252ad1be2c89b69c2b068fc378daa952ba7f163c4a11628f55a4df523b3ef91a4505050565b80546001019055565b5490565b6001600160a01b038216612cbe5760405162461bcd60e51b815260040161024690613fc0565b612cc781612a52565b15612ce45760405162461bcd60e51b815260040161024690613b85565b612cf060008383610906565b6001600160a01b0382166000908152600460205260408120805460019290612d199084906143f8565b909155505060008181526003602052604080822080546001600160a01b0319166001600160a01b03861690811790915590518392907fddf252ad1be2c89b69c2b068fc378daa952ba7f163c4a11628f55a4df523b3ef908290a45050565b612d8082612a52565b612d9c5760405162461bcd60e51b815260040161024690613e37565b600082815260076020908152604090912082516109069284019061310e565b600080546001600160a01b038381166001600160a01b0319831681178455604051919092169283917f8be0079c531659141344cd1fd0a4f28419497f9722a3daafe3b4186f6b6457e09190a35050565b612e16848484612b5e565b612e2284848484612ed2565b61220f5760405162461bcd60e51b815260040161024690613aed565b60408051602081019091526000815290565b6060612e5b82612a52565b612e775760405162461bcd60e51b815260040161024690614207565b6000612e81612e3e565b90506000815111612ea15760405180602001604052806000815250610af9565b80612eab84612fed565b604051602001612ebc929190613838565b6040516020818303038152906040529392505050565b6000612ee6846001600160a01b0316613108565b15612fe257836001600160a01b031663150b7a02612f02612a6f565b8786866040518563ffffffff1660e01b8152600401612f249493929190613916565b602060405180830381600087803b158015612f3e57600080fd5b505af1925050508015612f6e575060408051601f3d908101601f19168201909252612f6b91810190613486565b60015b612fc8573d808015612f9c576040519150601f19603f3d011682016040523d82523d6000602084013e612fa1565b606091505b508051612fc05760405162461bcd60e51b815260040161024690613aed565b805181602001fd5b6001600160e01b031916630a85bd0160e11b14905061263b565b506001949350505050565b60608161301257506040805180820190915260018152600360fc1b6020820152610799565b8160005b811561303c5780613026816144a2565b91506130359050600a83614410565b9150613016565b60008167ffffffffffffffff81111561306557634e487b7160e01b600052604160045260246000fd5b6040519080825280601f01601f19166020018201604052801561308f576020820181803683370190505b5090505b841561263b576130a4600183614424565b91506130b1600a866144bd565b6130bc9060306143f8565b60f81b8183815181106130df57634e487b7160e01b600052603260045260246000fd5b60200101906001600160f81b031916908160001a905350613101600a86614410565b9450613093565b3b151590565b82805461311a90614467565b90600052602060002090601f01602090048101928261313c5760008555613182565b82601f1061315557805160ff1916838001178555613182565b82800160010185558215613182579182015b82811115613182578251825591602001919060010190613167565b5061318e9291506131f6565b5090565b604051806101000160405280606081526020016060815260200160608152602001600081526020016000815260200160008152602001600060038111156131e957634e487b7160e01b600052602160045260246000fd5b8152600060209091015290565b5b8082111561318e57600081556001016131f7565b600067ffffffffffffffff80841115613226576132266144fd565b604051601f8501601f19168101602001828111828210171561324a5761324a6144fd565b60405284815291508183850186101561326257600080fd5b8484602083013760006020868301015250509392505050565b60008083601f84011261328c578182fd5b50813567ffffffffffffffff8111156132a3578182fd5b6020830191508360208285010111156132bb57600080fd5b9250929050565b600082601f8301126132d2578081fd5b610af98383356020850161320b565b6000602082840312156132f2578081fd5b8135610af981614513565b60006020828403121561330e578081fd5b8151610af981614513565b6000806040838503121561332b578081fd5b823561333681614513565b9150602083013561334681614513565b809150509250929050565b600080600060608486031215613365578081fd5b833561337081614513565b9250602084013561338081614513565b929592945050506040919091013590565b600080600080608085870312156133a6578081fd5b84356133b181614513565b935060208501356133c181614513565b925060408501359150606085013567ffffffffffffffff8111156133e3578182fd5b8501601f810187136133f3578182fd5b6134028782356020840161320b565b91505092959194509250565b60008060408385031215613420578182fd5b823561342b81614513565b915060208301358015158114613346578182fd5b60008060408385031215613451578182fd5b823561345c81614513565b946020939093013593505050565b60006020828403121561347b578081fd5b8135610af981614528565b600060208284031215613497578081fd5b8151610af981614528565b60008060008060008060008060a0898b0312156134bd578384fd5b883567ffffffffffffffff808211156134d4578586fd5b6134e08c838d016132c2565b995060208b01359150808211156134f5578586fd5b6135018c838d0161327b565b909950975060408b0135915080821115613519578586fd5b6135258c838d0161327b565b909750955060608b013591508082111561353d578485fd5b5061354a8b828c0161327b565b999c989b50969995989497949560800135949350505050565b600080600080600080600080600060c08a8c031215613580578283fd5b893567ffffffffffffffff80821115613597578485fd5b6135a38d838e016132c2565b9a5060208c01359150808211156135b8578485fd5b6135c48d838e0161327b565b909a50985060408c01359150808211156135dc578485fd5b6135e88d838e0161327b565b909850965060608c0135915080821115613600578485fd5b5061360d8c828d0161327b565b9a9d999c50979a96999598959660808101359660a09091013595509350505050565b600060208284031215613640578081fd5b5035919050565b600060208284031215613658578081fd5b5051919050565b600080600060408486031215613673578081fd5b83359250602084013567ffffffffffffffff811115613690578182fd5b61369c8682870161327b565b9497909650939450505050565b600080604083850312156136bb578182fd5b82359150602083013567ffffffffffffffff8111156136d8578182fd5b6136e4858286016132c2565b9150509250929050565b60008060408385031215613700578182fd5b50508035926020909101359150565b6000815180845261372781602086016020860161443b565b601f01601f19169290920160200192915050565b6004811061375957634e487b7160e01b600052602160045260246000fd5b9052565b600061010082518185526137738286018261370f565b9150506020830151848203602086015261378d828261370f565b915050604083015184820360408601526137a7828261370f565b915050606083015160608501526080830151608085015260a083015160a085015260c08301516137da60c086018261373b565b5060e0928301516001600160a01b03169390920192909252919050565b6000828483379101908152919050565b60008385833750909101908152602001919050565b6000825161382e81846020870161443b565b9190910192915050565b6000835161384a81846020880161443b565b83519083019061385e81836020880161443b565b01949350505050565b815460009081906002810460018083168061388357607f831692505b60208084108214156138a357634e487b7160e01b87526022600452602487fd5b8180156138b757600181146138c8576138f4565b60ff198616895284890196506138f4565b6138d18a6143ec565b885b868110156138ec5781548b8201529085019083016138d3565b505084890196505b509498975050505050505050565b6001600160a01b0391909116815260200190565b6001600160a01b03858116825284166020820152604081018390526080606082018190526000906139499083018461370f565b9695505050505050565b6000602080830181845280855180835260408601915060408482028701019250838701855b828110156139a657603f1988860301845261399485835161375d565b94509285019290850190600101613978565b5092979650505050505050565b6020808252825182820181905260009190848201906040850190845b818110156139eb578351835292840192918401916001016139cf565b50909695505050505050565b901515815260200190565b60208101612992828461373b565b600060208252610af9602083018461370f565b6000610100808352613a378184018c61370f565b90508281036020840152613a4b818b61370f565b90508281036040840152613a5f818a61370f565b9150508660608301528560808301528460a0830152613a8160c083018561373b565b6001600160a01b039290921660e09190910152979650505050505050565b6020808252602e908201527f5061796d656e7420616d6f756e74206d7573742065786163746c79206d61746360408201526d68206c697374656420707269636560901b606082015260800190565b60208082526032908201527f4552433732313a207472616e7366657220746f206e6f6e20455243373231526560408201527131b2b4bb32b91034b6b83632b6b2b73a32b960711b606082015260800190565b60208082526026908201527f4f776e61626c653a206e6577206f776e657220697320746865207a65726f206160408201526564647265737360d01b606082015260800190565b6020808252601c908201527f4552433732313a20746f6b656e20616c7265616479206d696e74656400000000604082015260600190565b60208082526024908201527f4552433732313a207472616e7366657220746f20746865207a65726f206164646040820152637265737360e01b606082015260800190565b60208082526019908201527f4552433732313a20617070726f766520746f2063616c6c657200000000000000604082015260600190565b6020808252604c908201527f506c6561736520646f206e6f742073656e64207468697320636f6e747261637460408201527f2066756e6473206f722063616c6c20612066756e6374696f6e2074686174206460608201526b1bd95cdb89dd08195e1a5cdd60a21b608082015260a00190565b60208082526032908201527f596f757220486f726e2069732076616c7561626c6520616e642063616e6e6f7460408201527120626520736f6c6420666f7220667265652160701b606082015260800190565b6020808252602c908201527f4552433732313a206f70657261746f7220717565727920666f72206e6f6e657860408201526b34b9ba32b73a103a37b5b2b760a11b606082015260800190565b60208082526038908201527f4552433732313a20617070726f76652063616c6c6572206973206e6f74206f7760408201527f6e6572206e6f7220617070726f76656420666f7220616c6c0000000000000000606082015260800190565b6020808252602a908201527f4552433732313a2062616c616e636520717565727920666f7220746865207a65604082015269726f206164647265737360b01b606082015260800190565b60208082526029908201527f4552433732313a206f776e657220717565727920666f72206e6f6e657869737460408201526832b73a103a37b5b2b760b91b606082015260800190565b6020808252602e908201527f45524337323155524953746f726167653a2055524920736574206f66206e6f6e60408201526d32bc34b9ba32b73a103a37b5b2b760911b606082015260800190565b60208082526028908201527f486f726e20686173206e6f74206265656e206d61726b6564206173207061696460408201526708199bdc881e595d60c21b606082015260800190565b602080825260409082018190527f546869732066756e6374696f6e206d6179206f6e6c792062652063616c6c6564908201527f20627920612062757965722077686f2068617320616c72656164792070616964606082015260800190565b60208082526025908201527f486f726e206973206e6f742063757272656e746c79206c697374656420666f726040820152642073616c6560d81b606082015260800190565b60208082526030908201527f596f75206d75737420666972737420626520617070726f76656420627920637560408201526f393932b73a103437b9371037bbb732b960811b606082015260800190565b6020808252818101527f4552433732313a206d696e7420746f20746865207a65726f2061646472657373604082015260600190565b60208082526031908201527f45524337323155524953746f726167653a2055524920717565727920666f72206040820152703737b732bc34b9ba32b73a103a37b5b2b760791b606082015260800190565b60208082526038908201527f546869732066756e6374696f6e206d6179206f6e6c792062652063616c6c656460408201527f2062792074686520686f726e204e46542773206f776e65720000000000000000606082015260800190565b6020808252602c908201527f4552433732313a20617070726f76656420717565727920666f72206e6f6e657860408201526b34b9ba32b73a103a37b5b2b760a11b606082015260800190565b60208082526034908201527f4275796572206d7573742073656e64207061796d656e7420666f7220486f726e60408201527308139195081d1bc8195cd8dc9bddc8199a5c9cdd60621b606082015260800190565b6020808252818101527f4f776e61626c653a2063616c6c6572206973206e6f7420746865206f776e6572604082015260600190565b60208082526026908201527f486f726e204e4654206d75737420657869737420616e642063616e6e6f74206260408201526565206672656560d01b606082015260800190565b60208082526029908201527f4552433732313a207472616e73666572206f6620746f6b656e2074686174206960408201526839903737ba1037bbb760b91b606082015260800190565b6020808252602f908201527f4552433732314d657461646174613a2055524920717565727920666f72206e6f60408201526e3732bc34b9ba32b73a103a37b5b2b760891b606082015260800190565b6020808252603a908201527f4164647265737320676976656e20646f6573206e6f74206d617463682074686560408201527f206f6e65206f6e2066696c6520666f7220746865206275796572000000000000606082015260800190565b60208082526021908201527f4552433732313a20617070726f76616c20746f2063757272656e74206f776e656040820152603960f91b606082015260800190565b60208082526031908201527f4552433732313a207472616e736665722063616c6c6572206973206e6f74206f6040820152701ddb995c881b9bdc88185c1c1c9bdd9959607a1b606082015260800190565b60208082526027908201527f486f726e20686173206e6f74206265656e206d61726b656420617320736869706040820152661c1959081e595d60ca1b606082015260800190565b60208082526024908201527f596f757220486f726e20697320616c7265616479206c697374656420666f722060408201526373616c6560e01b606082015260800190565b600060208252610af9602083018461375d565b90815260200190565b60009081526020902090565b6000821982111561440b5761440b6144d1565b500190565b60008261441f5761441f6144e7565b500490565b600082821015614436576144366144d1565b500390565b60005b8381101561445657818101518382015260200161443e565b8381111561220f5750506000910152565b60028104600182168061447b57607f821691505b6020821081141561449c57634e487b7160e01b600052602260045260246000fd5b50919050565b60006000198214156144b6576144b66144d1565b5060010190565b6000826144cc576144cc6144e7565b500690565b634e487b7160e01b600052601160045260246000fd5b634e487b7160e01b600052601260045260246000fd5b634e487b7160e01b600052604160045260246000fd5b6001600160a01b0381168114612a2157600080fd5b6001600160e01b031981168114612a2157600080fdfea2646970667358221220170652a3754bc75b6bf9306ed4de9f22bee0a771a60d86caf172bd39dffed73664736f6c63430008000033608060405234801561001057600080fd5b5061002161001c610026565b61002a565b61007a565b3390565b600080546001600160a01b038381166001600160a01b0319831681178455604051919092169283917f8be0079c531659141344cd1fd0a4f28419497f9722a3daafe3b4186f6b6457e09190a35050565b610616806100896000396000f3fe6080604052600436106100555760003560e01c806351cff8d91461005a578063715018a61461007c5780638da5cb5b14610091578063e3a9db1a146100bc578063f2fde38b146100e9578063f340fa0114610109575b600080fd5b34801561006657600080fd5b5061007a610075366004610455565b61011c565b005b34801561008857600080fd5b5061007a6101d1565b34801561009d57600080fd5b506100a661021c565b6040516100b3919061047b565b60405180910390f35b3480156100c857600080fd5b506100dc6100d7366004610455565b61022b565b6040516100b3919061059e565b3480156100f557600080fd5b5061007a610104366004610455565b610246565b61007a610117366004610455565b6102b7565b610124610360565b6001600160a01b031661013561021c565b6001600160a01b0316146101645760405162461bcd60e51b815260040161015b90610569565b60405180910390fd5b6001600160a01b038116600081815260016020526040812080549190559061018c9082610364565b816001600160a01b03167f7084f5476618d8e60b11ef0d7d3f06914655adb8793e28ff7f018d4c76d505d5826040516101c5919061059e565b60405180910390a25050565b6101d9610360565b6001600160a01b03166101ea61021c565b6001600160a01b0316146102105760405162461bcd60e51b815260040161015b90610569565b61021a6000610405565b565b6000546001600160a01b031690565b6001600160a01b031660009081526001602052604090205490565b61024e610360565b6001600160a01b031661025f61021c565b6001600160a01b0316146102855760405162461bcd60e51b815260040161015b90610569565b6001600160a01b0381166102ab5760405162461bcd60e51b815260040161015b9061048f565b6102b481610405565b50565b6102bf610360565b6001600160a01b03166102d061021c565b6001600160a01b0316146102f65760405162461bcd60e51b815260040161015b90610569565b6001600160a01b0381166000908152600160205260408120805434928392916103209084906105a7565b92505081905550816001600160a01b03167f2da466a7b24304f47e87fa2e1e5a81b9831ce54fec19055ce277ca2f39ba42c4826040516101c5919061059e565b3390565b804710156103845760405162461bcd60e51b815260040161015b90610532565b6000826001600160a01b03168260405161039d90610478565b60006040518083038185875af1925050503d80600081146103da576040519150601f19603f3d011682016040523d82523d6000602084013e6103df565b606091505b50509050806104005760405162461bcd60e51b815260040161015b906104d5565b505050565b600080546001600160a01b038381166001600160a01b0319831681178455604051919092169283917f8be0079c531659141344cd1fd0a4f28419497f9722a3daafe3b4186f6b6457e09190a35050565b600060208284031215610466578081fd5b8135610471816105cb565b9392505050565b90565b6001600160a01b0391909116815260200190565b60208082526026908201527f4f776e61626c653a206e6577206f776e657220697320746865207a65726f206160408201526564647265737360d01b606082015260800190565b6020808252603a908201527f416464726573733a20756e61626c6520746f2073656e642076616c75652c207260408201527f6563697069656e74206d61792068617665207265766572746564000000000000606082015260800190565b6020808252601d908201527f416464726573733a20696e73756666696369656e742062616c616e6365000000604082015260600190565b6020808252818101527f4f776e61626c653a2063616c6c6572206973206e6f7420746865206f776e6572604082015260600190565b90815260200190565b600082198211156105c657634e487b7160e01b81526011600452602481fd5b500190565b6001600160a01b03811681146102b457600080fdfea26469706673582212201b4f49cf5b99cd6f1965f7902db7a17b9154df54bbb3556be1e31495e133f49a64736f6c63430008000033",
  "linkReferences": {},
  "deployedLinkReferences": {}
}