{
  "_format": "hh-sol-artifact-1",
  "contractName": "HornMarketplace",
  "sourceName": "contracts/HornMarketplace.sol",
  "abi": [
    {
      "inputs": [],
      "stateMutability": "nonpayable",
      "type": "constructor"
    },
    {
      "anonymous": false,
      "inputs": [
        {
          "indexed": true,
          "internalType": "address",
          "name": "owner",
          "type": "address"
        },
        {
          "indexed": true,
          "internalType": "address",
          "name": "approved",
          "type": "address"
        },
        {
          "indexed": true,
          "internalType": "uint256",
          "name": "tokenId",
          "type": "uint256"
        }
      ],
      "name": "Approval",
      "type": "event"
    },
    {
      "anonymous": false,
      "inputs": [
        {
          "indexed": true,
          "internalType": "address",
          "name": "owner",
          "type": "address"
        },
        {
          "indexed": true,
          "internalType": "address",
          "name": "operator",
          "type": "address"
        },
        {
          "indexed": false,
          "internalType": "bool",
          "name": "approved",
          "type": "bool"
        }
      ],
      "name": "ApprovalForAll",
      "type": "event"
    },
    {
      "anonymous": false,
      "inputs": [
        {
          "indexed": true,
          "internalType": "address",
          "name": "payee",
          "type": "address"
        },
        {
          "indexed": true,
          "internalType": "uint256",
          "name": "amountInWei",
          "type": "uint256"
        }
      ],
      "name": "DepositedToEscrow",
      "type": "event"
    },
    {
      "anonymous": false,
      "inputs": [
        {
          "indexed": true,
          "internalType": "uint256",
          "name": "hornId",
          "type": "uint256"
        },
        {
          "indexed": true,
          "internalType": "address",
          "name": "from",
          "type": "address"
        },
        {
          "indexed": true,
          "internalType": "address",
          "name": "to",
          "type": "address"
        }
      ],
      "name": "HornDeliveredAndNFTOwnershipTransferred",
      "type": "event"
    },
    {
      "anonymous": false,
      "inputs": [
        {
          "indexed": true,
          "internalType": "uint256",
          "name": "hornId",
          "type": "uint256"
        },
        {
          "indexed": true,
          "internalType": "address",
          "name": "seller",
          "type": "address"
        },
        {
          "indexed": true,
          "internalType": "string",
          "name": "make",
          "type": "string"
        }
      ],
      "name": "HornListedForSale",
      "type": "event"
    },
    {
      "anonymous": false,
      "inputs": [
        {
          "indexed": true,
          "internalType": "uint256",
          "name": "hornId",
          "type": "uint256"
        },
        {
          "indexed": true,
          "internalType": "string",
          "name": "shipTo",
          "type": "string"
        },
        {
          "indexed": true,
          "internalType": "address",
          "name": "buyer",
          "type": "address"
        }
      ],
      "name": "HornPurchased",
      "type": "event"
    },
    {
      "anonymous": false,
      "inputs": [
        {
          "indexed": true,
          "internalType": "uint256",
          "name": "hornId",
          "type": "uint256"
        },
        {
          "indexed": true,
          "internalType": "string",
          "name": "shipTo",
          "type": "string"
        },
        {
          "indexed": true,
          "internalType": "address",
          "name": "to",
          "type": "address"
        }
      ],
      "name": "HornShipped",
      "type": "event"
    },
    {
      "anonymous": false,
      "inputs": [
        {
          "indexed": true,
          "internalType": "uint256",
          "name": "hornId",
          "type": "uint256"
        },
        {
          "indexed": true,
          "internalType": "address",
          "name": "seller",
          "type": "address"
        },
        {
          "indexed": true,
          "internalType": "string",
          "name": "make",
          "type": "string"
        }
      ],
      "name": "NewHornNFTMinted",
      "type": "event"
    },
    {
      "anonymous": false,
      "inputs": [
        {
          "indexed": true,
          "internalType": "address",
          "name": "previousOwner",
          "type": "address"
        },
        {
          "indexed": true,
          "internalType": "address",
          "name": "newOwner",
          "type": "address"
        }
      ],
      "name": "OwnershipTransferred",
      "type": "event"
    },
    {
      "anonymous": false,
      "inputs": [
        {
          "indexed": true,
          "internalType": "uint256",
          "name": "hornId",
          "type": "uint256"
        },
        {
          "indexed": true,
          "internalType": "address",
          "name": "payer",
          "type": "address"
        },
        {
          "indexed": true,
          "internalType": "address",
          "name": "payee",
          "type": "address"
        }
      ],
      "name": "SellerPaid",
      "type": "event"
    },
    {
      "anonymous": false,
      "inputs": [
        {
          "indexed": true,
          "internalType": "address",
          "name": "from",
          "type": "address"
        },
        {
          "indexed": true,
          "internalType": "address",
          "name": "to",
          "type": "address"
        },
        {
          "indexed": true,
          "internalType": "uint256",
          "name": "tokenId",
          "type": "uint256"
        }
      ],
      "name": "Transfer",
      "type": "event"
    },
    {
      "anonymous": false,
      "inputs": [
        {
          "indexed": true,
          "internalType": "address",
          "name": "payee",
          "type": "address"
        },
        {
          "indexed": true,
          "internalType": "uint256",
          "name": "amountInWei",
          "type": "uint256"
        }
      ],
      "name": "WithdrawnFromEscrow",
      "type": "event"
    },
    {
      "stateMutability": "nonpayable",
      "type": "fallback"
    },
    {
      "inputs": [
        {
          "internalType": "address",
          "name": "to",
          "type": "address"
        },
        {
          "internalType": "uint256",
          "name": "tokenId",
          "type": "uint256"
        }
      ],
      "name": "approve",
      "outputs": [],
      "stateMutability": "nonpayable",
      "type": "function"
    },
    {
      "inputs": [
        {
          "internalType": "address",
          "name": "owner",
          "type": "address"
        }
      ],
      "name": "balanceOf",
      "outputs": [
        {
          "internalType": "uint256",
          "name": "",
          "type": "uint256"
        }
      ],
      "stateMutability": "view",
      "type": "function"
    },
    {
      "inputs": [
        {
          "internalType": "uint256",
          "name": "",
          "type": "uint256"
        }
      ],
      "name": "buyers",
      "outputs": [
        {
          "internalType": "address",
          "name": "",
          "type": "address"
        }
      ],
      "stateMutability": "view",
      "type": "function"
    },
    {
      "inputs": [
        {
          "internalType": "uint256",
          "name": "tokenId",
          "type": "uint256"
        }
      ],
      "name": "getApproved",
      "outputs": [
        {
          "internalType": "address",
          "name": "",
          "type": "address"
        }
      ],
      "stateMutability": "view",
      "type": "function"
    },
    {
      "inputs": [
        {
          "internalType": "uint256",
          "name": "_tokenId",
          "type": "uint256"
        }
      ],
      "name": "getApprovedToSpend",
      "outputs": [
        {
          "internalType": "address",
          "name": "",
          "type": "address"
        }
      ],
      "stateMutability": "view",
      "type": "function"
    },
    {
      "inputs": [
        {
          "internalType": "address",
          "name": "_owner",
          "type": "address"
        }
      ],
      "name": "getBalanceOf",
      "outputs": [
        {
          "internalType": "uint256",
          "name": "",
          "type": "uint256"
        }
      ],
      "stateMutability": "view",
      "type": "function"
    },
    {
      "inputs": [],
      "name": "getCurrentHornsForSale",
      "outputs": [
        {
          "internalType": "uint256[]",
          "name": "",
          "type": "uint256[]"
        }
      ],
      "stateMutability": "view",
      "type": "function"
    },
    {
      "inputs": [
        {
          "internalType": "uint256",
          "name": "__hornId",
          "type": "uint256"
        }
      ],
      "name": "getCurrentOwnerByMapping",
      "outputs": [
        {
          "internalType": "address payable",
          "name": "",
          "type": "address"
        }
      ],
      "stateMutability": "view",
      "type": "function"
    },
    {
      "inputs": [
        {
          "internalType": "uint256",
          "name": "__hornId",
          "type": "uint256"
        }
      ],
      "name": "getCurrentOwnerByStructAttribute",
      "outputs": [
        {
          "internalType": "address payable",
          "name": "",
          "type": "address"
        }
      ],
      "stateMutability": "view",
      "type": "function"
    },
    {
      "inputs": [],
      "name": "getCurrentlyListedHorns",
      "outputs": [
        {
          "components": [
            {
              "internalType": "string",
              "name": "make",
              "type": "string"
            },
            {
              "internalType": "string",
              "name": "model",
              "type": "string"
            },
            {
              "internalType": "string",
              "name": "style",
              "type": "string"
            },
            {
              "internalType": "uint256",
              "name": "serialNumber",
              "type": "uint256"
            },
            {
              "internalType": "uint256",
              "name": "listPrice",
              "type": "uint256"
            },
            {
              "internalType": "uint256",
              "name": "tokenId",
              "type": "uint256"
            },
            {
              "internalType": "enum HornMarketplace.HornStatus",
              "name": "status",
              "type": "uint8"
            },
            {
              "internalType": "address payable",
              "name": "currentOwner",
              "type": "address"
            }
          ],
          "internalType": "struct HornMarketplace.Horn[]",
          "name": "",
          "type": "tuple[]"
        }
      ],
      "stateMutability": "view",
      "type": "function"
    },
    {
      "inputs": [],
      "name": "getCurrentlyOwnedHorns",
      "outputs": [
        {
          "components": [
            {
              "internalType": "string",
              "name": "make",
              "type": "string"
            },
            {
              "internalType": "string",
              "name": "model",
              "type": "string"
            },
            {
              "internalType": "string",
              "name": "style",
              "type": "string"
            },
            {
              "internalType": "uint256",
              "name": "serialNumber",
              "type": "uint256"
            },
            {
              "internalType": "uint256",
              "name": "listPrice",
              "type": "uint256"
            },
            {
              "internalType": "uint256",
              "name": "tokenId",
              "type": "uint256"
            },
            {
              "internalType": "enum HornMarketplace.HornStatus",
              "name": "status",
              "type": "uint8"
            },
            {
              "internalType": "address payable",
              "name": "currentOwner",
              "type": "address"
            }
          ],
          "internalType": "struct HornMarketplace.Horn[]",
          "name": "",
          "type": "tuple[]"
        }
      ],
      "stateMutability": "view",
      "type": "function"
    },
    {
      "inputs": [
        {
          "internalType": "address",
          "name": "payee",
          "type": "address"
        }
      ],
      "name": "getEscrowDepositValue",
      "outputs": [
        {
          "internalType": "uint256",
          "name": "",
          "type": "uint256"
        }
      ],
      "stateMutability": "view",
      "type": "function"
    },
    {
      "inputs": [],
      "name": "getEscrowOwner",
      "outputs": [
        {
          "internalType": "address",
          "name": "",
          "type": "address"
        }
      ],
      "stateMutability": "view",
      "type": "function"
    },
    {
      "inputs": [
        {
          "internalType": "uint256",
          "name": "_index",
          "type": "uint256"
        }
      ],
      "name": "getHornById",
      "outputs": [
        {
          "components": [
            {
              "internalType": "string",
              "name": "make",
              "type": "string"
            },
            {
              "internalType": "string",
              "name": "model",
              "type": "string"
            },
            {
              "internalType": "string",
              "name": "style",
              "type": "string"
            },
            {
              "internalType": "uint256",
              "name": "serialNumber",
              "type": "uint256"
            },
            {
              "internalType": "uint256",
              "name": "listPrice",
              "type": "uint256"
            },
            {
              "internalType": "uint256",
              "name": "tokenId",
              "type": "uint256"
            },
            {
              "internalType": "enum HornMarketplace.HornStatus",
              "name": "status",
              "type": "uint8"
            },
            {
              "internalType": "address payable",
              "name": "currentOwner",
              "type": "address"
            }
          ],
          "internalType": "struct HornMarketplace.Horn",
          "name": "",
          "type": "tuple"
        }
      ],
      "stateMutability": "view",
      "type": "function"
    },
    {
      "inputs": [
        {
          "internalType": "uint256",
          "name": "__hornId",
          "type": "uint256"
        }
      ],
      "name": "getListPriceByHornId",
      "outputs": [
        {
          "internalType": "uint256",
          "name": "",
          "type": "uint256"
        }
      ],
      "stateMutability": "view",
      "type": "function"
    },
    {
      "inputs": [],
      "name": "getPurchasedHorns",
      "outputs": [
        {
          "components": [
            {
              "internalType": "string",
              "name": "make",
              "type": "string"
            },
            {
              "internalType": "string",
              "name": "model",
              "type": "string"
            },
            {
              "internalType": "string",
              "name": "style",
              "type": "string"
            },
            {
              "internalType": "uint256",
              "name": "serialNumber",
              "type": "uint256"
            },
            {
              "internalType": "uint256",
              "name": "listPrice",
              "type": "uint256"
            },
            {
              "internalType": "uint256",
              "name": "tokenId",
              "type": "uint256"
            },
            {
              "internalType": "enum HornMarketplace.HornStatus",
              "name": "status",
              "type": "uint8"
            },
            {
              "internalType": "address payable",
              "name": "currentOwner",
              "type": "address"
            }
          ],
          "internalType": "struct HornMarketplace.Horn[]",
          "name": "",
          "type": "tuple[]"
        }
      ],
      "stateMutability": "view",
      "type": "function"
    },
    {
      "inputs": [
        {
          "internalType": "uint256",
          "name": "__hornId",
          "type": "uint256"
        }
      ],
      "name": "getShippingAddress",
      "outputs": [
        {
          "internalType": "string",
          "name": "",
          "type": "string"
        }
      ],
      "stateMutability": "view",
      "type": "function"
    },
    {
      "inputs": [
        {
          "internalType": "uint256",
          "name": "__hornId",
          "type": "uint256"
        }
      ],
      "name": "getStatusOfHornByHornId",
      "outputs": [
        {
          "internalType": "enum HornMarketplace.HornStatus",
          "name": "",
          "type": "uint8"
        }
      ],
      "stateMutability": "view",
      "type": "function"
    },
    {
      "inputs": [
        {
          "internalType": "uint256",
          "name": "",
          "type": "uint256"
        }
      ],
      "name": "horns",
      "outputs": [
        {
          "internalType": "string",
          "name": "make",
          "type": "string"
        },
        {
          "internalType": "string",
          "name": "model",
          "type": "string"
        },
        {
          "internalType": "string",
          "name": "style",
          "type": "string"
        },
        {
          "internalType": "uint256",
          "name": "serialNumber",
          "type": "uint256"
        },
        {
          "internalType": "uint256",
          "name": "listPrice",
          "type": "uint256"
        },
        {
          "internalType": "uint256",
          "name": "tokenId",
          "type": "uint256"
        },
        {
          "internalType": "enum HornMarketplace.HornStatus",
          "name": "status",
          "type": "uint8"
        },
        {
          "internalType": "address payable",
          "name": "currentOwner",
          "type": "address"
        }
      ],
      "stateMutability": "view",
      "type": "function"
    },
    {
      "inputs": [
        {
          "internalType": "uint256",
          "name": "",
          "type": "uint256"
        }
      ],
      "name": "hornsForSale",
      "outputs": [
        {
          "internalType": "uint256",
          "name": "",
          "type": "uint256"
        }
      ],
      "stateMutability": "view",
      "type": "function"
    },
    {
      "inputs": [
        {
          "internalType": "address",
          "name": "owner",
          "type": "address"
        },
        {
          "internalType": "address",
          "name": "operator",
          "type": "address"
        }
      ],
      "name": "isApprovedForAll",
      "outputs": [
        {
          "internalType": "bool",
          "name": "",
          "type": "bool"
        }
      ],
      "stateMutability": "view",
      "type": "function"
    },
    {
      "inputs": [
        {
          "internalType": "uint256",
          "name": "__hornId",
          "type": "uint256"
        },
        {
          "internalType": "uint256",
          "name": "_desiredPrice",
          "type": "uint256"
        }
      ],
      "name": "listExistingHornNFT",
      "outputs": [
        {
          "internalType": "uint256",
          "name": "",
          "type": "uint256"
        }
      ],
      "stateMutability": "nonpayable",
      "type": "function"
    },
    {
      "inputs": [
        {
          "internalType": "uint256",
          "name": "__hornId",
          "type": "uint256"
        }
      ],
      "name": "markHornDeliveredAndOwnershipTransferred",
      "outputs": [
        {
          "internalType": "uint256",
          "name": "",
          "type": "uint256"
        }
      ],
      "stateMutability": "nonpayable",
      "type": "function"
    },
    {
      "inputs": [
        {
          "internalType": "uint256",
          "name": "__hornId",
          "type": "uint256"
        },
        {
          "internalType": "string",
          "name": "shippedTo",
          "type": "string"
        }
      ],
      "name": "markHornShipped",
      "outputs": [
        {
          "internalType": "string",
          "name": "",
          "type": "string"
        }
      ],
      "stateMutability": "nonpayable",
      "type": "function"
    },
    {
      "inputs": [
        {
          "internalType": "string",
          "name": "tokenUri",
          "type": "string"
        },
        {
          "internalType": "string",
          "name": "_make",
          "type": "string"
        },
        {
          "internalType": "string",
          "name": "_model",
          "type": "string"
        },
        {
          "internalType": "string",
          "name": "_style",
          "type": "string"
        },
        {
          "internalType": "uint256",
          "name": "_serialNumber",
          "type": "uint256"
        }
      ],
      "name": "mintButDontListNewHornNFT",
      "outputs": [
        {
          "internalType": "uint256",
          "name": "",
          "type": "uint256"
        }
      ],
      "stateMutability": "nonpayable",
      "type": "function"
    },
    {
      "inputs": [
        {
          "internalType": "string",
          "name": "tokenUri",
          "type": "string"
        },
        {
          "internalType": "string",
          "name": "_make",
          "type": "string"
        },
        {
          "internalType": "string",
          "name": "_model",
          "type": "string"
        },
        {
          "internalType": "string",
          "name": "_style",
          "type": "string"
        },
        {
          "internalType": "uint256",
          "name": "_serialNumber",
          "type": "uint256"
        },
        {
          "internalType": "uint256",
          "name": "_desiredPrice",
          "type": "uint256"
        }
      ],
      "name": "mintThenListNewHornNFT",
      "outputs": [
        {
          "internalType": "uint256",
          "name": "",
          "type": "uint256"
        }
      ],
      "stateMutability": "nonpayable",
      "type": "function"
    },
    {
      "inputs": [],
      "name": "name",
      "outputs": [
        {
          "internalType": "string",
          "name": "",
          "type": "string"
        }
      ],
      "stateMutability": "view",
      "type": "function"
    },
    {
      "inputs": [],
      "name": "owner",
      "outputs": [
        {
          "internalType": "address",
          "name": "",
          "type": "address"
        }
      ],
      "stateMutability": "view",
      "type": "function"
    },
    {
      "inputs": [
        {
          "internalType": "uint256",
          "name": "tokenId",
          "type": "uint256"
        }
      ],
      "name": "ownerOf",
      "outputs": [
        {
          "internalType": "address",
          "name": "",
          "type": "address"
        }
      ],
      "stateMutability": "view",
      "type": "function"
    },
    {
      "inputs": [
        {
          "internalType": "uint256",
          "name": "__hornId",
          "type": "uint256"
        },
        {
          "internalType": "string",
          "name": "_shipTo",
          "type": "string"
        }
      ],
      "name": "purchaseHornByHornId",
      "outputs": [],
      "stateMutability": "payable",
      "type": "function"
    },
    {
      "inputs": [],
      "name": "renounceOwnership",
      "outputs": [],
      "stateMutability": "nonpayable",
      "type": "function"
    },
    {
      "inputs": [
        {
          "internalType": "address",
          "name": "from",
          "type": "address"
        },
        {
          "internalType": "address",
          "name": "to",
          "type": "address"
        },
        {
          "internalType": "uint256",
          "name": "tokenId",
          "type": "uint256"
        }
      ],
      "name": "safeTransferFrom",
      "outputs": [],
      "stateMutability": "nonpayable",
      "type": "function"
    },
    {
      "inputs": [
        {
          "internalType": "address",
          "name": "from",
          "type": "address"
        },
        {
          "internalType": "address",
          "name": "to",
          "type": "address"
        },
        {
          "internalType": "uint256",
          "name": "tokenId",
          "type": "uint256"
        },
        {
          "internalType": "bytes",
          "name": "_data",
          "type": "bytes"
        }
      ],
      "name": "safeTransferFrom",
      "outputs": [],
      "stateMutability": "nonpayable",
      "type": "function"
    },
    {
      "inputs": [
        {
          "internalType": "address",
          "name": "operator",
          "type": "address"
        },
        {
          "internalType": "bool",
          "name": "approved",
          "type": "bool"
        }
      ],
      "name": "setApprovalForAll",
      "outputs": [],
      "stateMutability": "nonpayable",
      "type": "function"
    },
    {
      "inputs": [
        {
          "internalType": "bytes4",
          "name": "interfaceId",
          "type": "bytes4"
        }
      ],
      "name": "supportsInterface",
      "outputs": [
        {
          "internalType": "bool",
          "name": "",
          "type": "bool"
        }
      ],
      "stateMutability": "view",
      "type": "function"
    },
    {
      "inputs": [],
      "name": "symbol",
      "outputs": [
        {
          "internalType": "string",
          "name": "",
          "type": "string"
        }
      ],
      "stateMutability": "view",
      "type": "function"
    },
    {
      "inputs": [
        {
          "internalType": "uint256",
          "name": "tokenId",
          "type": "uint256"
        }
      ],
      "name": "tokenURI",
      "outputs": [
        {
          "internalType": "string",
          "name": "",
          "type": "string"
        }
      ],
      "stateMutability": "view",
      "type": "function"
    },
    {
      "inputs": [
        {
          "internalType": "address",
          "name": "from",
          "type": "address"
        },
        {
          "internalType": "address",
          "name": "to",
          "type": "address"
        },
        {
          "internalType": "uint256",
          "name": "tokenId",
          "type": "uint256"
        }
      ],
      "name": "transferFrom",
      "outputs": [],
      "stateMutability": "nonpayable",
      "type": "function"
    },
    {
      "inputs": [
        {
          "internalType": "address",
          "name": "newOwner",
          "type": "address"
        }
      ],
      "name": "transferOwnership",
      "outputs": [],
      "stateMutability": "nonpayable",
      "type": "function"
    },
    {
      "stateMutability": "payable",
      "type": "receive"
    }
  ],
  "bytecode": "0x60806040523480156200001157600080fd5b50604051806040016040528060048152602001632437b93760e11b815250604051806040016040528060048152602001632427a92760e11b8152506200006662000060620000e660201b60201c565b620000ea565b81516200007b9060019060208501906200013a565b508051620000919060029060208401906200013a565b505050604051620000a290620001c9565b604051809103906000f080158015620000bf573d6000803e3d6000fd5b50600980546001600160a01b0319166001600160a01b03929092169190911790556200022b565b3390565b600080546001600160a01b038381166001600160a01b0319831681178455604051919092169283917f8be0079c531659141344cd1fd0a4f28419497f9722a3daafe3b4186f6b6457e09190a35050565b8280546200014890620001ee565b90600052602060002090601f0160209004810192826200016c5760008555620001b7565b82601f106200018757805160ff1916838001178555620001b7565b82800160010185558215620001b7579182015b82811115620001b75782518255916020019190600101906200019a565b50620001c5929150620001d7565b5090565b6107138062004be983390190565b5b80821115620001c55760008155600101620001d8565b6002810460018216806200020357607f821691505b602082108114156200022557634e487b7160e01b600052602260045260246000fd5b50919050565b6149ae806200023b6000396000f3fe6080604052600436106102345760003560e01c80638da5cb5b1161012e578063b88d4fde116100ab578063cf44981a1161006f578063cf44981a146106d6578063e985e9c5146106f6578063f2aa821814610716578063f2fde38b14610736578063fd92de01146107565761025a565b8063b88d4fde14610641578063ba80a2c414610661578063c0227bbb14610681578063c87b56dd146106a1578063cce44056146106c15761025a565b8063a22cb465116100f2578063a22cb46514610598578063b0e696e3146105b8578063b5178ed5146105d8578063b6bb26fd1461060c578063b7d002f4146106215761025a565b80638da5cb5b1461051757806395d89b411461052c57806398960435146105415780639b96eece14610563578063a081feb1146105835761025a565b80633a770745116101bc5780636352211e116101805780636352211e1461047357806370a0823114610493578063715018a6146104b357806376cb00ee146104c857806378b5270c146104f55761025a565b80633a770745146103d35780633dda1fca146103e657806342842e0e1461040657806349870e531461042657806362547501146104535761025a565b806311723dc21161020357806311723dc214610326578063125bba371461034657806319df66f4146103735780631c5e1d5e1461039357806323b872dd146103b35761025a565b806301ffc9a71461027f57806306fdde03146102b5578063081812fc146102d7578063095ea7b3146103045761025a565b3661025a5760405162461bcd60e51b815260040161025190614071565b60405180910390fd5b34801561026657600080fd5b5060405162461bcd60e51b815260040161025190614071565b34801561028b57600080fd5b5061029f61029a36600461388b565b610776565b6040516102ac9190613e31565b60405180910390f35b3480156102c157600080fd5b506102ca6107be565b6040516102ac9190613e4a565b3480156102e357600080fd5b506102f76102f2366004613a50565b610850565b6040516102ac9190613d23565b34801561031057600080fd5b5061032461031f366004613860565b610893565b005b34801561033257600080fd5b506102f7610341366004613a50565b61092b565b34801561035257600080fd5b50610366610361366004613b0f565b61094e565b6040516102ac919061481d565b34801561037f57600080fd5b5061036661038e366004613702565b610a94565b34801561039f57600080fd5b506102f76103ae366004613a50565b610b20565b3480156103bf57600080fd5b506103246103ce366004613772565b610b3b565b6103246103e1366004613aca565b610b73565b3480156103f257600080fd5b506102f7610401366004613a50565b610e09565b34801561041257600080fd5b50610324610421366004613772565b610e15565b34801561043257600080fd5b50610446610441366004613a50565b610e30565b6040516102ac9190613e3c565b34801561045f57600080fd5b5061036661046e3660046138c3565b610e48565b34801561047f57600080fd5b506102f761048e366004613a50565b6110df565b34801561049f57600080fd5b506103666104ae366004613702565b611114565b3480156104bf57600080fd5b50610324611158565b3480156104d457600080fd5b506104e86104e3366004613a50565b6111a3565b6040516102ac919061480a565b34801561050157600080fd5b5061050a611406565b6040516102ac9190613d8d565b34801561052357600080fd5b506102f76117d6565b34801561053857600080fd5b506102ca6117e5565b34801561054d57600080fd5b506105566117f4565b6040516102ac9190613ded565b34801561056f57600080fd5b5061036661057e366004613702565b61184b565b34801561058f57600080fd5b5061050a611857565b3480156105a457600080fd5b506103246105b336600461382f565b611ba1565b3480156105c457600080fd5b506102ca6105d3366004613a50565b611c6f565b3480156105e457600080fd5b506105f86105f3366004613a50565b611d2b565b6040516102ac989796959493929190613e5d565b34801561061857600080fd5b5061050a611f11565b34801561062d57600080fd5b5061036661063c366004613a50565b6122d8565b34801561064d57600080fd5b5061032461065c3660046137b2565b6125f6565b34801561066d57600080fd5b5061036661067c366004613984565b612635565b34801561068d57600080fd5b5061036661069c366004613a50565b612921565b3480156106ad57600080fd5b506102ca6106bc366004613a50565b612942565b3480156106cd57600080fd5b506102f7612a63565b3480156106e257600080fd5b506102ca6106f1366004613a80565b612af2565b34801561070257600080fd5b5061029f61071136600461373a565b612d89565b34801561072257600080fd5b506102f7610731366004613a50565b612db9565b34801561074257600080fd5b50610324610751366004613702565b612dd4565b34801561076257600080fd5b50610366610771366004613a50565b612e45565b60006001600160e01b031982166380ac58cd60e01b14806107a757506001600160e01b03198216635b5e139f60e01b145b806107b657506107b682612e5a565b90505b919050565b6060600180546107cd906148a1565b80601f01602080910402602001604051908101604052809291908181526020018280546107f9906148a1565b80156108465780601f1061081b57610100808354040283529160200191610846565b820191906000526020600020905b81548152906001019060200180831161082957829003601f168201915b5050505050905090565b600061085b82612e73565b6108775760405162461bcd60e51b8152600401610251906144dd565b506000908152600560205260409020546001600160a01b031690565b600061089e826110df565b9050806001600160a01b0316836001600160a01b031614156108d25760405162461bcd60e51b8152600401610251906146ed565b806001600160a01b03166108e4612e90565b6001600160a01b03161480610900575061090081610711612e90565b61091c5760405162461bcd60e51b815260040161025190614181565b6109268383612e94565b505050565b6000908152600b602052604090206006015461010090046001600160a01b031690565b6000828152600d602052604081205483906001600160a01b031633146109865760405162461bcd60e51b815260040161025190614480565b600083116109a65760405162461bcd60e51b8152600401610251906140e3565b6000848152600b602052604081206006015460ff1660038111156109da57634e487b7160e01b600052602160045260246000fd5b14156109f85760405162461bcd60e51b8152600401610251906147c6565b600a8054600181019091557fc65a7bb8d6351c1cf70c95a316cc6a92839c986682d98bc35f958f4883f9d2a8018490556000848152600b6020526040908190206004810185905560068101805460ff1916905590518591610a5891613c88565b60405190819003812090339083907f762f1a2f7e87bdc2ebbbeb92df2d742317f8e1353aafc0c70b060981e72271f490600090a4949350505050565b6009546040516371d4ed8d60e11b815260009182916001600160a01b039091169063e3a9db1a90610ac9908690600401613d23565b60206040518083038186803b158015610ae157600080fd5b505afa158015610af5573d6000803e3d6000fd5b505050506040513d601f19601f82011682018060405250810190610b199190613a68565b9392505050565b6000908152600d60205260409020546001600160a01b031690565b610b4c610b46612e90565b82612f02565b610b685760405162461bcd60e51b81526004016102519061472e565b610926838383612f7f565b6000828152600b60205260409020600401548290610ba35760405162461bcd60e51b8152600401610251906145b2565b6000818152600b602052604090206006015460ff166003811115610bd757634e487b7160e01b600052602160045260246000fd5b15610bf45760405162461bcd60e51b815260040161025190614365565b6000838152600b602052604090206004015483903414610c265760405162461bcd60e51b815260040161025190613ed9565b6009546000858152600d60205260409081902054905163f340fa0160e01b81526001600160a01b039283169263f340fa01923492610c6a9290911690600401613d23565b6000604051808303818588803b158015610c8357600080fd5b505af1158015610c97573d6000803e3d6000fd5b5050336000908152600f602090815260409091208751889550610cc194509092509084019061352f565b506000858152600e6020908152604080832080546001600160a01b03191633179055600b9091528120600601805460ff191660011790555b600a54811015610d755785600a8281548110610d2557634e487b7160e01b600052603260045260246000fd5b90600052602060002001541415610d6357600a8181548110610d5757634e487b7160e01b600052603260045260246000fd5b60009182526020822001555b80610d6d816148dc565b915050610cf9565b506040513390610d86908690613c3d565b6040519081900381209087907fdbca9a11cad69a5ab275fd9838feb30068a34f31d0f876d995c14a8dd906f70990600090a46000858152600b602052604080822060060154905134926101009092046001600160a01b0316917fe6138e0eb7be5ea87d2296f3ad7469a8364406bface7d4e5de0a21dce1841cdd91a35050505050565b600080610b1983610850565b610926838383604051806020016040528060008152506125f6565b6000908152600b602052604090206006015460ff1690565b6000610e5460086130ac565b6000610e6060086130b5565b9050610e6c33826130b9565b610e76818b613198565b6040518061010001604052808a8a8080601f016020809104026020016040519081016040528093929190818152602001838380828437600092019190915250505090825250604080516020601f8b0181900481028201810190925289815291810191908a908a9081908401838280828437600092019190915250505090825250604080516020601f89018190048102820181019092528781529181019190889088908190840183828082843760009201829052509385525050506020820186905260408201526060810183905260800160038152336020918201526000838152600b825260409020825180519192610f739284929091019061352f565b506020828101518051610f8c926001850192019061352f565b5060408201518051610fa891600284019160209091019061352f565b50606082015181600301556080820151816004015560a0820151816005015560c08201518160060160006101000a81548160ff02191690836003811115610fff57634e487b7160e01b600052602160045260246000fd5b021790555060e09190910151600690910180546001600160a01b0390921661010002610100600160a81b03199092169190911790556000818152600d6020908152604080832080546001600160a01b0319163317905551611066918c918c91889101613c28565b60408051601f1981840301815282825280516020918201206000868152600c909252919020819055915061109d908b908b90613c18565b60405190819003812090339084907f4d80549dfe39c90078d620fcd854e5cbf03ace471593a7df725d1191056f30a190600090a4509998505050505050505050565b6000818152600360205260408120546001600160a01b0316806107b65760405162461bcd60e51b815260040161025190614228565b60006001600160a01b03821661113c5760405162461bcd60e51b8152600401610251906141de565b506001600160a01b031660009081526004602052604090205490565b611160612e90565b6001600160a01b03166111716117d6565b6001600160a01b0316146111975760405162461bcd60e51b81526004016102519061457d565b6111a160006131dc565b565b6111ab6135b3565b6000828152600b602052604090819020815161010081019092528054829082906111d4906148a1565b80601f0160208091040260200160405190810160405280929190818152602001828054611200906148a1565b801561124d5780601f106112225761010080835404028352916020019161124d565b820191906000526020600020905b81548152906001019060200180831161123057829003601f168201915b50505050508152602001600182018054611266906148a1565b80601f0160208091040260200160405190810160405280929190818152602001828054611292906148a1565b80156112df5780601f106112b4576101008083540402835291602001916112df565b820191906000526020600020905b8154815290600101906020018083116112c257829003601f168201915b505050505081526020016002820180546112f8906148a1565b80601f0160208091040260200160405190810160405280929190818152602001828054611324906148a1565b80156113715780601f1061134657610100808354040283529160200191611371565b820191906000526020600020905b81548152906001019060200180831161135457829003601f168201915b505050918352505060038281015460208301526004830154604083015260058301546060830152600683015460809092019160ff16908111156113c457634e487b7160e01b600052602160045260246000fd5b60038111156113e357634e487b7160e01b600052602160045260246000fd5b81526006919091015461010090046001600160a01b031660209091015292915050565b6060600061141460086130b5565b90506000805b828110156114725733600d6000611432846001614832565b81526020810191909152604001600020546001600160a01b03161415611460578161145c816148dc565b9250505b8061146a816148dc565b91505061141a565b506000808267ffffffffffffffff81111561149d57634e487b7160e01b600052604160045260246000fd5b6040519080825280602002602001820160405280156114d657816020015b6114c36135b3565b8152602001906001900390816114bb5790505b50905060005b848110156117cd5733600d60006114f4846001614832565b81526020810191909152604001600020546001600160a01b031614156117bb576000611521826001614832565b9050600b600082815260200190815260200160002060405180610100016040529081600082018054611552906148a1565b80601f016020809104026020016040519081016040528092919081815260200182805461157e906148a1565b80156115cb5780601f106115a0576101008083540402835291602001916115cb565b820191906000526020600020905b8154815290600101906020018083116115ae57829003601f168201915b505050505081526020016001820180546115e4906148a1565b80601f0160208091040260200160405190810160405280929190818152602001828054611610906148a1565b801561165d5780601f106116325761010080835404028352916020019161165d565b820191906000526020600020905b81548152906001019060200180831161164057829003601f168201915b50505050508152602001600282018054611676906148a1565b80601f01602080910402602001604051908101604052809291908181526020018280546116a2906148a1565b80156116ef5780601f106116c4576101008083540402835291602001916116ef565b820191906000526020600020905b8154815290600101906020018083116116d257829003601f168201915b505050918352505060038281015460208301526004830154604083015260058301546060830152600683015460809092019160ff169081111561174257634e487b7160e01b600052602160045260246000fd5b600381111561176157634e487b7160e01b600052602160045260246000fd5b81526006919091015461010090046001600160a01b031660209091015283518490869081106117a057634e487b7160e01b600052603260045260246000fd5b602002602001018190525083806117b6906148dc565b945050505b806117c5816148dc565b9150506114dc565b50935050505090565b6000546001600160a01b031690565b6060600280546107cd906148a1565b6060600a80548060200260200160405190810160405280929190818152602001828054801561084657602002820191906000526020600020905b81548152602001906001019080831161182e575050505050905090565b600080610b1983611114565b600a5460609060009067ffffffffffffffff81111561188657634e487b7160e01b600052604160045260246000fd5b6040519080825280602002602001820160405280156118bf57816020015b6118ac6135b3565b8152602001906001900390816118a45790505b50905060005b600a54811015611b9b576000600a82815481106118f257634e487b7160e01b600052603260045260246000fd5b90600052602060002001549050600b60008281526020019081526020016000206040518061010001604052908160008201805461192e906148a1565b80601f016020809104026020016040519081016040528092919081815260200182805461195a906148a1565b80156119a75780601f1061197c576101008083540402835291602001916119a7565b820191906000526020600020905b81548152906001019060200180831161198a57829003601f168201915b505050505081526020016001820180546119c0906148a1565b80601f01602080910402602001604051908101604052809291908181526020018280546119ec906148a1565b8015611a395780601f10611a0e57610100808354040283529160200191611a39565b820191906000526020600020905b815481529060010190602001808311611a1c57829003601f168201915b50505050508152602001600282018054611a52906148a1565b80601f0160208091040260200160405190810160405280929190818152602001828054611a7e906148a1565b8015611acb5780601f10611aa057610100808354040283529160200191611acb565b820191906000526020600020905b815481529060010190602001808311611aae57829003601f168201915b505050918352505060038281015460208301526004830154604083015260058301546060830152600683015460809092019160ff1690811115611b1e57634e487b7160e01b600052602160045260246000fd5b6003811115611b3d57634e487b7160e01b600052602160045260246000fd5b81526006919091015461010090046001600160a01b03166020909101528351849084908110611b7c57634e487b7160e01b600052603260045260246000fd5b6020026020010181905250508080611b93906148dc565b9150506118c5565b50905090565b611ba9612e90565b6001600160a01b0316826001600160a01b03161415611bda5760405162461bcd60e51b81526004016102519061403a565b8060066000611be7612e90565b6001600160a01b03908116825260208083019390935260409182016000908120918716808252919093529120805460ff191692151592909217909155611c2b612e90565b6001600160a01b03167f17307eab39ab6107e8899845ad3d59bd9653f200f220920489ca2b5937696c3183604051611c639190613e31565b60405180910390a35050565b6000818152600e60209081526040808320546001600160a01b0316808452600f90925290912080546060929190611ca5906148a1565b80601f0160208091040260200160405190810160405280929190818152602001828054611cd1906148a1565b8015611d1e5780601f10611cf357610100808354040283529160200191611d1e565b820191906000526020600020905b815481529060010190602001808311611d0157829003601f168201915b5050505050915050919050565b600b60205260009081526040902080548190611d46906148a1565b80601f0160208091040260200160405190810160405280929190818152602001828054611d72906148a1565b8015611dbf5780601f10611d9457610100808354040283529160200191611dbf565b820191906000526020600020905b815481529060010190602001808311611da257829003601f168201915b505050505090806001018054611dd4906148a1565b80601f0160208091040260200160405190810160405280929190818152602001828054611e00906148a1565b8015611e4d5780601f10611e2257610100808354040283529160200191611e4d565b820191906000526020600020905b815481529060010190602001808311611e3057829003601f168201915b505050505090806002018054611e62906148a1565b80601f0160208091040260200160405190810160405280929190818152602001828054611e8e906148a1565b8015611edb5780601f10611eb057610100808354040283529160200191611edb565b820191906000526020600020905b815481529060010190602001808311611ebe57829003601f168201915b505050506003830154600484015460058501546006909501549394919390925060ff81169061010090046001600160a01b031688565b60606000611f1f60086130b5565b90506000805b82811015611f7d5733600e6000611f3d846001614832565b81526020810191909152604001600020546001600160a01b03161415611f6b5781611f67816148dc565b9250505b80611f75816148dc565b915050611f25565b506000808267ffffffffffffffff811115611fa857634e487b7160e01b600052604160045260246000fd5b604051908082528060200260200182016040528015611fe157816020015b611fce6135b3565b815260200190600190039081611fc65790505b50905060005b848110156117cd5733600e6000611fff846001614832565b81526020810191909152604001600020546001600160a01b031614156122c657600061202c826001614832565b9050600b60008281526020019081526020016000206040518061010001604052908160008201805461205d906148a1565b80601f0160208091040260200160405190810160405280929190818152602001828054612089906148a1565b80156120d65780601f106120ab576101008083540402835291602001916120d6565b820191906000526020600020905b8154815290600101906020018083116120b957829003601f168201915b505050505081526020016001820180546120ef906148a1565b80601f016020809104026020016040519081016040528092919081815260200182805461211b906148a1565b80156121685780601f1061213d57610100808354040283529160200191612168565b820191906000526020600020905b81548152906001019060200180831161214b57829003601f168201915b50505050508152602001600282018054612181906148a1565b80601f01602080910402602001604051908101604052809291908181526020018280546121ad906148a1565b80156121fa5780601f106121cf576101008083540402835291602001916121fa565b820191906000526020600020905b8154815290600101906020018083116121dd57829003601f168201915b505050918352505060038281015460208301526004830154604083015260058301546060830152600683015460809092019160ff169081111561224d57634e487b7160e01b600052602160045260246000fd5b600381111561226c57634e487b7160e01b600052602160045260246000fd5b81526006919091015461010090046001600160a01b031660209091015283518490869081106122ab57634e487b7160e01b600052603260045260246000fd5b602002602001018190525083806122c1906148dc565b945050505b806122d0816148dc565b915050611fe7565b6000818152600e602052604081205482906001600160a01b031633146123105760405162461bcd60e51b815260040161025190614307565b8261231b3382612f02565b6123375760405162461bcd60e51b8152600401610251906143aa565b6000818152600b602052604090206006015460ff16600381111561236b57634e487b7160e01b600052602160045260246000fd5b60021461238a5760405162461bcd60e51b81526004016102519061477f565b6000848152600b60205260408082206006015460095491516371d4ed8d60e11b81526101009091046001600160a01b039081169392169063e3a9db1a906123d5908590600401613d23565b60206040518083038186803b1580156123ed57600080fd5b505afa158015612401573d6000803e3d6000fd5b505050506040513d601f19601f820116820180604052508101906124259190613a68565b6009546000888152600b602052604090819020600490810154915163f3fef3a360e01b81529394506001600160a01b039092169263f3fef3a39261246d928792909101613d37565b600060405180830381600087803b15801561248757600080fd5b505af115801561249b573d6000803e3d6000fd5b5050506000878152600e6020908152604080832080546001600160a01b03191690558051808301808352848252338552600f909352922091516124de935061352f565b506000868152600b602090815260408083206006018054600360ff1990911617610100600160a81b03191633610100810291909117909155600d90925290912080546001600160a01b0319811683179091556001600160a01b03169061254690829089610b3b565b60405133906001600160a01b0383169089907f86ff2a738e00d7cf2613e4bd44ae641e080a2877f978be45ac950525d26d04c590600090a460405133906001600160a01b0383169089907ffc99b02f822d46feedca53aafaa97c596bf87bb34925d350b64a13275388de4a90600090a460405182906001600160a01b038316907f033e0f8c9aa8fcdd1b01ad637814ecdb49b6ddc7445f13555d21b3c2959b5d1f90600090a35095945050505050565b612607612601612e90565b83612f02565b6126235760405162461bcd60e51b81526004016102519061472e565b61262f8484848461322c565b50505050565b60008082116126565760405162461bcd60e51b8152600401610251906140e3565b61266060086130ac565b600061266c60086130b5565b905061267833826130b9565b612682818c613198565b6040518061010001604052808b8b8080601f016020809104026020016040519081016040528093929190818152602001838380828437600092019190915250505090825250604080516020601f8c018190048102820181019092528a815291810191908b908b9081908401838280828437600092019190915250505090825250604080516020601f8a018190048102820181019092528881529181019190899089908190840183828082843760009201829052509385525050506020820187905260408201869052606082018490526080909101908152336020918201526000838152600b8252604090208251805191926127829284929091019061352f565b50602082810151805161279b926001850192019061352f565b50604082015180516127b791600284019160209091019061352f565b50606082015181600301556080820151816004015560a0820151816005015560c08201518160060160006101000a81548160ff0219169083600381111561280e57634e487b7160e01b600052602160045260246000fd5b021790555060e09190910151600690910180546001600160a01b0390921661010002610100600160a81b03199092169190911790556000818152600d6020908152604080832080546001600160a01b03191633179055600a80546001810182559084527fc65a7bb8d6351c1cf70c95a316cc6a92839c986682d98bc35f958f4883f9d2a801849055516128a7918d918d91899101613c28565b60408051601f1981840301815282825280516020918201206000868152600c90925291902081905591506128de908c908c90613c18565b60405190819003812090339084907f762f1a2f7e87bdc2ebbbeb92df2d742317f8e1353aafc0c70b060981e72271f490600090a4509a9950505050505050505050565b600a818154811061293157600080fd5b600091825260209091200154905081565b606061294d82612e73565b6129695760405162461bcd60e51b81526004016102519061442f565b60008281526007602052604081208054612982906148a1565b80601f01602080910402602001604051908101604052809291908181526020018280546129ae906148a1565b80156129fb5780601f106129d0576101008083540402835291602001916129fb565b820191906000526020600020905b8154815290600101906020018083116129de57829003601f168201915b505050505090506000612a0c61325f565b9050805160001415612a20575090506107b9565b815115612a52578082604051602001612a3a929190613c59565b604051602081830303815290604052925050506107b9565b612a5b84613271565b949350505050565b600080600960009054906101000a90046001600160a01b03166001600160a01b0316638da5cb5b6040518163ffffffff1660e01b815260040160206040518083038186803b158015612ab457600080fd5b505afa158015612ac8573d6000803e3d6000fd5b505050506040513d601f19601f82011682018060405250810190612aec919061371e565b91505090565b6000838152600d602052604090205460609084906001600160a01b03163314612b2d5760405162461bcd60e51b815260040161025190614480565b6000858152600b60205260409081902060049081015460095492516371d4ed8d60e11b8152889391926001600160a01b039092169163e3a9db1a91612b7491339101613d23565b60206040518083038186803b158015612b8c57600080fd5b505afa158015612ba0573d6000803e3d6000fd5b505050506040513d601f19601f82011682018060405250810190612bc49190613a68565b1015612be25760405162461bcd60e51b815260040161025190614529565b6000818152600b602052604090206006015460ff166003811115612c1657634e487b7160e01b600052602160045260246000fd5b600114612c355760405162461bcd60e51b8152600401610251906142bf565b6000868152600e60209081526040808320546001600160a01b0316808452600f8352928190209051612c679201613c88565b604051602081830303815290604052805190602001208686604051602001612c90929190613c18565b6040516020818303038152906040528051906020012014612cc35760405162461bcd60e51b815260040161025190614690565b6000878152600b60205260409020600601805460ff19166002179055612ce98188610893565b6000878152600e6020526040908190205490516001600160a01b0390911690612d159088908890613c18565b6040519081900381209089907f39fd051deea672a32743d0c813cc2c161b3dacddbff9e2415abc2acbf2e088fb90600090a485858080601f016020809104026020016040519081016040528093929190818152602001838380828437600092019190915250929a9950505050505050505050565b6001600160a01b0380831660009081526006602090815260408083209385168352929052205460ff165b92915050565b600e602052600090815260409020546001600160a01b031681565b612ddc612e90565b6001600160a01b0316612ded6117d6565b6001600160a01b031614612e135760405162461bcd60e51b81526004016102519061457d565b6001600160a01b038116612e395760405162461bcd60e51b815260040161025190613f79565b612e42816131dc565b50565b6000908152600b602052604090206004015490565b6001600160e01b031981166301ffc9a760e01b14919050565b6000908152600360205260409020546001600160a01b0316151590565b3390565b600081815260056020526040902080546001600160a01b0319166001600160a01b0384169081179091558190612ec9826110df565b6001600160a01b03167f8c5be1e5ebec7d5bd14f71427d1e84f3dd0314c0f7b2291e5b200ac8c7c3b92560405160405180910390a45050565b6000612f0d82612e73565b612f295760405162461bcd60e51b815260040161025190614135565b6000612f34836110df565b9050806001600160a01b0316846001600160a01b03161480612f6f5750836001600160a01b0316612f6484610850565b6001600160a01b0316145b80612a5b5750612a5b8185612d89565b826001600160a01b0316612f92826110df565b6001600160a01b031614612fb85760405162461bcd60e51b8152600401610251906145f8565b6001600160a01b038216612fde5760405162461bcd60e51b815260040161025190613ff6565b612fe9838383610926565b612ff4600082612e94565b6001600160a01b038316600090815260046020526040812080546001929061301d90849061485e565b90915550506001600160a01b038216600090815260046020526040812080546001929061304b908490614832565b909155505060008181526003602052604080822080546001600160a01b0319166001600160a01b0386811691821790925591518493918716917fddf252ad1be2c89b69c2b068fc378daa952ba7f163c4a11628f55a4df523b3ef91a4505050565b80546001019055565b5490565b6001600160a01b0382166130df5760405162461bcd60e51b8152600401610251906143fa565b6130e881612e73565b156131055760405162461bcd60e51b815260040161025190613fbf565b61311160008383610926565b6001600160a01b038216600090815260046020526040812080546001929061313a908490614832565b909155505060008181526003602052604080822080546001600160a01b0319166001600160a01b03861690811790915590518392907fddf252ad1be2c89b69c2b068fc378daa952ba7f163c4a11628f55a4df523b3ef908290a45050565b6131a182612e73565b6131bd5760405162461bcd60e51b815260040161025190614271565b600082815260076020908152604090912082516109269284019061352f565b600080546001600160a01b038381166001600160a01b0319831681178455604051919092169283917f8be0079c531659141344cd1fd0a4f28419497f9722a3daafe3b4186f6b6457e09190a35050565b613237848484612f7f565b613243848484846132f3565b61262f5760405162461bcd60e51b815260040161025190613f27565b60408051602081019091526000815290565b606061327c82612e73565b6132985760405162461bcd60e51b815260040161025190614641565b60006132a261325f565b905060008151116132c25760405180602001604052806000815250610b19565b806132cc8461340e565b6040516020016132dd929190613c59565b6040516020818303038152906040529392505050565b6000613307846001600160a01b0316613529565b1561340357836001600160a01b031663150b7a02613323612e90565b8786866040518563ffffffff1660e01b81526004016133459493929190613d50565b602060405180830381600087803b15801561335f57600080fd5b505af192505050801561338f575060408051601f3d908101601f1916820190925261338c918101906138a7565b60015b6133e9573d8080156133bd576040519150601f19603f3d011682016040523d82523d6000602084013e6133c2565b606091505b5080516133e15760405162461bcd60e51b815260040161025190613f27565b805181602001fd5b6001600160e01b031916630a85bd0160e11b149050612a5b565b506001949350505050565b60608161343357506040805180820190915260018152600360fc1b60208201526107b9565b8160005b811561345d5780613447816148dc565b91506134569050600a8361484a565b9150613437565b60008167ffffffffffffffff81111561348657634e487b7160e01b600052604160045260246000fd5b6040519080825280601f01601f1916602001820160405280156134b0576020820181803683370190505b5090505b8415612a5b576134c560018361485e565b91506134d2600a866148f7565b6134dd906030614832565b60f81b81838151811061350057634e487b7160e01b600052603260045260246000fd5b60200101906001600160f81b031916908160001a905350613522600a8661484a565b94506134b4565b3b151590565b82805461353b906148a1565b90600052602060002090601f01602090048101928261355d57600085556135a3565b82601f1061357657805160ff19168380011785556135a3565b828001600101855582156135a3579182015b828111156135a3578251825591602001919060010190613588565b506135af929150613617565b5090565b6040518061010001604052806060815260200160608152602001606081526020016000815260200160008152602001600081526020016000600381111561360a57634e487b7160e01b600052602160045260246000fd5b8152600060209091015290565b5b808211156135af5760008155600101613618565b600067ffffffffffffffff8084111561364757613647614937565b604051601f8501601f19168101602001828111828210171561366b5761366b614937565b60405284815291508183850186101561368357600080fd5b8484602083013760006020868301015250509392505050565b60008083601f8401126136ad578182fd5b50813567ffffffffffffffff8111156136c4578182fd5b6020830191508360208285010111156136dc57600080fd5b9250929050565b600082601f8301126136f3578081fd5b610b198383356020850161362c565b600060208284031215613713578081fd5b8135610b198161494d565b60006020828403121561372f578081fd5b8151610b198161494d565b6000806040838503121561374c578081fd5b82356137578161494d565b915060208301356137678161494d565b809150509250929050565b600080600060608486031215613786578081fd5b83356137918161494d565b925060208401356137a18161494d565b929592945050506040919091013590565b600080600080608085870312156137c7578081fd5b84356137d28161494d565b935060208501356137e28161494d565b925060408501359150606085013567ffffffffffffffff811115613804578182fd5b8501601f81018713613814578182fd5b6138238782356020840161362c565b91505092959194509250565b60008060408385031215613841578182fd5b823561384c8161494d565b915060208301358015158114613767578182fd5b60008060408385031215613872578182fd5b823561387d8161494d565b946020939093013593505050565b60006020828403121561389c578081fd5b8135610b1981614962565b6000602082840312156138b8578081fd5b8151610b1981614962565b60008060008060008060008060a0898b0312156138de578384fd5b883567ffffffffffffffff808211156138f5578586fd5b6139018c838d016136e3565b995060208b0135915080821115613916578586fd5b6139228c838d0161369c565b909950975060408b013591508082111561393a578586fd5b6139468c838d0161369c565b909750955060608b013591508082111561395e578485fd5b5061396b8b828c0161369c565b999c989b50969995989497949560800135949350505050565b600080600080600080600080600060c08a8c0312156139a1578283fd5b893567ffffffffffffffff808211156139b8578485fd5b6139c48d838e016136e3565b9a5060208c01359150808211156139d9578485fd5b6139e58d838e0161369c565b909a50985060408c01359150808211156139fd578485fd5b613a098d838e0161369c565b909850965060608c0135915080821115613a21578485fd5b50613a2e8c828d0161369c565b9a9d999c50979a96999598959660808101359660a09091013595509350505050565b600060208284031215613a61578081fd5b5035919050565b600060208284031215613a79578081fd5b5051919050565b600080600060408486031215613a94578081fd5b83359250602084013567ffffffffffffffff811115613ab1578182fd5b613abd8682870161369c565b9497909650939450505050565b60008060408385031215613adc578182fd5b82359150602083013567ffffffffffffffff811115613af9578182fd5b613b05858286016136e3565b9150509250929050565b60008060408385031215613b21578182fd5b50508035926020909101359150565b60008151808452613b48816020860160208601614875565b601f01601f19169290920160200192915050565b60048110613b7a57634e487b7160e01b600052602160045260246000fd5b9052565b60006101008251818552613b9482860182613b30565b91505060208301518482036020860152613bae8282613b30565b91505060408301518482036040860152613bc88282613b30565b915050606083015160608501526080830151608085015260a083015160a085015260c0830151613bfb60c0860182613b5c565b5060e0928301516001600160a01b03169390920192909252919050565b6000828483379101908152919050565b60008385833750909101908152602001919050565b60008251613c4f818460208701614875565b9190910192915050565b60008351613c6b818460208801614875565b835190830190613c7f818360208801614875565b01949350505050565b8154600090819060028104600180831680613ca457607f831692505b6020808410821415613cc457634e487b7160e01b87526022600452602487fd5b818015613cd85760018114613ce957613d15565b60ff19861689528489019650613d15565b613cf28a614826565b885b86811015613d0d5781548b820152908501908301613cf4565b505084890196505b509498975050505050505050565b6001600160a01b0391909116815260200190565b6001600160a01b03929092168252602082015260400190565b6001600160a01b0385811682528416602082015260408101839052608060608201819052600090613d8390830184613b30565b9695505050505050565b6000602080830181845280855180835260408601915060408482028701019250838701855b82811015613de057603f19888603018452613dce858351613b7e565b94509285019290850190600101613db2565b5092979650505050505050565b6020808252825182820181905260009190848201906040850190845b81811015613e2557835183529284019291840191600101613e09565b50909695505050505050565b901515815260200190565b60208101612db38284613b5c565b600060208252610b196020830184613b30565b6000610100808352613e718184018c613b30565b90508281036020840152613e85818b613b30565b90508281036040840152613e99818a613b30565b9150508660608301528560808301528460a0830152613ebb60c0830185613b5c565b6001600160a01b039290921660e09190910152979650505050505050565b6020808252602e908201527f5061796d656e7420616d6f756e74206d7573742065786163746c79206d61746360408201526d68206c697374656420707269636560901b606082015260800190565b60208082526032908201527f4552433732313a207472616e7366657220746f206e6f6e20455243373231526560408201527131b2b4bb32b91034b6b83632b6b2b73a32b960711b606082015260800190565b60208082526026908201527f4f776e61626c653a206e6577206f776e657220697320746865207a65726f206160408201526564647265737360d01b606082015260800190565b6020808252601c908201527f4552433732313a20746f6b656e20616c7265616479206d696e74656400000000604082015260600190565b60208082526024908201527f4552433732313a207472616e7366657220746f20746865207a65726f206164646040820152637265737360e01b606082015260800190565b60208082526019908201527f4552433732313a20617070726f766520746f2063616c6c657200000000000000604082015260600190565b6020808252604c908201527f506c6561736520646f206e6f742073656e64207468697320636f6e747261637460408201527f2066756e6473206f722063616c6c20612066756e6374696f6e2074686174206460608201526b1bd95cdb89dd08195e1a5cdd60a21b608082015260a00190565b60208082526032908201527f596f757220486f726e2069732076616c7561626c6520616e642063616e6e6f7460408201527120626520736f6c6420666f7220667265652160701b606082015260800190565b6020808252602c908201527f4552433732313a206f70657261746f7220717565727920666f72206e6f6e657860408201526b34b9ba32b73a103a37b5b2b760a11b606082015260800190565b60208082526038908201527f4552433732313a20617070726f76652063616c6c6572206973206e6f74206f7760408201527f6e6572206e6f7220617070726f76656420666f7220616c6c0000000000000000606082015260800190565b6020808252602a908201527f4552433732313a2062616c616e636520717565727920666f7220746865207a65604082015269726f206164647265737360b01b606082015260800190565b60208082526029908201527f4552433732313a206f776e657220717565727920666f72206e6f6e657869737460408201526832b73a103a37b5b2b760b91b606082015260800190565b6020808252602e908201527f45524337323155524953746f726167653a2055524920736574206f66206e6f6e60408201526d32bc34b9ba32b73a103a37b5b2b760911b606082015260800190565b60208082526028908201527f486f726e20686173206e6f74206265656e206d61726b6564206173207061696460408201526708199bdc881e595d60c21b606082015260800190565b602080825260409082018190527f546869732066756e6374696f6e206d6179206f6e6c792062652063616c6c6564908201527f20627920612062757965722077686f2068617320616c72656164792070616964606082015260800190565b60208082526025908201527f486f726e206973206e6f742063757272656e746c79206c697374656420666f726040820152642073616c6560d81b606082015260800190565b60208082526030908201527f596f75206d75737420666972737420626520617070726f76656420627920637560408201526f393932b73a103437b9371037bbb732b960811b606082015260800190565b6020808252818101527f4552433732313a206d696e7420746f20746865207a65726f2061646472657373604082015260600190565b60208082526031908201527f45524337323155524953746f726167653a2055524920717565727920666f72206040820152703737b732bc34b9ba32b73a103a37b5b2b760791b606082015260800190565b60208082526038908201527f546869732066756e6374696f6e206d6179206f6e6c792062652063616c6c656460408201527f2062792074686520686f726e204e46542773206f776e65720000000000000000606082015260800190565b6020808252602c908201527f4552433732313a20617070726f76656420717565727920666f72206e6f6e657860408201526b34b9ba32b73a103a37b5b2b760a11b606082015260800190565b60208082526034908201527f4275796572206d7573742073656e64207061796d656e7420666f7220486f726e60408201527308139195081d1bc8195cd8dc9bddc8199a5c9cdd60621b606082015260800190565b6020808252818101527f4f776e61626c653a2063616c6c6572206973206e6f7420746865206f776e6572604082015260600190565b60208082526026908201527f486f726e204e4654206d75737420657869737420616e642063616e6e6f74206260408201526565206672656560d01b606082015260800190565b60208082526029908201527f4552433732313a207472616e73666572206f6620746f6b656e2074686174206960408201526839903737ba1037bbb760b91b606082015260800190565b6020808252602f908201527f4552433732314d657461646174613a2055524920717565727920666f72206e6f60408201526e3732bc34b9ba32b73a103a37b5b2b760891b606082015260800190565b6020808252603a908201527f4164647265737320676976656e20646f6573206e6f74206d617463682074686560408201527f206f6e65206f6e2066696c6520666f7220746865206275796572000000000000606082015260800190565b60208082526021908201527f4552433732313a20617070726f76616c20746f2063757272656e74206f776e656040820152603960f91b606082015260800190565b60208082526031908201527f4552433732313a207472616e736665722063616c6c6572206973206e6f74206f6040820152701ddb995c881b9bdc88185c1c1c9bdd9959607a1b606082015260800190565b60208082526027908201527f486f726e20686173206e6f74206265656e206d61726b656420617320736869706040820152661c1959081e595d60ca1b606082015260800190565b60208082526024908201527f596f757220486f726e20697320616c7265616479206c697374656420666f722060408201526373616c6560e01b606082015260800190565b600060208252610b196020830184613b7e565b90815260200190565b60009081526020902090565b600082198211156148455761484561490b565b500190565b60008261485957614859614921565b500490565b6000828210156148705761487061490b565b500390565b60005b83811015614890578181015183820152602001614878565b8381111561262f5750506000910152565b6002810460018216806148b557607f821691505b602082108114156148d657634e487b7160e01b600052602260045260246000fd5b50919050565b60006000198214156148f0576148f061490b565b5060010190565b60008261490657614906614921565b500690565b634e487b7160e01b600052601160045260246000fd5b634e487b7160e01b600052601260045260246000fd5b634e487b7160e01b600052604160045260246000fd5b6001600160a01b0381168114612e4257600080fd5b6001600160e01b031981168114612e4257600080fdfea264697066735822122056e0631cbc276b003691947bffc1885b55b46a98c111d22f303a55cc74b066d564736f6c63430008000033608060405234801561001057600080fd5b5061002161001c610026565b61002a565b61007a565b3390565b600080546001600160a01b038381166001600160a01b0319831681178455604051919092169283917f8be0079c531659141344cd1fd0a4f28419497f9722a3daafe3b4186f6b6457e09190a35050565b61068a806100896000396000f3fe6080604052600436106100555760003560e01c8063715018a61461005a5780638da5cb5b14610071578063e3a9db1a1461009c578063f2fde38b146100c9578063f340fa01146100e9578063f3fef3a3146100fc575b600080fd5b34801561006657600080fd5b5061006f61011c565b005b34801561007d57600080fd5b50610086610170565b60405161009391906104ce565b60405180910390f35b3480156100a857600080fd5b506100bc6100b736600461047d565b61017f565b60405161009391906105f1565b3480156100d557600080fd5b5061006f6100e436600461047d565b61019a565b61006f6100f736600461047d565b61020b565b34801561010857600080fd5b5061006f6101173660046104a0565b6102c0565b610124610388565b6001600160a01b0316610135610170565b6001600160a01b0316146101645760405162461bcd60e51b815260040161015b906105bc565b60405180910390fd5b61016e600061038c565b565b6000546001600160a01b031690565b6001600160a01b031660009081526001602052604090205490565b6101a2610388565b6001600160a01b03166101b3610170565b6001600160a01b0316146101d95760405162461bcd60e51b815260040161015b906105bc565b6001600160a01b0381166101ff5760405162461bcd60e51b815260040161015b906104e2565b6102088161038c565b50565b610213610388565b6001600160a01b0316610224610170565b6001600160a01b03161461024a5760405162461bcd60e51b815260040161015b906105bc565b6001600160a01b0381166000908152600160205260408120805434928392916102749084906105fa565b92505081905550816001600160a01b03167f2da466a7b24304f47e87fa2e1e5a81b9831ce54fec19055ce277ca2f39ba42c4826040516102b491906105f1565b60405180910390a25050565b6102c8610388565b6001600160a01b03166102d9610170565b6001600160a01b0316146102ff5760405162461bcd60e51b815260040161015b906105bc565b6001600160a01b038216600090815260016020526040812080548392839291610329908490610612565b9091555061034290506001600160a01b038416826103dc565b826001600160a01b03167f7084f5476618d8e60b11ef0d7d3f06914655adb8793e28ff7f018d4c76d505d58260405161037b91906105f1565b60405180910390a2505050565b3390565b600080546001600160a01b038381166001600160a01b0319831681178455604051919092169283917f8be0079c531659141344cd1fd0a4f28419497f9722a3daafe3b4186f6b6457e09190a35050565b804710156103fc5760405162461bcd60e51b815260040161015b90610585565b6000826001600160a01b031682604051610415906104cb565b60006040518083038185875af1925050503d8060008114610452576040519150601f19603f3d011682016040523d82523d6000602084013e610457565b606091505b50509050806104785760405162461bcd60e51b815260040161015b90610528565b505050565b60006020828403121561048e578081fd5b81356104998161063f565b9392505050565b600080604083850312156104b2578081fd5b82356104bd8161063f565b946020939093013593505050565b90565b6001600160a01b0391909116815260200190565b60208082526026908201527f4f776e61626c653a206e6577206f776e657220697320746865207a65726f206160408201526564647265737360d01b606082015260800190565b6020808252603a908201527f416464726573733a20756e61626c6520746f2073656e642076616c75652c207260408201527f6563697069656e74206d61792068617665207265766572746564000000000000606082015260800190565b6020808252601d908201527f416464726573733a20696e73756666696369656e742062616c616e6365000000604082015260600190565b6020808252818101527f4f776e61626c653a2063616c6c6572206973206e6f7420746865206f776e6572604082015260600190565b90815260200190565b6000821982111561060d5761060d610629565b500190565b60008282101561062457610624610629565b500390565b634e487b7160e01b600052601160045260246000fd5b6001600160a01b038116811461020857600080fdfea26469706673582212208a96f2cb85741bd40e1b1ee7bbaedd233f6f9cdfde2bfb9ee374a8201816935264736f6c63430008000033",
  "linkReferences": {},
  "deployedLinkReferences": {}
}