{
  "_format": "hh-sol-artifact-1",
  "contractName": "Helpers",
  "sourceName": "contracts/Helpers.sol",
  "abi": [
    {
      "anonymous": false,
      "inputs": [
        {
          "indexed": true,
          "internalType": "address",
          "name": "owner",
          "type": "address"
        },
        {
          "indexed": true,
          "internalType": "address",
          "name": "approved",
          "type": "address"
        },
        {
          "indexed": true,
          "internalType": "uint256",
          "name": "tokenId",
          "type": "uint256"
        }
      ],
      "name": "Approval",
      "type": "event"
    },
    {
      "anonymous": false,
      "inputs": [
        {
          "indexed": true,
          "internalType": "address",
          "name": "owner",
          "type": "address"
        },
        {
          "indexed": true,
          "internalType": "address",
          "name": "operator",
          "type": "address"
        },
        {
          "indexed": false,
          "internalType": "bool",
          "name": "approved",
          "type": "bool"
        }
      ],
      "name": "ApprovalForAll",
      "type": "event"
    },
    {
      "anonymous": false,
      "inputs": [
        {
          "indexed": true,
          "internalType": "address",
          "name": "payee",
          "type": "address"
        },
        {
          "indexed": true,
          "internalType": "uint256",
          "name": "amountInWei",
          "type": "uint256"
        }
      ],
      "name": "DepositedToEscrow",
      "type": "event"
    },
    {
      "anonymous": false,
      "inputs": [
        {
          "indexed": true,
          "internalType": "uint256",
          "name": "hornId",
          "type": "uint256"
        },
        {
          "indexed": true,
          "internalType": "address",
          "name": "from",
          "type": "address"
        },
        {
          "indexed": true,
          "internalType": "address",
          "name": "to",
          "type": "address"
        }
      ],
      "name": "HornDeliveredAndNFTOwnershipTransferred",
      "type": "event"
    },
    {
      "anonymous": false,
      "inputs": [
        {
          "indexed": true,
          "internalType": "uint256",
          "name": "hornId",
          "type": "uint256"
        },
        {
          "indexed": true,
          "internalType": "address",
          "name": "seller",
          "type": "address"
        },
        {
          "indexed": true,
          "internalType": "string",
          "name": "make",
          "type": "string"
        }
      ],
      "name": "HornListedForSale",
      "type": "event"
    },
    {
      "anonymous": false,
      "inputs": [
        {
          "indexed": true,
          "internalType": "uint256",
          "name": "hornId",
          "type": "uint256"
        },
        {
          "indexed": true,
          "internalType": "string",
          "name": "shipTo",
          "type": "string"
        },
        {
          "indexed": true,
          "internalType": "address",
          "name": "buyer",
          "type": "address"
        }
      ],
      "name": "HornPurchased",
      "type": "event"
    },
    {
      "anonymous": false,
      "inputs": [
        {
          "indexed": true,
          "internalType": "uint256",
          "name": "hornId",
          "type": "uint256"
        },
        {
          "indexed": true,
          "internalType": "string",
          "name": "shipTo",
          "type": "string"
        },
        {
          "indexed": true,
          "internalType": "address",
          "name": "to",
          "type": "address"
        }
      ],
      "name": "HornShipped",
      "type": "event"
    },
    {
      "anonymous": false,
      "inputs": [
        {
          "indexed": true,
          "internalType": "uint256",
          "name": "hornId",
          "type": "uint256"
        },
        {
          "indexed": true,
          "internalType": "address",
          "name": "seller",
          "type": "address"
        },
        {
          "indexed": true,
          "internalType": "string",
          "name": "make",
          "type": "string"
        }
      ],
      "name": "NewHornNFTMinted",
      "type": "event"
    },
    {
      "anonymous": false,
      "inputs": [
        {
          "indexed": true,
          "internalType": "address",
          "name": "previousOwner",
          "type": "address"
        },
        {
          "indexed": true,
          "internalType": "address",
          "name": "newOwner",
          "type": "address"
        }
      ],
      "name": "OwnershipTransferred",
      "type": "event"
    },
    {
      "anonymous": false,
      "inputs": [
        {
          "indexed": true,
          "internalType": "uint256",
          "name": "hornId",
          "type": "uint256"
        },
        {
          "indexed": true,
          "internalType": "address",
          "name": "payer",
          "type": "address"
        },
        {
          "indexed": true,
          "internalType": "address",
          "name": "payee",
          "type": "address"
        }
      ],
      "name": "SellerPaid",
      "type": "event"
    },
    {
      "anonymous": false,
      "inputs": [
        {
          "indexed": true,
          "internalType": "address",
          "name": "from",
          "type": "address"
        },
        {
          "indexed": true,
          "internalType": "address",
          "name": "to",
          "type": "address"
        },
        {
          "indexed": true,
          "internalType": "uint256",
          "name": "tokenId",
          "type": "uint256"
        }
      ],
      "name": "Transfer",
      "type": "event"
    },
    {
      "anonymous": false,
      "inputs": [
        {
          "indexed": true,
          "internalType": "address",
          "name": "payee",
          "type": "address"
        },
        {
          "indexed": true,
          "internalType": "uint256",
          "name": "amountInWei",
          "type": "uint256"
        }
      ],
      "name": "WithdrawnFromEscrow",
      "type": "event"
    },
    {
      "stateMutability": "nonpayable",
      "type": "fallback"
    },
    {
      "inputs": [
        {
          "internalType": "address",
          "name": "to",
          "type": "address"
        },
        {
          "internalType": "uint256",
          "name": "tokenId",
          "type": "uint256"
        }
      ],
      "name": "approve",
      "outputs": [],
      "stateMutability": "nonpayable",
      "type": "function"
    },
    {
      "inputs": [
        {
          "internalType": "address",
          "name": "owner",
          "type": "address"
        }
      ],
      "name": "balanceOf",
      "outputs": [
        {
          "internalType": "uint256",
          "name": "",
          "type": "uint256"
        }
      ],
      "stateMutability": "view",
      "type": "function"
    },
    {
      "inputs": [
        {
          "internalType": "uint256",
          "name": "",
          "type": "uint256"
        }
      ],
      "name": "buyers",
      "outputs": [
        {
          "internalType": "address",
          "name": "",
          "type": "address"
        }
      ],
      "stateMutability": "view",
      "type": "function"
    },
    {
      "inputs": [
        {
          "internalType": "uint256",
          "name": "tokenId",
          "type": "uint256"
        }
      ],
      "name": "getApproved",
      "outputs": [
        {
          "internalType": "address",
          "name": "",
          "type": "address"
        }
      ],
      "stateMutability": "view",
      "type": "function"
    },
    {
      "inputs": [
        {
          "internalType": "uint256",
          "name": "_tokenId",
          "type": "uint256"
        }
      ],
      "name": "getApprovedToSpend",
      "outputs": [
        {
          "internalType": "address",
          "name": "",
          "type": "address"
        }
      ],
      "stateMutability": "view",
      "type": "function"
    },
    {
      "inputs": [
        {
          "internalType": "address",
          "name": "_owner",
          "type": "address"
        }
      ],
      "name": "getBalanceOf",
      "outputs": [
        {
          "internalType": "uint256",
          "name": "",
          "type": "uint256"
        }
      ],
      "stateMutability": "view",
      "type": "function"
    },
    {
      "inputs": [],
      "name": "getCurrentHornsForSale",
      "outputs": [
        {
          "internalType": "uint256[]",
          "name": "",
          "type": "uint256[]"
        }
      ],
      "stateMutability": "view",
      "type": "function"
    },
    {
      "inputs": [
        {
          "internalType": "uint256",
          "name": "__hornId",
          "type": "uint256"
        }
      ],
      "name": "getCurrentOwnerByMapping",
      "outputs": [
        {
          "internalType": "address payable",
          "name": "",
          "type": "address"
        }
      ],
      "stateMutability": "view",
      "type": "function"
    },
    {
      "inputs": [
        {
          "internalType": "uint256",
          "name": "__hornId",
          "type": "uint256"
        }
      ],
      "name": "getCurrentOwnerByStructAttribute",
      "outputs": [
        {
          "internalType": "address payable",
          "name": "",
          "type": "address"
        }
      ],
      "stateMutability": "view",
      "type": "function"
    },
    {
      "inputs": [],
      "name": "getCurrentlyListedHorns",
      "outputs": [
        {
          "components": [
            {
              "internalType": "string",
              "name": "make",
              "type": "string"
            },
            {
              "internalType": "string",
              "name": "model",
              "type": "string"
            },
            {
              "internalType": "string",
              "name": "style",
              "type": "string"
            },
            {
              "internalType": "uint256",
              "name": "serialNumber",
              "type": "uint256"
            },
            {
              "internalType": "uint256",
              "name": "listPrice",
              "type": "uint256"
            },
            {
              "internalType": "uint256",
              "name": "tokenId",
              "type": "uint256"
            },
            {
              "internalType": "enum HornMarketplace.HornStatus",
              "name": "status",
              "type": "uint8"
            },
            {
              "internalType": "address payable",
              "name": "currentOwner",
              "type": "address"
            }
          ],
          "internalType": "struct HornMarketplace.Horn[]",
          "name": "",
          "type": "tuple[]"
        }
      ],
      "stateMutability": "view",
      "type": "function"
    },
    {
      "inputs": [],
      "name": "getCurrentlyOwnedHorns",
      "outputs": [
        {
          "components": [
            {
              "internalType": "string",
              "name": "make",
              "type": "string"
            },
            {
              "internalType": "string",
              "name": "model",
              "type": "string"
            },
            {
              "internalType": "string",
              "name": "style",
              "type": "string"
            },
            {
              "internalType": "uint256",
              "name": "serialNumber",
              "type": "uint256"
            },
            {
              "internalType": "uint256",
              "name": "listPrice",
              "type": "uint256"
            },
            {
              "internalType": "uint256",
              "name": "tokenId",
              "type": "uint256"
            },
            {
              "internalType": "enum HornMarketplace.HornStatus",
              "name": "status",
              "type": "uint8"
            },
            {
              "internalType": "address payable",
              "name": "currentOwner",
              "type": "address"
            }
          ],
          "internalType": "struct HornMarketplace.Horn[]",
          "name": "",
          "type": "tuple[]"
        }
      ],
      "stateMutability": "view",
      "type": "function"
    },
    {
      "inputs": [
        {
          "internalType": "address",
          "name": "payee",
          "type": "address"
        }
      ],
      "name": "getEscrowDepositValue",
      "outputs": [
        {
          "internalType": "uint256",
          "name": "",
          "type": "uint256"
        }
      ],
      "stateMutability": "view",
      "type": "function"
    },
    {
      "inputs": [],
      "name": "getEscrowOwner",
      "outputs": [
        {
          "internalType": "address",
          "name": "",
          "type": "address"
        }
      ],
      "stateMutability": "view",
      "type": "function"
    },
    {
      "inputs": [
        {
          "internalType": "uint256",
          "name": "_index",
          "type": "uint256"
        }
      ],
      "name": "getHornById",
      "outputs": [
        {
          "components": [
            {
              "internalType": "string",
              "name": "make",
              "type": "string"
            },
            {
              "internalType": "string",
              "name": "model",
              "type": "string"
            },
            {
              "internalType": "string",
              "name": "style",
              "type": "string"
            },
            {
              "internalType": "uint256",
              "name": "serialNumber",
              "type": "uint256"
            },
            {
              "internalType": "uint256",
              "name": "listPrice",
              "type": "uint256"
            },
            {
              "internalType": "uint256",
              "name": "tokenId",
              "type": "uint256"
            },
            {
              "internalType": "enum HornMarketplace.HornStatus",
              "name": "status",
              "type": "uint8"
            },
            {
              "internalType": "address payable",
              "name": "currentOwner",
              "type": "address"
            }
          ],
          "internalType": "struct HornMarketplace.Horn",
          "name": "",
          "type": "tuple"
        }
      ],
      "stateMutability": "view",
      "type": "function"
    },
    {
      "inputs": [
        {
          "internalType": "uint256",
          "name": "__hornId",
          "type": "uint256"
        }
      ],
      "name": "getListPriceByHornId",
      "outputs": [
        {
          "internalType": "uint256",
          "name": "",
          "type": "uint256"
        }
      ],
      "stateMutability": "view",
      "type": "function"
    },
    {
      "inputs": [],
      "name": "getPurchasedHorns",
      "outputs": [
        {
          "components": [
            {
              "internalType": "string",
              "name": "make",
              "type": "string"
            },
            {
              "internalType": "string",
              "name": "model",
              "type": "string"
            },
            {
              "internalType": "string",
              "name": "style",
              "type": "string"
            },
            {
              "internalType": "uint256",
              "name": "serialNumber",
              "type": "uint256"
            },
            {
              "internalType": "uint256",
              "name": "listPrice",
              "type": "uint256"
            },
            {
              "internalType": "uint256",
              "name": "tokenId",
              "type": "uint256"
            },
            {
              "internalType": "enum HornMarketplace.HornStatus",
              "name": "status",
              "type": "uint8"
            },
            {
              "internalType": "address payable",
              "name": "currentOwner",
              "type": "address"
            }
          ],
          "internalType": "struct HornMarketplace.Horn[]",
          "name": "",
          "type": "tuple[]"
        }
      ],
      "stateMutability": "view",
      "type": "function"
    },
    {
      "inputs": [
        {
          "internalType": "uint256",
          "name": "__hornId",
          "type": "uint256"
        }
      ],
      "name": "getShippingAddress",
      "outputs": [
        {
          "internalType": "string",
          "name": "",
          "type": "string"
        }
      ],
      "stateMutability": "view",
      "type": "function"
    },
    {
      "inputs": [
        {
          "internalType": "uint256",
          "name": "__hornId",
          "type": "uint256"
        }
      ],
      "name": "getStatusOfHornByHornId",
      "outputs": [
        {
          "internalType": "enum HornMarketplace.HornStatus",
          "name": "",
          "type": "uint8"
        }
      ],
      "stateMutability": "view",
      "type": "function"
    },
    {
      "inputs": [
        {
          "internalType": "uint256",
          "name": "",
          "type": "uint256"
        }
      ],
      "name": "horns",
      "outputs": [
        {
          "internalType": "string",
          "name": "make",
          "type": "string"
        },
        {
          "internalType": "string",
          "name": "model",
          "type": "string"
        },
        {
          "internalType": "string",
          "name": "style",
          "type": "string"
        },
        {
          "internalType": "uint256",
          "name": "serialNumber",
          "type": "uint256"
        },
        {
          "internalType": "uint256",
          "name": "listPrice",
          "type": "uint256"
        },
        {
          "internalType": "uint256",
          "name": "tokenId",
          "type": "uint256"
        },
        {
          "internalType": "enum HornMarketplace.HornStatus",
          "name": "status",
          "type": "uint8"
        },
        {
          "internalType": "address payable",
          "name": "currentOwner",
          "type": "address"
        }
      ],
      "stateMutability": "view",
      "type": "function"
    },
    {
      "inputs": [
        {
          "internalType": "uint256",
          "name": "",
          "type": "uint256"
        }
      ],
      "name": "hornsForSale",
      "outputs": [
        {
          "internalType": "uint256",
          "name": "",
          "type": "uint256"
        }
      ],
      "stateMutability": "view",
      "type": "function"
    },
    {
      "inputs": [
        {
          "internalType": "address",
          "name": "owner",
          "type": "address"
        },
        {
          "internalType": "address",
          "name": "operator",
          "type": "address"
        }
      ],
      "name": "isApprovedForAll",
      "outputs": [
        {
          "internalType": "bool",
          "name": "",
          "type": "bool"
        }
      ],
      "stateMutability": "view",
      "type": "function"
    },
    {
      "inputs": [
        {
          "internalType": "uint256",
          "name": "__hornId",
          "type": "uint256"
        },
        {
          "internalType": "uint256",
          "name": "_desiredPrice",
          "type": "uint256"
        }
      ],
      "name": "listExistingHornNFT",
      "outputs": [
        {
          "internalType": "uint256",
          "name": "",
          "type": "uint256"
        }
      ],
      "stateMutability": "nonpayable",
      "type": "function"
    },
    {
      "inputs": [
        {
          "internalType": "uint256",
          "name": "__hornId",
          "type": "uint256"
        }
      ],
      "name": "markHornDeliveredAndOwnershipTransferred",
      "outputs": [
        {
          "internalType": "uint256",
          "name": "",
          "type": "uint256"
        }
      ],
      "stateMutability": "nonpayable",
      "type": "function"
    },
    {
      "inputs": [
        {
          "internalType": "uint256",
          "name": "__hornId",
          "type": "uint256"
        },
        {
          "internalType": "string",
          "name": "shippedTo",
          "type": "string"
        }
      ],
      "name": "markHornShipped",
      "outputs": [
        {
          "internalType": "string",
          "name": "",
          "type": "string"
        }
      ],
      "stateMutability": "nonpayable",
      "type": "function"
    },
    {
      "inputs": [
        {
          "internalType": "string",
          "name": "tokenUri",
          "type": "string"
        },
        {
          "internalType": "string",
          "name": "_make",
          "type": "string"
        },
        {
          "internalType": "string",
          "name": "_model",
          "type": "string"
        },
        {
          "internalType": "string",
          "name": "_style",
          "type": "string"
        },
        {
          "internalType": "uint256",
          "name": "_serialNumber",
          "type": "uint256"
        }
      ],
      "name": "mintButDontListNewHornNFT",
      "outputs": [
        {
          "internalType": "uint256",
          "name": "",
          "type": "uint256"
        }
      ],
      "stateMutability": "nonpayable",
      "type": "function"
    },
    {
      "inputs": [
        {
          "internalType": "string",
          "name": "tokenUri",
          "type": "string"
        },
        {
          "internalType": "string",
          "name": "_make",
          "type": "string"
        },
        {
          "internalType": "string",
          "name": "_model",
          "type": "string"
        },
        {
          "internalType": "string",
          "name": "_style",
          "type": "string"
        },
        {
          "internalType": "uint256",
          "name": "_serialNumber",
          "type": "uint256"
        },
        {
          "internalType": "uint256",
          "name": "_desiredPrice",
          "type": "uint256"
        }
      ],
      "name": "mintThenListNewHornNFT",
      "outputs": [
        {
          "internalType": "uint256",
          "name": "",
          "type": "uint256"
        }
      ],
      "stateMutability": "nonpayable",
      "type": "function"
    },
    {
      "inputs": [],
      "name": "name",
      "outputs": [
        {
          "internalType": "string",
          "name": "",
          "type": "string"
        }
      ],
      "stateMutability": "view",
      "type": "function"
    },
    {
      "inputs": [],
      "name": "owner",
      "outputs": [
        {
          "internalType": "address",
          "name": "",
          "type": "address"
        }
      ],
      "stateMutability": "view",
      "type": "function"
    },
    {
      "inputs": [
        {
          "internalType": "uint256",
          "name": "tokenId",
          "type": "uint256"
        }
      ],
      "name": "ownerOf",
      "outputs": [
        {
          "internalType": "address",
          "name": "",
          "type": "address"
        }
      ],
      "stateMutability": "view",
      "type": "function"
    },
    {
      "inputs": [
        {
          "internalType": "uint256",
          "name": "__hornId",
          "type": "uint256"
        },
        {
          "internalType": "string",
          "name": "_shipTo",
          "type": "string"
        }
      ],
      "name": "purchaseHornByHornId",
      "outputs": [],
      "stateMutability": "payable",
      "type": "function"
    },
    {
      "inputs": [],
      "name": "renounceOwnership",
      "outputs": [],
      "stateMutability": "nonpayable",
      "type": "function"
    },
    {
      "inputs": [
        {
          "internalType": "address",
          "name": "from",
          "type": "address"
        },
        {
          "internalType": "address",
          "name": "to",
          "type": "address"
        },
        {
          "internalType": "uint256",
          "name": "tokenId",
          "type": "uint256"
        }
      ],
      "name": "safeTransferFrom",
      "outputs": [],
      "stateMutability": "nonpayable",
      "type": "function"
    },
    {
      "inputs": [
        {
          "internalType": "address",
          "name": "from",
          "type": "address"
        },
        {
          "internalType": "address",
          "name": "to",
          "type": "address"
        },
        {
          "internalType": "uint256",
          "name": "tokenId",
          "type": "uint256"
        },
        {
          "internalType": "bytes",
          "name": "_data",
          "type": "bytes"
        }
      ],
      "name": "safeTransferFrom",
      "outputs": [],
      "stateMutability": "nonpayable",
      "type": "function"
    },
    {
      "inputs": [
        {
          "internalType": "uint256",
          "name": "__hornId",
          "type": "uint256"
        }
      ],
      "name": "sellerInitiateRefundOrSetStatusToOwnedNotForSale",
      "outputs": [
        {
          "internalType": "enum HornMarketplace.HornStatus",
          "name": "",
          "type": "uint8"
        }
      ],
      "stateMutability": "nonpayable",
      "type": "function"
    },
    {
      "inputs": [
        {
          "internalType": "address",
          "name": "operator",
          "type": "address"
        },
        {
          "internalType": "bool",
          "name": "approved",
          "type": "bool"
        }
      ],
      "name": "setApprovalForAll",
      "outputs": [],
      "stateMutability": "nonpayable",
      "type": "function"
    },
    {
      "inputs": [
        {
          "internalType": "bytes4",
          "name": "interfaceId",
          "type": "bytes4"
        }
      ],
      "name": "supportsInterface",
      "outputs": [
        {
          "internalType": "bool",
          "name": "",
          "type": "bool"
        }
      ],
      "stateMutability": "view",
      "type": "function"
    },
    {
      "inputs": [],
      "name": "symbol",
      "outputs": [
        {
          "internalType": "string",
          "name": "",
          "type": "string"
        }
      ],
      "stateMutability": "view",
      "type": "function"
    },
    {
      "inputs": [
        {
          "internalType": "uint256",
          "name": "tokenId",
          "type": "uint256"
        }
      ],
      "name": "tokenURI",
      "outputs": [
        {
          "internalType": "string",
          "name": "",
          "type": "string"
        }
      ],
      "stateMutability": "view",
      "type": "function"
    },
    {
      "inputs": [
        {
          "internalType": "address",
          "name": "from",
          "type": "address"
        },
        {
          "internalType": "address",
          "name": "to",
          "type": "address"
        },
        {
          "internalType": "uint256",
          "name": "tokenId",
          "type": "uint256"
        }
      ],
      "name": "transferFrom",
      "outputs": [],
      "stateMutability": "nonpayable",
      "type": "function"
    },
    {
      "inputs": [
        {
          "internalType": "address",
          "name": "newOwner",
          "type": "address"
        }
      ],
      "name": "transferOwnership",
      "outputs": [],
      "stateMutability": "nonpayable",
      "type": "function"
    },
    {
      "stateMutability": "payable",
      "type": "receive"
    }
  ],
  "bytecode": "0x60806040523480156200001157600080fd5b50604051806040016040528060048152602001632437b93760e11b815250604051806040016040528060048152602001632427a92760e11b8152506200006662000060620000e660201b60201c565b620000ea565b81516200007b9060019060208501906200013a565b508051620000919060029060208401906200013a565b505050604051620000a290620001c9565b604051809103906000f080158015620000bf573d6000803e3d6000fd5b50600980546001600160a01b0319166001600160a01b03929092169190911790556200022b565b3390565b600080546001600160a01b038381166001600160a01b0319831681178455604051919092169283917f8be0079c531659141344cd1fd0a4f28419497f9722a3daafe3b4186f6b6457e09190a35050565b8280546200014890620001ee565b90600052602060002090601f0160209004810192826200016c5760008555620001b7565b82601f106200018757805160ff1916838001178555620001b7565b82800160010185558215620001b7579182015b82811115620001b75782518255916020019190600101906200019a565b50620001c5929150620001d7565b5090565b6107138062004fdd83390190565b5b80821115620001c55760008155600101620001d8565b6002810460018216806200020357607f821691505b602082108114156200022557634e487b7160e01b600052602260045260246000fd5b50919050565b614da2806200023b6000396000f3fe60806040526004361061023f5760003560e01c80638da5cb5b1161012e578063b88d4fde116100ab578063cf44981a1161006f578063cf44981a14610701578063e985e9c514610721578063f2aa821814610741578063f2fde38b14610761578063fd92de011461078157610265565b8063b88d4fde1461066c578063ba80a2c41461068c578063c0227bbb146106ac578063c87b56dd146106cc578063cce44056146106ec57610265565b8063a22cb465116100f2578063a22cb465146105c3578063b0e696e3146105e3578063b5178ed514610603578063b6bb26fd14610637578063b7d002f41461064c57610265565b80638da5cb5b1461054257806395d89b4114610557578063989604351461056c5780639b96eece1461058e578063a081feb1146105ae57610265565b80633dda1fca116101bc57806370a082311161018057806370a082311461049e578063715018a6146104be57806376cb00ee146104d357806378b5270c146105005780638007eb481461052257610265565b80633dda1fca146103f157806342842e0e1461041157806349870e5314610431578063625475011461045e5780636352211e1461047e57610265565b8063125bba3711610203578063125bba371461035157806319df66f41461037e5780631c5e1d5e1461039e57806323b872dd146103be5780633a770745146103de57610265565b806301ffc9a71461028a57806306fdde03146102c0578063081812fc146102e2578063095ea7b31461030f57806311723dc21461033157610265565b366102655760405162461bcd60e51b815260040161025c906142a2565b60405180910390fd5b34801561027157600080fd5b5060405162461bcd60e51b815260040161025c906142a2565b34801561029657600080fd5b506102aa6102a5366004613abc565b6107a1565b6040516102b79190614062565b60405180910390f35b3480156102cc57600080fd5b506102d56107e9565b6040516102b7919061407b565b3480156102ee57600080fd5b506103026102fd366004613c81565b61087b565b6040516102b79190613f54565b34801561031b57600080fd5b5061032f61032a366004613a91565b6108be565b005b34801561033d57600080fd5b5061030261034c366004613c81565b610956565b34801561035d57600080fd5b5061037161036c366004613d40565b610979565b6040516102b79190614c11565b34801561038a57600080fd5b50610371610399366004613933565b610abf565b3480156103aa57600080fd5b506103026103b9366004613c81565b610b4b565b3480156103ca57600080fd5b5061032f6103d93660046139a3565b610b66565b61032f6103ec366004613cfb565b610b9e565b3480156103fd57600080fd5b5061030261040c366004613c81565b610e58565b34801561041d57600080fd5b5061032f61042c3660046139a3565b610e64565b34801561043d57600080fd5b5061045161044c366004613c81565b610e7f565b6040516102b7919061406d565b34801561046a57600080fd5b50610371610479366004613af4565b610e97565b34801561048a57600080fd5b50610302610499366004613c81565b61112e565b3480156104aa57600080fd5b506103716104b9366004613933565b611163565b3480156104ca57600080fd5b5061032f6111a7565b3480156104df57600080fd5b506104f36104ee366004613c81565b6111f2565b6040516102b79190614bfe565b34801561050c57600080fd5b50610515611455565b6040516102b79190613fbe565b34801561052e57600080fd5b5061045161053d366004613c81565b611825565b34801561054e57600080fd5b50610302611a07565b34801561056357600080fd5b506102d5611a16565b34801561057857600080fd5b50610581611a25565b6040516102b7919061401e565b34801561059a57600080fd5b506103716105a9366004613933565b611a7c565b3480156105ba57600080fd5b50610515611a88565b3480156105cf57600080fd5b5061032f6105de366004613a60565b611dd2565b3480156105ef57600080fd5b506102d56105fe366004613c81565b611ea0565b34801561060f57600080fd5b5061062361061e366004613c81565b611f5c565b6040516102b798979695949392919061408e565b34801561064357600080fd5b50610515612142565b34801561065857600080fd5b50610371610667366004613c81565b612509565b34801561067857600080fd5b5061032f6106873660046139e3565b612827565b34801561069857600080fd5b506103716106a7366004613bb5565b612866565b3480156106b857600080fd5b506103716106c7366004613c81565b612b52565b3480156106d857600080fd5b506102d56106e7366004613c81565b612b73565b3480156106f857600080fd5b50610302612c94565b34801561070d57600080fd5b506102d561071c366004613cb1565b612d23565b34801561072d57600080fd5b506102aa61073c36600461396b565b612fba565b34801561074d57600080fd5b5061030261075c366004613c81565b612fea565b34801561076d57600080fd5b5061032f61077c366004613933565b613005565b34801561078d57600080fd5b5061037161079c366004613c81565b613076565b60006001600160e01b031982166380ac58cd60e01b14806107d257506001600160e01b03198216635b5e139f60e01b145b806107e157506107e18261308b565b90505b919050565b6060600180546107f890614c95565b80601f016020809104026020016040519081016040528092919081815260200182805461082490614c95565b80156108715780601f1061084657610100808354040283529160200191610871565b820191906000526020600020905b81548152906001019060200180831161085457829003601f168201915b5050505050905090565b6000610886826130a4565b6108a25760405162461bcd60e51b815260040161025c9061475e565b506000908152600560205260409020546001600160a01b031690565b60006108c98261112e565b9050806001600160a01b0316836001600160a01b031614156108fd5760405162461bcd60e51b815260040161025c9061496e565b806001600160a01b031661090f6130c1565b6001600160a01b0316148061092b575061092b8161073c6130c1565b6109475760405162461bcd60e51b815260040161025c90614402565b61095183836130c5565b505050565b6000908152600b602052604090206006015461010090046001600160a01b031690565b6000828152600d602052604081205483906001600160a01b031633146109b15760405162461bcd60e51b815260040161025c90614701565b600083116109d15760405162461bcd60e51b815260040161025c90614364565b6000848152600b602052604081206006015460ff166003811115610a0557634e487b7160e01b600052602160045260246000fd5b1415610a235760405162461bcd60e51b815260040161025c90614b26565b600a8054600181019091557fc65a7bb8d6351c1cf70c95a316cc6a92839c986682d98bc35f958f4883f9d2a8018490556000848152600b6020526040908190206004810185905560068101805460ff1916905590518591610a8391613eb9565b60405190819003812090339083907f762f1a2f7e87bdc2ebbbeb92df2d742317f8e1353aafc0c70b060981e72271f490600090a4949350505050565b6009546040516371d4ed8d60e11b815260009182916001600160a01b039091169063e3a9db1a90610af4908690600401613f54565b60206040518083038186803b158015610b0c57600080fd5b505afa158015610b20573d6000803e3d6000fd5b505050506040513d601f19601f82011682018060405250810190610b449190613c99565b9392505050565b6000908152600d60205260409020546001600160a01b031690565b610b77610b716130c1565b82613133565b610b935760405162461bcd60e51b815260040161025c90614a8e565b6109518383836131b0565b6000828152600b60205260409020600401548290610bce5760405162461bcd60e51b815260040161025c90614833565b6000818152600b602052604090206006015460ff166003811115610c0257634e487b7160e01b600052602160045260246000fd5b15610c1f5760405162461bcd60e51b815260040161025c906145e6565b6000838152600b602052604090206004015483903414610c515760405162461bcd60e51b815260040161025c9061410a565b6000848152600d60205260409020546001600160a01b0316331415610c7557600080fd5b6009546000858152600d60205260409081902054905163f340fa0160e01b81526001600160a01b039283169263f340fa01923492610cb99290911690600401613f54565b6000604051808303818588803b158015610cd257600080fd5b505af1158015610ce6573d6000803e3d6000fd5b5050336000908152600f602090815260409091208751889550610d10945090925090840190613760565b506000858152600e6020908152604080832080546001600160a01b03191633179055600b9091528120600601805460ff191660011790555b600a54811015610dc45785600a8281548110610d7457634e487b7160e01b600052603260045260246000fd5b90600052602060002001541415610db257600a8181548110610da657634e487b7160e01b600052603260045260246000fd5b60009182526020822001555b80610dbc81614cd0565b915050610d48565b506040513390610dd5908690613e6e565b6040519081900381209087907fdbca9a11cad69a5ab275fd9838feb30068a34f31d0f876d995c14a8dd906f70990600090a46000858152600b602052604080822060060154905134926101009092046001600160a01b0316917fe6138e0eb7be5ea87d2296f3ad7469a8364406bface7d4e5de0a21dce1841cdd91a35050505050565b600080610b448361087b565b61095183838360405180602001604052806000815250612827565b6000908152600b602052604090206006015460ff1690565b6000610ea360086132dd565b6000610eaf60086132e6565b9050610ebb33826132ea565b610ec5818b6133c9565b6040518061010001604052808a8a8080601f016020809104026020016040519081016040528093929190818152602001838380828437600092019190915250505090825250604080516020601f8b0181900481028201810190925289815291810191908a908a9081908401838280828437600092019190915250505090825250604080516020601f89018190048102820181019092528781529181019190889088908190840183828082843760009201829052509385525050506020820186905260408201526060810183905260800160038152336020918201526000838152600b825260409020825180519192610fc292849290910190613760565b506020828101518051610fdb9260018501920190613760565b5060408201518051610ff7916002840191602090910190613760565b50606082015181600301556080820151816004015560a0820151816005015560c08201518160060160006101000a81548160ff0219169083600381111561104e57634e487b7160e01b600052602160045260246000fd5b021790555060e09190910151600690910180546001600160a01b0390921661010002610100600160a81b03199092169190911790556000818152600d6020908152604080832080546001600160a01b03191633179055516110b5918c918c91889101613e59565b60408051601f1981840301815282825280516020918201206000868152600c90925291902081905591506110ec908b908b90613e49565b60405190819003812090339084907f4d80549dfe39c90078d620fcd854e5cbf03ace471593a7df725d1191056f30a190600090a4509998505050505050505050565b6000818152600360205260408120546001600160a01b0316806107e15760405162461bcd60e51b815260040161025c906144a9565b60006001600160a01b03821661118b5760405162461bcd60e51b815260040161025c9061445f565b506001600160a01b031660009081526004602052604090205490565b6111af6130c1565b6001600160a01b03166111c0611a07565b6001600160a01b0316146111e65760405162461bcd60e51b815260040161025c906147fe565b6111f0600061340d565b565b6111fa6137e4565b6000828152600b6020526040908190208151610100810190925280548290829061122390614c95565b80601f016020809104026020016040519081016040528092919081815260200182805461124f90614c95565b801561129c5780601f106112715761010080835404028352916020019161129c565b820191906000526020600020905b81548152906001019060200180831161127f57829003601f168201915b505050505081526020016001820180546112b590614c95565b80601f01602080910402602001604051908101604052809291908181526020018280546112e190614c95565b801561132e5780601f106113035761010080835404028352916020019161132e565b820191906000526020600020905b81548152906001019060200180831161131157829003601f168201915b5050505050815260200160028201805461134790614c95565b80601f016020809104026020016040519081016040528092919081815260200182805461137390614c95565b80156113c05780601f10611395576101008083540402835291602001916113c0565b820191906000526020600020905b8154815290600101906020018083116113a357829003601f168201915b505050918352505060038281015460208301526004830154604083015260058301546060830152600683015460809092019160ff169081111561141357634e487b7160e01b600052602160045260246000fd5b600381111561143257634e487b7160e01b600052602160045260246000fd5b81526006919091015461010090046001600160a01b031660209091015292915050565b6060600061146360086132e6565b90506000805b828110156114c15733600d6000611481846001614c26565b81526020810191909152604001600020546001600160a01b031614156114af57816114ab81614cd0565b9250505b806114b981614cd0565b915050611469565b506000808267ffffffffffffffff8111156114ec57634e487b7160e01b600052604160045260246000fd5b60405190808252806020026020018201604052801561152557816020015b6115126137e4565b81526020019060019003908161150a5790505b50905060005b8481101561181c5733600d6000611543846001614c26565b81526020810191909152604001600020546001600160a01b0316141561180a576000611570826001614c26565b9050600b6000828152602001908152602001600020604051806101000160405290816000820180546115a190614c95565b80601f01602080910402602001604051908101604052809291908181526020018280546115cd90614c95565b801561161a5780601f106115ef5761010080835404028352916020019161161a565b820191906000526020600020905b8154815290600101906020018083116115fd57829003601f168201915b5050505050815260200160018201805461163390614c95565b80601f016020809104026020016040519081016040528092919081815260200182805461165f90614c95565b80156116ac5780601f10611681576101008083540402835291602001916116ac565b820191906000526020600020905b81548152906001019060200180831161168f57829003601f168201915b505050505081526020016002820180546116c590614c95565b80601f01602080910402602001604051908101604052809291908181526020018280546116f190614c95565b801561173e5780601f106117135761010080835404028352916020019161173e565b820191906000526020600020905b81548152906001019060200180831161172157829003601f168201915b505050918352505060038281015460208301526004830154604083015260058301546060830152600683015460809092019160ff169081111561179157634e487b7160e01b600052602160045260246000fd5b60038111156117b057634e487b7160e01b600052602160045260246000fd5b81526006919091015461010090046001600160a01b031660209091015283518490869081106117ef57634e487b7160e01b600052603260045260246000fd5b6020026020010181905250838061180590614cd0565b945050505b8061181481614cd0565b91505061152b565b50935050505090565b6000806000838152600b602052604090206006015460ff16600381111561185c57634e487b7160e01b600052602160045260246000fd5b14156119035760005b600a548110156118e15782600a828154811061189157634e487b7160e01b600052603260045260246000fd5b906000526020600020015414156118cf57600a81815481106118c357634e487b7160e01b600052603260045260246000fd5b60009182526020822001555b806118d981614cd0565b915050611865565b506000828152600b60205260409020600601805460ff191660031790556119ff565b60016000838152600b602052604090206006015460ff16600381111561193957634e487b7160e01b600052602160045260246000fd5b14156119575760405162461bcd60e51b815260040161025c90614b6a565b60026000838152600b602052604090206006015460ff16600381111561198d57634e487b7160e01b600052602160045260246000fd5b14156119ab5760405162461bcd60e51b815260040161025c906149af565b60036000838152600b602052604090206006015460ff1660038111156119e157634e487b7160e01b600052602160045260246000fd5b14156119ff5760405162461bcd60e51b815260040161025c90614314565b506003919050565b6000546001600160a01b031690565b6060600280546107f890614c95565b6060600a80548060200260200160405190810160405280929190818152602001828054801561087157602002820191906000526020600020905b815481526020019060010190808311611a5f575050505050905090565b600080610b4483611163565b600a5460609060009067ffffffffffffffff811115611ab757634e487b7160e01b600052604160045260246000fd5b604051908082528060200260200182016040528015611af057816020015b611add6137e4565b815260200190600190039081611ad55790505b50905060005b600a54811015611dcc576000600a8281548110611b2357634e487b7160e01b600052603260045260246000fd5b90600052602060002001549050600b600082815260200190815260200160002060405180610100016040529081600082018054611b5f90614c95565b80601f0160208091040260200160405190810160405280929190818152602001828054611b8b90614c95565b8015611bd85780601f10611bad57610100808354040283529160200191611bd8565b820191906000526020600020905b815481529060010190602001808311611bbb57829003601f168201915b50505050508152602001600182018054611bf190614c95565b80601f0160208091040260200160405190810160405280929190818152602001828054611c1d90614c95565b8015611c6a5780601f10611c3f57610100808354040283529160200191611c6a565b820191906000526020600020905b815481529060010190602001808311611c4d57829003601f168201915b50505050508152602001600282018054611c8390614c95565b80601f0160208091040260200160405190810160405280929190818152602001828054611caf90614c95565b8015611cfc5780601f10611cd157610100808354040283529160200191611cfc565b820191906000526020600020905b815481529060010190602001808311611cdf57829003601f168201915b505050918352505060038281015460208301526004830154604083015260058301546060830152600683015460809092019160ff1690811115611d4f57634e487b7160e01b600052602160045260246000fd5b6003811115611d6e57634e487b7160e01b600052602160045260246000fd5b81526006919091015461010090046001600160a01b03166020909101528351849084908110611dad57634e487b7160e01b600052603260045260246000fd5b6020026020010181905250508080611dc490614cd0565b915050611af6565b50905090565b611dda6130c1565b6001600160a01b0316826001600160a01b03161415611e0b5760405162461bcd60e51b815260040161025c9061426b565b8060066000611e186130c1565b6001600160a01b03908116825260208083019390935260409182016000908120918716808252919093529120805460ff191692151592909217909155611e5c6130c1565b6001600160a01b03167f17307eab39ab6107e8899845ad3d59bd9653f200f220920489ca2b5937696c3183604051611e949190614062565b60405180910390a35050565b6000818152600e60209081526040808320546001600160a01b0316808452600f90925290912080546060929190611ed690614c95565b80601f0160208091040260200160405190810160405280929190818152602001828054611f0290614c95565b8015611f4f5780601f10611f2457610100808354040283529160200191611f4f565b820191906000526020600020905b815481529060010190602001808311611f3257829003601f168201915b5050505050915050919050565b600b60205260009081526040902080548190611f7790614c95565b80601f0160208091040260200160405190810160405280929190818152602001828054611fa390614c95565b8015611ff05780601f10611fc557610100808354040283529160200191611ff0565b820191906000526020600020905b815481529060010190602001808311611fd357829003601f168201915b50505050509080600101805461200590614c95565b80601f016020809104026020016040519081016040528092919081815260200182805461203190614c95565b801561207e5780601f106120535761010080835404028352916020019161207e565b820191906000526020600020905b81548152906001019060200180831161206157829003601f168201915b50505050509080600201805461209390614c95565b80601f01602080910402602001604051908101604052809291908181526020018280546120bf90614c95565b801561210c5780601f106120e15761010080835404028352916020019161210c565b820191906000526020600020905b8154815290600101906020018083116120ef57829003601f168201915b505050506003830154600484015460058501546006909501549394919390925060ff81169061010090046001600160a01b031688565b6060600061215060086132e6565b90506000805b828110156121ae5733600e600061216e846001614c26565b81526020810191909152604001600020546001600160a01b0316141561219c578161219881614cd0565b9250505b806121a681614cd0565b915050612156565b506000808267ffffffffffffffff8111156121d957634e487b7160e01b600052604160045260246000fd5b60405190808252806020026020018201604052801561221257816020015b6121ff6137e4565b8152602001906001900390816121f75790505b50905060005b8481101561181c5733600e6000612230846001614c26565b81526020810191909152604001600020546001600160a01b031614156124f757600061225d826001614c26565b9050600b60008281526020019081526020016000206040518061010001604052908160008201805461228e90614c95565b80601f01602080910402602001604051908101604052809291908181526020018280546122ba90614c95565b80156123075780601f106122dc57610100808354040283529160200191612307565b820191906000526020600020905b8154815290600101906020018083116122ea57829003601f168201915b5050505050815260200160018201805461232090614c95565b80601f016020809104026020016040519081016040528092919081815260200182805461234c90614c95565b80156123995780601f1061236e57610100808354040283529160200191612399565b820191906000526020600020905b81548152906001019060200180831161237c57829003601f168201915b505050505081526020016002820180546123b290614c95565b80601f01602080910402602001604051908101604052809291908181526020018280546123de90614c95565b801561242b5780601f106124005761010080835404028352916020019161242b565b820191906000526020600020905b81548152906001019060200180831161240e57829003601f168201915b505050918352505060038281015460208301526004830154604083015260058301546060830152600683015460809092019160ff169081111561247e57634e487b7160e01b600052602160045260246000fd5b600381111561249d57634e487b7160e01b600052602160045260246000fd5b81526006919091015461010090046001600160a01b031660209091015283518490869081106124dc57634e487b7160e01b600052603260045260246000fd5b602002602001018190525083806124f290614cd0565b945050505b8061250181614cd0565b915050612218565b6000818152600e602052604081205482906001600160a01b031633146125415760405162461bcd60e51b815260040161025c90614588565b8261254c3382613133565b6125685760405162461bcd60e51b815260040161025c9061462b565b6000818152600b602052604090206006015460ff16600381111561259c57634e487b7160e01b600052602160045260246000fd5b6002146125bb5760405162461bcd60e51b815260040161025c90614adf565b6000848152600b60205260408082206006015460095491516371d4ed8d60e11b81526101009091046001600160a01b039081169392169063e3a9db1a90612606908590600401613f54565b60206040518083038186803b15801561261e57600080fd5b505afa158015612632573d6000803e3d6000fd5b505050506040513d601f19601f820116820180604052508101906126569190613c99565b6009546000888152600b602052604090819020600490810154915163f3fef3a360e01b81529394506001600160a01b039092169263f3fef3a39261269e928792909101613f68565b600060405180830381600087803b1580156126b857600080fd5b505af11580156126cc573d6000803e3d6000fd5b5050506000878152600e6020908152604080832080546001600160a01b03191690558051808301808352848252338552600f9093529220915161270f9350613760565b506000868152600b602090815260408083206006018054600360ff1990911617610100600160a81b03191633610100810291909117909155600d90925290912080546001600160a01b0319811683179091556001600160a01b03169061277790829089610b66565b60405133906001600160a01b0383169089907f86ff2a738e00d7cf2613e4bd44ae641e080a2877f978be45ac950525d26d04c590600090a460405133906001600160a01b0383169089907ffc99b02f822d46feedca53aafaa97c596bf87bb34925d350b64a13275388de4a90600090a460405182906001600160a01b038316907f033e0f8c9aa8fcdd1b01ad637814ecdb49b6ddc7445f13555d21b3c2959b5d1f90600090a35095945050505050565b6128386128326130c1565b83613133565b6128545760405162461bcd60e51b815260040161025c90614a8e565b6128608484848461345d565b50505050565b60008082116128875760405162461bcd60e51b815260040161025c90614364565b61289160086132dd565b600061289d60086132e6565b90506128a933826132ea565b6128b3818c6133c9565b6040518061010001604052808b8b8080601f016020809104026020016040519081016040528093929190818152602001838380828437600092019190915250505090825250604080516020601f8c018190048102820181019092528a815291810191908b908b9081908401838280828437600092019190915250505090825250604080516020601f8a018190048102820181019092528881529181019190899089908190840183828082843760009201829052509385525050506020820187905260408201869052606082018490526080909101908152336020918201526000838152600b8252604090208251805191926129b392849290910190613760565b5060208281015180516129cc9260018501920190613760565b50604082015180516129e8916002840191602090910190613760565b50606082015181600301556080820151816004015560a0820151816005015560c08201518160060160006101000a81548160ff02191690836003811115612a3f57634e487b7160e01b600052602160045260246000fd5b021790555060e09190910151600690910180546001600160a01b0390921661010002610100600160a81b03199092169190911790556000818152600d6020908152604080832080546001600160a01b03191633179055600a80546001810182559084527fc65a7bb8d6351c1cf70c95a316cc6a92839c986682d98bc35f958f4883f9d2a80184905551612ad8918d918d91899101613e59565b60408051601f1981840301815282825280516020918201206000868152600c9092529190208190559150612b0f908c908c90613e49565b60405190819003812090339084907f762f1a2f7e87bdc2ebbbeb92df2d742317f8e1353aafc0c70b060981e72271f490600090a4509a9950505050505050505050565b600a8181548110612b6257600080fd5b600091825260209091200154905081565b6060612b7e826130a4565b612b9a5760405162461bcd60e51b815260040161025c906146b0565b60008281526007602052604081208054612bb390614c95565b80601f0160208091040260200160405190810160405280929190818152602001828054612bdf90614c95565b8015612c2c5780601f10612c0157610100808354040283529160200191612c2c565b820191906000526020600020905b815481529060010190602001808311612c0f57829003601f168201915b505050505090506000612c3d613490565b9050805160001415612c51575090506107e4565b815115612c83578082604051602001612c6b929190613e8a565b604051602081830303815290604052925050506107e4565b612c8c846134a2565b949350505050565b600080600960009054906101000a90046001600160a01b03166001600160a01b0316638da5cb5b6040518163ffffffff1660e01b815260040160206040518083038186803b158015612ce557600080fd5b505afa158015612cf9573d6000803e3d6000fd5b505050506040513d601f19601f82011682018060405250810190612d1d919061394f565b91505090565b6000838152600d602052604090205460609084906001600160a01b03163314612d5e5760405162461bcd60e51b815260040161025c90614701565b6000858152600b60205260409081902060049081015460095492516371d4ed8d60e11b8152889391926001600160a01b039092169163e3a9db1a91612da591339101613f54565b60206040518083038186803b158015612dbd57600080fd5b505afa158015612dd1573d6000803e3d6000fd5b505050506040513d601f19601f82011682018060405250810190612df59190613c99565b1015612e135760405162461bcd60e51b815260040161025c906147aa565b6000818152600b602052604090206006015460ff166003811115612e4757634e487b7160e01b600052602160045260246000fd5b600114612e665760405162461bcd60e51b815260040161025c90614540565b6000868152600e60209081526040808320546001600160a01b0316808452600f8352928190209051612e989201613eb9565b604051602081830303815290604052805190602001208686604051602001612ec1929190613e49565b6040516020818303038152906040528051906020012014612ef45760405162461bcd60e51b815260040161025c90614911565b6000878152600b60205260409020600601805460ff19166002179055612f1a81886108be565b6000878152600e6020526040908190205490516001600160a01b0390911690612f469088908890613e49565b6040519081900381209089907f39fd051deea672a32743d0c813cc2c161b3dacddbff9e2415abc2acbf2e088fb90600090a485858080601f016020809104026020016040519081016040528093929190818152602001838380828437600092019190915250929a9950505050505050505050565b6001600160a01b0380831660009081526006602090815260408083209385168352929052205460ff165b92915050565b600e602052600090815260409020546001600160a01b031681565b61300d6130c1565b6001600160a01b031661301e611a07565b6001600160a01b0316146130445760405162461bcd60e51b815260040161025c906147fe565b6001600160a01b03811661306a5760405162461bcd60e51b815260040161025c906141aa565b6130738161340d565b50565b6000908152600b602052604090206004015490565b6001600160e01b031981166301ffc9a760e01b14919050565b6000908152600360205260409020546001600160a01b0316151590565b3390565b600081815260056020526040902080546001600160a01b0319166001600160a01b03841690811790915581906130fa8261112e565b6001600160a01b03167f8c5be1e5ebec7d5bd14f71427d1e84f3dd0314c0f7b2291e5b200ac8c7c3b92560405160405180910390a45050565b600061313e826130a4565b61315a5760405162461bcd60e51b815260040161025c906143b6565b60006131658361112e565b9050806001600160a01b0316846001600160a01b031614806131a05750836001600160a01b03166131958461087b565b6001600160a01b0316145b80612c8c5750612c8c8185612fba565b826001600160a01b03166131c38261112e565b6001600160a01b0316146131e95760405162461bcd60e51b815260040161025c90614879565b6001600160a01b03821661320f5760405162461bcd60e51b815260040161025c90614227565b61321a838383610951565b6132256000826130c5565b6001600160a01b038316600090815260046020526040812080546001929061324e908490614c52565b90915550506001600160a01b038216600090815260046020526040812080546001929061327c908490614c26565b909155505060008181526003602052604080822080546001600160a01b0319166001600160a01b0386811691821790925591518493918716917fddf252ad1be2c89b69c2b068fc378daa952ba7f163c4a11628f55a4df523b3ef91a4505050565b80546001019055565b5490565b6001600160a01b0382166133105760405162461bcd60e51b815260040161025c9061467b565b613319816130a4565b156133365760405162461bcd60e51b815260040161025c906141f0565b61334260008383610951565b6001600160a01b038216600090815260046020526040812080546001929061336b908490614c26565b909155505060008181526003602052604080822080546001600160a01b0319166001600160a01b03861690811790915590518392907fddf252ad1be2c89b69c2b068fc378daa952ba7f163c4a11628f55a4df523b3ef908290a45050565b6133d2826130a4565b6133ee5760405162461bcd60e51b815260040161025c906144f2565b6000828152600760209081526040909120825161095192840190613760565b600080546001600160a01b038381166001600160a01b0319831681178455604051919092169283917f8be0079c531659141344cd1fd0a4f28419497f9722a3daafe3b4186f6b6457e09190a35050565b6134688484846131b0565b61347484848484613524565b6128605760405162461bcd60e51b815260040161025c90614158565b60408051602081019091526000815290565b60606134ad826130a4565b6134c95760405162461bcd60e51b815260040161025c906148c2565b60006134d3613490565b905060008151116134f35760405180602001604052806000815250610b44565b806134fd8461363f565b60405160200161350e929190613e8a565b6040516020818303038152906040529392505050565b6000613538846001600160a01b031661375a565b1561363457836001600160a01b031663150b7a026135546130c1565b8786866040518563ffffffff1660e01b81526004016135769493929190613f81565b602060405180830381600087803b15801561359057600080fd5b505af19250505080156135c0575060408051601f3d908101601f191682019092526135bd91810190613ad8565b60015b61361a573d8080156135ee576040519150601f19603f3d011682016040523d82523d6000602084013e6135f3565b606091505b5080516136125760405162461bcd60e51b815260040161025c90614158565b805181602001fd5b6001600160e01b031916630a85bd0160e11b149050612c8c565b506001949350505050565b60608161366457506040805180820190915260018152600360fc1b60208201526107e4565b8160005b811561368e578061367881614cd0565b91506136879050600a83614c3e565b9150613668565b60008167ffffffffffffffff8111156136b757634e487b7160e01b600052604160045260246000fd5b6040519080825280601f01601f1916602001820160405280156136e1576020820181803683370190505b5090505b8415612c8c576136f6600183614c52565b9150613703600a86614ceb565b61370e906030614c26565b60f81b81838151811061373157634e487b7160e01b600052603260045260246000fd5b60200101906001600160f81b031916908160001a905350613753600a86614c3e565b94506136e5565b3b151590565b82805461376c90614c95565b90600052602060002090601f01602090048101928261378e57600085556137d4565b82601f106137a757805160ff19168380011785556137d4565b828001600101855582156137d4579182015b828111156137d45782518255916020019190600101906137b9565b506137e0929150613848565b5090565b6040518061010001604052806060815260200160608152602001606081526020016000815260200160008152602001600081526020016000600381111561383b57634e487b7160e01b600052602160045260246000fd5b8152600060209091015290565b5b808211156137e05760008155600101613849565b600067ffffffffffffffff8084111561387857613878614d2b565b604051601f8501601f19168101602001828111828210171561389c5761389c614d2b565b6040528481529150818385018610156138b457600080fd5b8484602083013760006020868301015250509392505050565b60008083601f8401126138de578182fd5b50813567ffffffffffffffff8111156138f5578182fd5b60208301915083602082850101111561390d57600080fd5b9250929050565b600082601f830112613924578081fd5b610b448383356020850161385d565b600060208284031215613944578081fd5b8135610b4481614d41565b600060208284031215613960578081fd5b8151610b4481614d41565b6000806040838503121561397d578081fd5b823561398881614d41565b9150602083013561399881614d41565b809150509250929050565b6000806000606084860312156139b7578081fd5b83356139c281614d41565b925060208401356139d281614d41565b929592945050506040919091013590565b600080600080608085870312156139f8578081fd5b8435613a0381614d41565b93506020850135613a1381614d41565b925060408501359150606085013567ffffffffffffffff811115613a35578182fd5b8501601f81018713613a45578182fd5b613a548782356020840161385d565b91505092959194509250565b60008060408385031215613a72578182fd5b8235613a7d81614d41565b915060208301358015158114613998578182fd5b60008060408385031215613aa3578182fd5b8235613aae81614d41565b946020939093013593505050565b600060208284031215613acd578081fd5b8135610b4481614d56565b600060208284031215613ae9578081fd5b8151610b4481614d56565b60008060008060008060008060a0898b031215613b0f578384fd5b883567ffffffffffffffff80821115613b26578586fd5b613b328c838d01613914565b995060208b0135915080821115613b47578586fd5b613b538c838d016138cd565b909950975060408b0135915080821115613b6b578586fd5b613b778c838d016138cd565b909750955060608b0135915080821115613b8f578485fd5b50613b9c8b828c016138cd565b999c989b50969995989497949560800135949350505050565b600080600080600080600080600060c08a8c031215613bd2578283fd5b893567ffffffffffffffff80821115613be9578485fd5b613bf58d838e01613914565b9a5060208c0135915080821115613c0a578485fd5b613c168d838e016138cd565b909a50985060408c0135915080821115613c2e578485fd5b613c3a8d838e016138cd565b909850965060608c0135915080821115613c52578485fd5b50613c5f8c828d016138cd565b9a9d999c50979a96999598959660808101359660a09091013595509350505050565b600060208284031215613c92578081fd5b5035919050565b600060208284031215613caa578081fd5b5051919050565b600080600060408486031215613cc5578081fd5b83359250602084013567ffffffffffffffff811115613ce2578182fd5b613cee868287016138cd565b9497909650939450505050565b60008060408385031215613d0d578182fd5b82359150602083013567ffffffffffffffff811115613d2a578182fd5b613d3685828601613914565b9150509250929050565b60008060408385031215613d52578182fd5b50508035926020909101359150565b60008151808452613d79816020860160208601614c69565b601f01601f19169290920160200192915050565b60048110613dab57634e487b7160e01b600052602160045260246000fd5b9052565b60006101008251818552613dc582860182613d61565b91505060208301518482036020860152613ddf8282613d61565b91505060408301518482036040860152613df98282613d61565b915050606083015160608501526080830151608085015260a083015160a085015260c0830151613e2c60c0860182613d8d565b5060e0928301516001600160a01b03169390920192909252919050565b6000828483379101908152919050565b60008385833750909101908152602001919050565b60008251613e80818460208701614c69565b9190910192915050565b60008351613e9c818460208801614c69565b835190830190613eb0818360208801614c69565b01949350505050565b8154600090819060028104600180831680613ed557607f831692505b6020808410821415613ef557634e487b7160e01b87526022600452602487fd5b818015613f095760018114613f1a57613f46565b60ff19861689528489019650613f46565b613f238a614c1a565b885b86811015613f3e5781548b820152908501908301613f25565b505084890196505b509498975050505050505050565b6001600160a01b0391909116815260200190565b6001600160a01b03929092168252602082015260400190565b6001600160a01b0385811682528416602082015260408101839052608060608201819052600090613fb490830184613d61565b9695505050505050565b6000602080830181845280855180835260408601915060408482028701019250838701855b8281101561401157603f19888603018452613fff858351613daf565b94509285019290850190600101613fe3565b5092979650505050505050565b6020808252825182820181905260009190848201906040850190845b818110156140565783518352928401929184019160010161403a565b50909695505050505050565b901515815260200190565b60208101612fe48284613d8d565b600060208252610b446020830184613d61565b60006101008083526140a28184018c613d61565b905082810360208401526140b6818b613d61565b905082810360408401526140ca818a613d61565b9150508660608301528560808301528460a08301526140ec60c0830185613d8d565b6001600160a01b039290921660e09190910152979650505050505050565b6020808252602e908201527f5061796d656e7420616d6f756e74206d7573742065786163746c79206d61746360408201526d68206c697374656420707269636560901b606082015260800190565b60208082526032908201527f4552433732313a207472616e7366657220746f206e6f6e20455243373231526560408201527131b2b4bb32b91034b6b83632b6b2b73a32b960711b606082015260800190565b60208082526026908201527f4f776e61626c653a206e6577206f776e657220697320746865207a65726f206160408201526564647265737360d01b606082015260800190565b6020808252601c908201527f4552433732313a20746f6b656e20616c7265616479206d696e74656400000000604082015260600190565b60208082526024908201527f4552433732313a207472616e7366657220746f20746865207a65726f206164646040820152637265737360e01b606082015260800190565b60208082526019908201527f4552433732313a20617070726f766520746f2063616c6c657200000000000000604082015260600190565b6020808252604c908201527f506c6561736520646f206e6f742073656e64207468697320636f6e747261637460408201527f2066756e6473206f722063616c6c20612066756e6374696f6e2074686174206460608201526b1bd95cdb89dd08195e1a5cdd60a21b608082015260a00190565b60208082526030908201527f486f726e20697320616c7265616479206d61726b6564206173206f776e65642060408201526f616e64206e6f7420666f722073616c6560801b606082015260800190565b60208082526032908201527f596f757220486f726e2069732076616c7561626c6520616e642063616e6e6f7460408201527120626520736f6c6420666f7220667265652160701b606082015260800190565b6020808252602c908201527f4552433732313a206f70657261746f7220717565727920666f72206e6f6e657860408201526b34b9ba32b73a103a37b5b2b760a11b606082015260800190565b60208082526038908201527f4552433732313a20617070726f76652063616c6c6572206973206e6f74206f7760408201527f6e6572206e6f7220617070726f76656420666f7220616c6c0000000000000000606082015260800190565b6020808252602a908201527f4552433732313a2062616c616e636520717565727920666f7220746865207a65604082015269726f206164647265737360b01b606082015260800190565b60208082526029908201527f4552433732313a206f776e657220717565727920666f72206e6f6e657869737460408201526832b73a103a37b5b2b760b91b606082015260800190565b6020808252602e908201527f45524337323155524953746f726167653a2055524920736574206f66206e6f6e60408201526d32bc34b9ba32b73a103a37b5b2b760911b606082015260800190565b60208082526028908201527f486f726e20686173206e6f74206265656e206d61726b6564206173207061696460408201526708199bdc881e595d60c21b606082015260800190565b602080825260409082018190527f546869732066756e6374696f6e206d6179206f6e6c792062652063616c6c6564908201527f20627920612062757965722077686f2068617320616c72656164792070616964606082015260800190565b60208082526025908201527f486f726e206973206e6f742063757272656e746c79206c697374656420666f726040820152642073616c6560d81b606082015260800190565b60208082526030908201527f596f75206d75737420666972737420626520617070726f76656420627920637560408201526f393932b73a103437b9371037bbb732b960811b606082015260800190565b6020808252818101527f4552433732313a206d696e7420746f20746865207a65726f2061646472657373604082015260600190565b60208082526031908201527f45524337323155524953746f726167653a2055524920717565727920666f72206040820152703737b732bc34b9ba32b73a103a37b5b2b760791b606082015260800190565b60208082526038908201527f546869732066756e6374696f6e206d6179206f6e6c792062652063616c6c656460408201527f2062792074686520686f726e204e46542773206f776e65720000000000000000606082015260800190565b6020808252602c908201527f4552433732313a20617070726f76656420717565727920666f72206e6f6e657860408201526b34b9ba32b73a103a37b5b2b760a11b606082015260800190565b60208082526034908201527f4275796572206d7573742073656e64207061796d656e7420666f7220486f726e60408201527308139195081d1bc8195cd8dc9bddc8199a5c9cdd60621b606082015260800190565b6020808252818101527f4f776e61626c653a2063616c6c6572206973206e6f7420746865206f776e6572604082015260600190565b60208082526026908201527f486f726e204e4654206d75737420657869737420616e642063616e6e6f74206260408201526565206672656560d01b606082015260800190565b60208082526029908201527f4552433732313a207472616e73666572206f6620746f6b656e2074686174206960408201526839903737ba1037bbb760b91b606082015260800190565b6020808252602f908201527f4552433732314d657461646174613a2055524920717565727920666f72206e6f60408201526e3732bc34b9ba32b73a103a37b5b2b760891b606082015260800190565b6020808252603a908201527f4164647265737320676976656e20646f6573206e6f74206d617463682074686560408201527f206f6e65206f6e2066696c6520666f7220746865206275796572000000000000606082015260800190565b60208082526021908201527f4552433732313a20617070726f76616c20746f2063757272656e74206f776e656040820152603960f91b606082015260800190565b602080825260a6908201527f486f726e2068617320616c7265616479206265656e207368697070656420616e60408201527f64206e6f206c6f6e676572207175616c696669657320666f722061207265667560608201527f6e642c20706c6561736520636f6d706c657465207468652065786368616e676560808201527f20616e64207265646f207468652065786368616e676520696e2072657665727360a08201527f6520696620796f75207769736820746f20737769746368206261636b206f776e60c08201526506572736869760d41b60e08201526101000190565b60208082526031908201527f4552433732313a207472616e736665722063616c6c6572206973206e6f74206f6040820152701ddb995c881b9bdc88185c1c1c9bdd9959607a1b606082015260800190565b60208082526027908201527f486f726e20686173206e6f74206265656e206d61726b656420617320736869706040820152661c1959081e595d60ca1b606082015260800190565b60208082526024908201527f596f757220486f726e20697320616c7265616479206c697374656420666f722060408201526373616c6560e01b606082015260800190565b60208082526068908201527f486f726e2068617320616c7265616479206265656e207075726368617365642060408201527f616e64207061696420666f72206279206120627579657220616e64206f6e2d6360608201527f6861696e20726566756e647320617265206e6f742063757272656e746c7920736080820152671d5c1c1bdc9d195960c21b60a082015260c00190565b600060208252610b446020830184613daf565b90815260200190565b60009081526020902090565b60008219821115614c3957614c39614cff565b500190565b600082614c4d57614c4d614d15565b500490565b600082821015614c6457614c64614cff565b500390565b60005b83811015614c84578181015183820152602001614c6c565b838111156128605750506000910152565b600281046001821680614ca957607f821691505b60208210811415614cca57634e487b7160e01b600052602260045260246000fd5b50919050565b6000600019821415614ce457614ce4614cff565b5060010190565b600082614cfa57614cfa614d15565b500690565b634e487b7160e01b600052601160045260246000fd5b634e487b7160e01b600052601260045260246000fd5b634e487b7160e01b600052604160045260246000fd5b6001600160a01b038116811461307357600080fd5b6001600160e01b03198116811461307357600080fdfea2646970667358221220574ef2137158fb40c37ee14a68cacf8a7cbc60e24584a2da6d3f3234aa5128fb64736f6c63430008000033608060405234801561001057600080fd5b5061002161001c610026565b61002a565b61007a565b3390565b600080546001600160a01b038381166001600160a01b0319831681178455604051919092169283917f8be0079c531659141344cd1fd0a4f28419497f9722a3daafe3b4186f6b6457e09190a35050565b61068a806100896000396000f3fe6080604052600436106100555760003560e01c8063715018a61461005a5780638da5cb5b14610071578063e3a9db1a1461009c578063f2fde38b146100c9578063f340fa01146100e9578063f3fef3a3146100fc575b600080fd5b34801561006657600080fd5b5061006f61011c565b005b34801561007d57600080fd5b50610086610170565b60405161009391906104ce565b60405180910390f35b3480156100a857600080fd5b506100bc6100b736600461047d565b61017f565b60405161009391906105f1565b3480156100d557600080fd5b5061006f6100e436600461047d565b61019a565b61006f6100f736600461047d565b61020b565b34801561010857600080fd5b5061006f6101173660046104a0565b6102c0565b610124610388565b6001600160a01b0316610135610170565b6001600160a01b0316146101645760405162461bcd60e51b815260040161015b906105bc565b60405180910390fd5b61016e600061038c565b565b6000546001600160a01b031690565b6001600160a01b031660009081526001602052604090205490565b6101a2610388565b6001600160a01b03166101b3610170565b6001600160a01b0316146101d95760405162461bcd60e51b815260040161015b906105bc565b6001600160a01b0381166101ff5760405162461bcd60e51b815260040161015b906104e2565b6102088161038c565b50565b610213610388565b6001600160a01b0316610224610170565b6001600160a01b03161461024a5760405162461bcd60e51b815260040161015b906105bc565b6001600160a01b0381166000908152600160205260408120805434928392916102749084906105fa565b92505081905550816001600160a01b03167f2da466a7b24304f47e87fa2e1e5a81b9831ce54fec19055ce277ca2f39ba42c4826040516102b491906105f1565b60405180910390a25050565b6102c8610388565b6001600160a01b03166102d9610170565b6001600160a01b0316146102ff5760405162461bcd60e51b815260040161015b906105bc565b6001600160a01b038216600090815260016020526040812080548392839291610329908490610612565b9091555061034290506001600160a01b038416826103dc565b826001600160a01b03167f7084f5476618d8e60b11ef0d7d3f06914655adb8793e28ff7f018d4c76d505d58260405161037b91906105f1565b60405180910390a2505050565b3390565b600080546001600160a01b038381166001600160a01b0319831681178455604051919092169283917f8be0079c531659141344cd1fd0a4f28419497f9722a3daafe3b4186f6b6457e09190a35050565b804710156103fc5760405162461bcd60e51b815260040161015b90610585565b6000826001600160a01b031682604051610415906104cb565b60006040518083038185875af1925050503d8060008114610452576040519150601f19603f3d011682016040523d82523d6000602084013e610457565b606091505b50509050806104785760405162461bcd60e51b815260040161015b90610528565b505050565b60006020828403121561048e578081fd5b81356104998161063f565b9392505050565b600080604083850312156104b2578081fd5b82356104bd8161063f565b946020939093013593505050565b90565b6001600160a01b0391909116815260200190565b60208082526026908201527f4f776e61626c653a206e6577206f776e657220697320746865207a65726f206160408201526564647265737360d01b606082015260800190565b6020808252603a908201527f416464726573733a20756e61626c6520746f2073656e642076616c75652c207260408201527f6563697069656e74206d61792068617665207265766572746564000000000000606082015260800190565b6020808252601d908201527f416464726573733a20696e73756666696369656e742062616c616e6365000000604082015260600190565b6020808252818101527f4f776e61626c653a2063616c6c6572206973206e6f7420746865206f776e6572604082015260600190565b90815260200190565b6000821982111561060d5761060d610629565b500190565b60008282101561062457610624610629565b500390565b634e487b7160e01b600052601160045260246000fd5b6001600160a01b038116811461020857600080fdfea26469706673582212208a96f2cb85741bd40e1b1ee7bbaedd233f6f9cdfde2bfb9ee374a8201816935264736f6c63430008000033",
  "linkReferences": {},
  "deployedLinkReferences": {}
}