{
  "_format": "hh-sol-artifact-1",
  "contractName": "Helpers",
  "sourceName": "contracts/Helpers.sol",
  "abi": [
    {
      "anonymous": false,
      "inputs": [
        {
          "indexed": true,
          "internalType": "address",
          "name": "owner",
          "type": "address"
        },
        {
          "indexed": true,
          "internalType": "address",
          "name": "approved",
          "type": "address"
        },
        {
          "indexed": true,
          "internalType": "uint256",
          "name": "tokenId",
          "type": "uint256"
        }
      ],
      "name": "Approval",
      "type": "event"
    },
    {
      "anonymous": false,
      "inputs": [
        {
          "indexed": true,
          "internalType": "address",
          "name": "owner",
          "type": "address"
        },
        {
          "indexed": true,
          "internalType": "address",
          "name": "operator",
          "type": "address"
        },
        {
          "indexed": false,
          "internalType": "bool",
          "name": "approved",
          "type": "bool"
        }
      ],
      "name": "ApprovalForAll",
      "type": "event"
    },
    {
      "anonymous": false,
      "inputs": [
        {
          "indexed": true,
          "internalType": "address",
          "name": "payee",
          "type": "address"
        },
        {
          "indexed": true,
          "internalType": "uint256",
          "name": "amountInWei",
          "type": "uint256"
        }
      ],
      "name": "DepositedToEscrow",
      "type": "event"
    },
    {
      "anonymous": false,
      "inputs": [
        {
          "indexed": true,
          "internalType": "uint256",
          "name": "hornId",
          "type": "uint256"
        },
        {
          "indexed": true,
          "internalType": "address",
          "name": "from",
          "type": "address"
        },
        {
          "indexed": true,
          "internalType": "address",
          "name": "to",
          "type": "address"
        }
      ],
      "name": "HornDeliveredAndNFTOwnershipTransferred",
      "type": "event"
    },
    {
      "anonymous": false,
      "inputs": [
        {
          "indexed": true,
          "internalType": "uint256",
          "name": "hornId",
          "type": "uint256"
        },
        {
          "indexed": true,
          "internalType": "address",
          "name": "seller",
          "type": "address"
        },
        {
          "indexed": true,
          "internalType": "string",
          "name": "make",
          "type": "string"
        }
      ],
      "name": "HornListedForSale",
      "type": "event"
    },
    {
      "anonymous": false,
      "inputs": [
        {
          "indexed": true,
          "internalType": "uint256",
          "name": "hornId",
          "type": "uint256"
        },
        {
          "indexed": true,
          "internalType": "string",
          "name": "shipTo",
          "type": "string"
        },
        {
          "indexed": true,
          "internalType": "address",
          "name": "buyer",
          "type": "address"
        }
      ],
      "name": "HornPurchased",
      "type": "event"
    },
    {
      "anonymous": false,
      "inputs": [
        {
          "indexed": true,
          "internalType": "uint256",
          "name": "hornId",
          "type": "uint256"
        },
        {
          "indexed": true,
          "internalType": "string",
          "name": "shipTo",
          "type": "string"
        },
        {
          "indexed": true,
          "internalType": "address",
          "name": "to",
          "type": "address"
        }
      ],
      "name": "HornShipped",
      "type": "event"
    },
    {
      "anonymous": false,
      "inputs": [
        {
          "indexed": true,
          "internalType": "uint256",
          "name": "hornId",
          "type": "uint256"
        },
        {
          "indexed": true,
          "internalType": "address",
          "name": "seller",
          "type": "address"
        },
        {
          "indexed": true,
          "internalType": "string",
          "name": "make",
          "type": "string"
        }
      ],
      "name": "NewHornNFTMinted",
      "type": "event"
    },
    {
      "anonymous": false,
      "inputs": [
        {
          "indexed": true,
          "internalType": "address",
          "name": "previousOwner",
          "type": "address"
        },
        {
          "indexed": true,
          "internalType": "address",
          "name": "newOwner",
          "type": "address"
        }
      ],
      "name": "OwnershipTransferred",
      "type": "event"
    },
    {
      "anonymous": false,
      "inputs": [
        {
          "indexed": true,
          "internalType": "uint256",
          "name": "hornId",
          "type": "uint256"
        },
        {
          "indexed": true,
          "internalType": "address",
          "name": "payer",
          "type": "address"
        },
        {
          "indexed": true,
          "internalType": "address",
          "name": "payee",
          "type": "address"
        }
      ],
      "name": "SellerPaid",
      "type": "event"
    },
    {
      "anonymous": false,
      "inputs": [
        {
          "indexed": true,
          "internalType": "address",
          "name": "from",
          "type": "address"
        },
        {
          "indexed": true,
          "internalType": "address",
          "name": "to",
          "type": "address"
        },
        {
          "indexed": true,
          "internalType": "uint256",
          "name": "tokenId",
          "type": "uint256"
        }
      ],
      "name": "Transfer",
      "type": "event"
    },
    {
      "anonymous": false,
      "inputs": [
        {
          "indexed": true,
          "internalType": "address",
          "name": "payee",
          "type": "address"
        },
        {
          "indexed": true,
          "internalType": "uint256",
          "name": "amountInWei",
          "type": "uint256"
        }
      ],
      "name": "WithdrawnFromEscrow",
      "type": "event"
    },
    {
      "stateMutability": "nonpayable",
      "type": "fallback"
    },
    {
      "inputs": [
        {
          "internalType": "address",
          "name": "to",
          "type": "address"
        },
        {
          "internalType": "uint256",
          "name": "tokenId",
          "type": "uint256"
        }
      ],
      "name": "approve",
      "outputs": [],
      "stateMutability": "nonpayable",
      "type": "function"
    },
    {
      "inputs": [
        {
          "internalType": "address",
          "name": "owner",
          "type": "address"
        }
      ],
      "name": "balanceOf",
      "outputs": [
        {
          "internalType": "uint256",
          "name": "",
          "type": "uint256"
        }
      ],
      "stateMutability": "view",
      "type": "function"
    },
    {
      "inputs": [
        {
          "internalType": "uint256",
          "name": "",
          "type": "uint256"
        }
      ],
      "name": "buyers",
      "outputs": [
        {
          "internalType": "address",
          "name": "",
          "type": "address"
        }
      ],
      "stateMutability": "view",
      "type": "function"
    },
    {
      "inputs": [
        {
          "internalType": "uint256",
          "name": "tokenId",
          "type": "uint256"
        }
      ],
      "name": "getApproved",
      "outputs": [
        {
          "internalType": "address",
          "name": "",
          "type": "address"
        }
      ],
      "stateMutability": "view",
      "type": "function"
    },
    {
      "inputs": [
        {
          "internalType": "uint256",
          "name": "_tokenId",
          "type": "uint256"
        }
      ],
      "name": "getApprovedToSpend",
      "outputs": [
        {
          "internalType": "address",
          "name": "",
          "type": "address"
        }
      ],
      "stateMutability": "view",
      "type": "function"
    },
    {
      "inputs": [
        {
          "internalType": "address",
          "name": "_owner",
          "type": "address"
        }
      ],
      "name": "getBalanceOf",
      "outputs": [
        {
          "internalType": "uint256",
          "name": "",
          "type": "uint256"
        }
      ],
      "stateMutability": "view",
      "type": "function"
    },
    {
      "inputs": [],
      "name": "getCurrentHornsForSale",
      "outputs": [
        {
          "internalType": "uint256[]",
          "name": "",
          "type": "uint256[]"
        }
      ],
      "stateMutability": "view",
      "type": "function"
    },
    {
      "inputs": [
        {
          "internalType": "uint256",
          "name": "__hornId",
          "type": "uint256"
        }
      ],
      "name": "getCurrentOwnerByMapping",
      "outputs": [
        {
          "internalType": "address payable",
          "name": "",
          "type": "address"
        }
      ],
      "stateMutability": "view",
      "type": "function"
    },
    {
      "inputs": [
        {
          "internalType": "uint256",
          "name": "__hornId",
          "type": "uint256"
        }
      ],
      "name": "getCurrentOwnerByStructAttribute",
      "outputs": [
        {
          "internalType": "address payable",
          "name": "",
          "type": "address"
        }
      ],
      "stateMutability": "view",
      "type": "function"
    },
    {
      "inputs": [],
      "name": "getCurrentlyListedHorns",
      "outputs": [
        {
          "components": [
            {
              "internalType": "string",
              "name": "make",
              "type": "string"
            },
            {
              "internalType": "string",
              "name": "model",
              "type": "string"
            },
            {
              "internalType": "string",
              "name": "style",
              "type": "string"
            },
            {
              "internalType": "uint256",
              "name": "serialNumber",
              "type": "uint256"
            },
            {
              "internalType": "uint256",
              "name": "listPrice",
              "type": "uint256"
            },
            {
              "internalType": "uint256",
              "name": "tokenId",
              "type": "uint256"
            },
            {
              "internalType": "enum HornMarketplace.HornStatus",
              "name": "status",
              "type": "uint8"
            },
            {
              "internalType": "address payable",
              "name": "currentOwner",
              "type": "address"
            }
          ],
          "internalType": "struct HornMarketplace.Horn[]",
          "name": "",
          "type": "tuple[]"
        }
      ],
      "stateMutability": "view",
      "type": "function"
    },
    {
      "inputs": [],
      "name": "getCurrentlyOwnedHorns",
      "outputs": [
        {
          "components": [
            {
              "internalType": "string",
              "name": "make",
              "type": "string"
            },
            {
              "internalType": "string",
              "name": "model",
              "type": "string"
            },
            {
              "internalType": "string",
              "name": "style",
              "type": "string"
            },
            {
              "internalType": "uint256",
              "name": "serialNumber",
              "type": "uint256"
            },
            {
              "internalType": "uint256",
              "name": "listPrice",
              "type": "uint256"
            },
            {
              "internalType": "uint256",
              "name": "tokenId",
              "type": "uint256"
            },
            {
              "internalType": "enum HornMarketplace.HornStatus",
              "name": "status",
              "type": "uint8"
            },
            {
              "internalType": "address payable",
              "name": "currentOwner",
              "type": "address"
            }
          ],
          "internalType": "struct HornMarketplace.Horn[]",
          "name": "",
          "type": "tuple[]"
        }
      ],
      "stateMutability": "view",
      "type": "function"
    },
    {
      "inputs": [
        {
          "internalType": "address",
          "name": "payee",
          "type": "address"
        }
      ],
      "name": "getEscrowDepositValue",
      "outputs": [
        {
          "internalType": "uint256",
          "name": "",
          "type": "uint256"
        }
      ],
      "stateMutability": "view",
      "type": "function"
    },
    {
      "inputs": [],
      "name": "getEscrowOwner",
      "outputs": [
        {
          "internalType": "address",
          "name": "",
          "type": "address"
        }
      ],
      "stateMutability": "view",
      "type": "function"
    },
    {
      "inputs": [
        {
          "internalType": "uint256",
          "name": "_index",
          "type": "uint256"
        }
      ],
      "name": "getHornById",
      "outputs": [
        {
          "components": [
            {
              "internalType": "string",
              "name": "make",
              "type": "string"
            },
            {
              "internalType": "string",
              "name": "model",
              "type": "string"
            },
            {
              "internalType": "string",
              "name": "style",
              "type": "string"
            },
            {
              "internalType": "uint256",
              "name": "serialNumber",
              "type": "uint256"
            },
            {
              "internalType": "uint256",
              "name": "listPrice",
              "type": "uint256"
            },
            {
              "internalType": "uint256",
              "name": "tokenId",
              "type": "uint256"
            },
            {
              "internalType": "enum HornMarketplace.HornStatus",
              "name": "status",
              "type": "uint8"
            },
            {
              "internalType": "address payable",
              "name": "currentOwner",
              "type": "address"
            }
          ],
          "internalType": "struct HornMarketplace.Horn",
          "name": "",
          "type": "tuple"
        }
      ],
      "stateMutability": "view",
      "type": "function"
    },
    {
      "inputs": [
        {
          "internalType": "uint256",
          "name": "__hornId",
          "type": "uint256"
        }
      ],
      "name": "getListPriceByHornId",
      "outputs": [
        {
          "internalType": "uint256",
          "name": "",
          "type": "uint256"
        }
      ],
      "stateMutability": "view",
      "type": "function"
    },
    {
      "inputs": [
        {
          "internalType": "uint256",
          "name": "__hornId",
          "type": "uint256"
        }
      ],
      "name": "getStatusOfHornByHornId",
      "outputs": [
        {
          "internalType": "enum HornMarketplace.HornStatus",
          "name": "",
          "type": "uint8"
        }
      ],
      "stateMutability": "view",
      "type": "function"
    },
    {
      "inputs": [
        {
          "internalType": "uint256",
          "name": "",
          "type": "uint256"
        }
      ],
      "name": "horns",
      "outputs": [
        {
          "internalType": "string",
          "name": "make",
          "type": "string"
        },
        {
          "internalType": "string",
          "name": "model",
          "type": "string"
        },
        {
          "internalType": "string",
          "name": "style",
          "type": "string"
        },
        {
          "internalType": "uint256",
          "name": "serialNumber",
          "type": "uint256"
        },
        {
          "internalType": "uint256",
          "name": "listPrice",
          "type": "uint256"
        },
        {
          "internalType": "uint256",
          "name": "tokenId",
          "type": "uint256"
        },
        {
          "internalType": "enum HornMarketplace.HornStatus",
          "name": "status",
          "type": "uint8"
        },
        {
          "internalType": "address payable",
          "name": "currentOwner",
          "type": "address"
        }
      ],
      "stateMutability": "view",
      "type": "function"
    },
    {
      "inputs": [
        {
          "internalType": "uint256",
          "name": "",
          "type": "uint256"
        }
      ],
      "name": "hornsForSale",
      "outputs": [
        {
          "internalType": "uint256",
          "name": "",
          "type": "uint256"
        }
      ],
      "stateMutability": "view",
      "type": "function"
    },
    {
      "inputs": [
        {
          "internalType": "address",
          "name": "owner",
          "type": "address"
        },
        {
          "internalType": "address",
          "name": "operator",
          "type": "address"
        }
      ],
      "name": "isApprovedForAll",
      "outputs": [
        {
          "internalType": "bool",
          "name": "",
          "type": "bool"
        }
      ],
      "stateMutability": "view",
      "type": "function"
    },
    {
      "inputs": [
        {
          "internalType": "uint256",
          "name": "__hornId",
          "type": "uint256"
        },
        {
          "internalType": "uint256",
          "name": "_desiredPrice",
          "type": "uint256"
        }
      ],
      "name": "listExistingHornNFT",
      "outputs": [
        {
          "internalType": "uint256",
          "name": "",
          "type": "uint256"
        }
      ],
      "stateMutability": "nonpayable",
      "type": "function"
    },
    {
      "inputs": [
        {
          "internalType": "uint256",
          "name": "__hornId",
          "type": "uint256"
        }
      ],
      "name": "markHornDeliveredAndOwnershipTransferred",
      "outputs": [
        {
          "internalType": "uint256",
          "name": "",
          "type": "uint256"
        }
      ],
      "stateMutability": "nonpayable",
      "type": "function"
    },
    {
      "inputs": [
        {
          "internalType": "uint256",
          "name": "__hornId",
          "type": "uint256"
        },
        {
          "internalType": "string",
          "name": "shippedTo",
          "type": "string"
        }
      ],
      "name": "markHornShipped",
      "outputs": [
        {
          "internalType": "string",
          "name": "",
          "type": "string"
        }
      ],
      "stateMutability": "nonpayable",
      "type": "function"
    },
    {
      "inputs": [
        {
          "internalType": "string",
          "name": "tokenUri",
          "type": "string"
        },
        {
          "internalType": "string",
          "name": "_make",
          "type": "string"
        },
        {
          "internalType": "string",
          "name": "_model",
          "type": "string"
        },
        {
          "internalType": "string",
          "name": "_style",
          "type": "string"
        },
        {
          "internalType": "uint256",
          "name": "_serialNumber",
          "type": "uint256"
        }
      ],
      "name": "mintButDontListNewHornNFT",
      "outputs": [
        {
          "internalType": "uint256",
          "name": "",
          "type": "uint256"
        }
      ],
      "stateMutability": "nonpayable",
      "type": "function"
    },
    {
      "inputs": [
        {
          "internalType": "string",
          "name": "tokenUri",
          "type": "string"
        },
        {
          "internalType": "string",
          "name": "_make",
          "type": "string"
        },
        {
          "internalType": "string",
          "name": "_model",
          "type": "string"
        },
        {
          "internalType": "string",
          "name": "_style",
          "type": "string"
        },
        {
          "internalType": "uint256",
          "name": "_serialNumber",
          "type": "uint256"
        },
        {
          "internalType": "uint256",
          "name": "_desiredPrice",
          "type": "uint256"
        }
      ],
      "name": "mintThenListNewHornNFT",
      "outputs": [
        {
          "internalType": "uint256",
          "name": "",
          "type": "uint256"
        }
      ],
      "stateMutability": "nonpayable",
      "type": "function"
    },
    {
      "inputs": [],
      "name": "name",
      "outputs": [
        {
          "internalType": "string",
          "name": "",
          "type": "string"
        }
      ],
      "stateMutability": "view",
      "type": "function"
    },
    {
      "inputs": [],
      "name": "owner",
      "outputs": [
        {
          "internalType": "address",
          "name": "",
          "type": "address"
        }
      ],
      "stateMutability": "view",
      "type": "function"
    },
    {
      "inputs": [
        {
          "internalType": "uint256",
          "name": "tokenId",
          "type": "uint256"
        }
      ],
      "name": "ownerOf",
      "outputs": [
        {
          "internalType": "address",
          "name": "",
          "type": "address"
        }
      ],
      "stateMutability": "view",
      "type": "function"
    },
    {
      "inputs": [
        {
          "internalType": "uint256",
          "name": "__hornId",
          "type": "uint256"
        },
        {
          "internalType": "string",
          "name": "_shipTo",
          "type": "string"
        }
      ],
      "name": "purchaseHornByHornId",
      "outputs": [],
      "stateMutability": "payable",
      "type": "function"
    },
    {
      "inputs": [],
      "name": "renounceOwnership",
      "outputs": [],
      "stateMutability": "nonpayable",
      "type": "function"
    },
    {
      "inputs": [
        {
          "internalType": "address",
          "name": "from",
          "type": "address"
        },
        {
          "internalType": "address",
          "name": "to",
          "type": "address"
        },
        {
          "internalType": "uint256",
          "name": "tokenId",
          "type": "uint256"
        }
      ],
      "name": "safeTransferFrom",
      "outputs": [],
      "stateMutability": "nonpayable",
      "type": "function"
    },
    {
      "inputs": [
        {
          "internalType": "address",
          "name": "from",
          "type": "address"
        },
        {
          "internalType": "address",
          "name": "to",
          "type": "address"
        },
        {
          "internalType": "uint256",
          "name": "tokenId",
          "type": "uint256"
        },
        {
          "internalType": "bytes",
          "name": "_data",
          "type": "bytes"
        }
      ],
      "name": "safeTransferFrom",
      "outputs": [],
      "stateMutability": "nonpayable",
      "type": "function"
    },
    {
      "inputs": [
        {
          "internalType": "uint256",
          "name": "__hornId",
          "type": "uint256"
        }
      ],
      "name": "sellerInitiateRefundOrSetStatusToOwnedNotForSale",
      "outputs": [
        {
          "internalType": "enum HornMarketplace.HornStatus",
          "name": "",
          "type": "uint8"
        }
      ],
      "stateMutability": "nonpayable",
      "type": "function"
    },
    {
      "inputs": [
        {
          "internalType": "address",
          "name": "operator",
          "type": "address"
        },
        {
          "internalType": "bool",
          "name": "approved",
          "type": "bool"
        }
      ],
      "name": "setApprovalForAll",
      "outputs": [],
      "stateMutability": "nonpayable",
      "type": "function"
    },
    {
      "inputs": [
        {
          "internalType": "address",
          "name": "",
          "type": "address"
        }
      ],
      "name": "shippingAddresses",
      "outputs": [
        {
          "internalType": "string",
          "name": "",
          "type": "string"
        }
      ],
      "stateMutability": "view",
      "type": "function"
    },
    {
      "inputs": [
        {
          "internalType": "bytes4",
          "name": "interfaceId",
          "type": "bytes4"
        }
      ],
      "name": "supportsInterface",
      "outputs": [
        {
          "internalType": "bool",
          "name": "",
          "type": "bool"
        }
      ],
      "stateMutability": "view",
      "type": "function"
    },
    {
      "inputs": [],
      "name": "symbol",
      "outputs": [
        {
          "internalType": "string",
          "name": "",
          "type": "string"
        }
      ],
      "stateMutability": "view",
      "type": "function"
    },
    {
      "inputs": [
        {
          "internalType": "uint256",
          "name": "tokenId",
          "type": "uint256"
        }
      ],
      "name": "tokenURI",
      "outputs": [
        {
          "internalType": "string",
          "name": "",
          "type": "string"
        }
      ],
      "stateMutability": "view",
      "type": "function"
    },
    {
      "inputs": [
        {
          "internalType": "address",
          "name": "from",
          "type": "address"
        },
        {
          "internalType": "address",
          "name": "to",
          "type": "address"
        },
        {
          "internalType": "uint256",
          "name": "tokenId",
          "type": "uint256"
        }
      ],
      "name": "transferFrom",
      "outputs": [],
      "stateMutability": "nonpayable",
      "type": "function"
    },
    {
      "inputs": [
        {
          "internalType": "address",
          "name": "newOwner",
          "type": "address"
        }
      ],
      "name": "transferOwnership",
      "outputs": [],
      "stateMutability": "nonpayable",
      "type": "function"
    },
    {
      "stateMutability": "payable",
      "type": "receive"
    }
  ],
  "bytecode": "0x60806040523480156200001157600080fd5b50604051806040016040528060048152602001632437b93760e11b815250604051806040016040528060048152602001632427a92760e11b8152506200006662000060620000e660201b60201c565b620000ea565b81516200007b9060019060208501906200013a565b508051620000919060029060208401906200013a565b505050604051620000a290620001c9565b604051809103906000f080158015620000bf573d6000803e3d6000fd5b50600980546001600160a01b0319166001600160a01b03929092169190911790556200022b565b3390565b600080546001600160a01b038381166001600160a01b0319831681178455604051919092169283917f8be0079c531659141344cd1fd0a4f28419497f9722a3daafe3b4186f6b6457e09190a35050565b8280546200014890620001ee565b90600052602060002090601f0160209004810192826200016c5760008555620001b7565b82601f106200018757805160ff1916838001178555620001b7565b82800160010185558215620001b7579182015b82811115620001b75782518255916020019190600101906200019a565b50620001c5929150620001d7565b5090565b61069f8062004b7f83390190565b5b80821115620001c55760008155600101620001d8565b6002810460018216806200020357607f821691505b602082108114156200022557634e487b7160e01b600052602260045260246000fd5b50919050565b614944806200023b6000396000f3fe6080604052600436106102345760003560e01c80638007eb481161012e578063b88d4fde116100ab578063cf44981a1161006f578063cf44981a146106e1578063e985e9c514610701578063f2aa821814610721578063f2fde38b14610741578063fd92de01146107615761025a565b8063b88d4fde1461064c578063ba80a2c41461066c578063c0227bbb1461068c578063c87b56dd146106ac578063cce44056146106cc5761025a565b8063a081feb1116100f2578063a081feb1146105a3578063a22cb465146105b8578063b15fca9e146105d8578063b5178ed5146105f8578063b7d002f41461062c5761025a565b80638007eb48146105175780638da5cb5b1461053757806395d89b411461054c57806398960435146105615780639b96eece146105835761025a565b80633a770745116101bc5780636352211e116101805780636352211e1461047357806370a0823114610493578063715018a6146104b357806376cb00ee146104c857806378b5270c146104f55761025a565b80633a770745146103d35780633dda1fca146103e657806342842e0e1461040657806349870e531461042657806362547501146104535761025a565b806311723dc21161020357806311723dc214610326578063125bba371461034657806319df66f4146103735780631c5e1d5e1461039357806323b872dd146103b35761025a565b806301ffc9a71461027f57806306fdde03146102b5578063081812fc146102d7578063095ea7b3146103045761025a565b3661025a5760405162461bcd60e51b815260040161025190613e44565b60405180910390fd5b34801561026657600080fd5b5060405162461bcd60e51b815260040161025190613e44565b34801561028b57600080fd5b5061029f61029a366004613677565b610781565b6040516102ac9190613c04565b60405180910390f35b3480156102c157600080fd5b506102ca6107c9565b6040516102ac9190613c1d565b3480156102e357600080fd5b506102f76102f236600461383c565b61085b565b6040516102ac9190613b0f565b34801561031057600080fd5b5061032461031f36600461364c565b61089e565b005b34801561033257600080fd5b506102f761034136600461383c565b610936565b34801561035257600080fd5b506103666103613660046138fb565b610959565b6040516102ac91906147b3565b34801561037f57600080fd5b5061036661038e3660046134ee565b610a9f565b34801561039f57600080fd5b506102f76103ae36600461383c565b610b2b565b3480156103bf57600080fd5b506103246103ce36600461355e565b610b46565b6103246103e13660046138b6565b610b7e565b3480156103f257600080fd5b506102f761040136600461383c565b610e14565b34801561041257600080fd5b5061032461042136600461355e565b610e20565b34801561043257600080fd5b5061044661044136600461383c565b610e3b565b6040516102ac9190613c0f565b34801561045f57600080fd5b5061036661046e3660046136af565b610e53565b34801561047f57600080fd5b506102f761048e36600461383c565b6110ea565b34801561049f57600080fd5b506103666104ae3660046134ee565b61111f565b3480156104bf57600080fd5b50610324611163565b3480156104d457600080fd5b506104e86104e336600461383c565b6111ae565b6040516102ac91906147a0565b34801561050157600080fd5b5061050a611411565b6040516102ac9190613b60565b34801561052357600080fd5b5061044661053236600461383c565b6117e1565b34801561054357600080fd5b506102f76119c3565b34801561055857600080fd5b506102ca6119d2565b34801561056d57600080fd5b506105766119e1565b6040516102ac9190613bc0565b34801561058f57600080fd5b5061036661059e3660046134ee565b611a38565b3480156105af57600080fd5b5061050a611a44565b3480156105c457600080fd5b506103246105d336600461361b565b611d8e565b3480156105e457600080fd5b506102ca6105f33660046134ee565b611e5c565b34801561060457600080fd5b5061061861061336600461383c565b611ef6565b6040516102ac989796959493929190613c30565b34801561063857600080fd5b5061036661064736600461383c565b6120dc565b34801561065857600080fd5b5061032461066736600461359e565b6123e3565b34801561067857600080fd5b50610366610687366004613770565b612422565b34801561069857600080fd5b506103666106a736600461383c565b61270e565b3480156106b857600080fd5b506102ca6106c736600461383c565b61272f565b3480156106d857600080fd5b506102f7612850565b3480156106ed57600080fd5b506102ca6106fc36600461386c565b6128df565b34801561070d57600080fd5b5061029f61071c366004613526565b612b75565b34801561072d57600080fd5b506102f761073c36600461383c565b612ba5565b34801561074d57600080fd5b5061032461075c3660046134ee565b612bc0565b34801561076d57600080fd5b5061036661077c36600461383c565b612c31565b60006001600160e01b031982166380ac58cd60e01b14806107b257506001600160e01b03198216635b5e139f60e01b145b806107c157506107c182612c46565b90505b919050565b6060600180546107d890614837565b80601f016020809104026020016040519081016040528092919081815260200182805461080490614837565b80156108515780601f1061082657610100808354040283529160200191610851565b820191906000526020600020905b81548152906001019060200180831161083457829003601f168201915b5050505050905090565b600061086682612c5f565b6108825760405162461bcd60e51b815260040161025190614300565b506000908152600560205260409020546001600160a01b031690565b60006108a9826110ea565b9050806001600160a01b0316836001600160a01b031614156108dd5760405162461bcd60e51b815260040161025190614510565b806001600160a01b03166108ef612c7c565b6001600160a01b0316148061090b575061090b8161071c612c7c565b6109275760405162461bcd60e51b815260040161025190613fa4565b6109318383612c80565b505050565b6000908152600b602052604090206006015461010090046001600160a01b031690565b6000828152600d602052604081205483906001600160a01b031633146109915760405162461bcd60e51b8152600401610251906142a3565b600083116109b15760405162461bcd60e51b815260040161025190613f06565b6000848152600b602052604081206006015460ff1660038111156109e557634e487b7160e01b600052602160045260246000fd5b1415610a035760405162461bcd60e51b8152600401610251906146c8565b600a8054600181019091557fc65a7bb8d6351c1cf70c95a316cc6a92839c986682d98bc35f958f4883f9d2a8018490556000848152600b6020526040908190206004810185905560068101805460ff1916905590518591610a6391613a74565b60405190819003812090339083907f762f1a2f7e87bdc2ebbbeb92df2d742317f8e1353aafc0c70b060981e72271f490600090a4949350505050565b6009546040516371d4ed8d60e11b815260009182916001600160a01b039091169063e3a9db1a90610ad4908690600401613b0f565b60206040518083038186803b158015610aec57600080fd5b505afa158015610b00573d6000803e3d6000fd5b505050506040513d601f19601f82011682018060405250810190610b249190613854565b9392505050565b6000908152600d60205260409020546001600160a01b031690565b610b57610b51612c7c565b82612cee565b610b735760405162461bcd60e51b815260040161025190614630565b610931838383612d6b565b6000828152600b60205260409020600401548290610bae5760405162461bcd60e51b8152600401610251906143d5565b6000818152600b602052604090206006015460ff166003811115610be257634e487b7160e01b600052602160045260246000fd5b15610bff5760405162461bcd60e51b815260040161025190614188565b6000838152600b602052604090206004015483903414610c315760405162461bcd60e51b815260040161025190613cac565b6009546000858152600d60205260409081902054905163f340fa0160e01b81526001600160a01b039283169263f340fa01923492610c759290911690600401613b0f565b6000604051808303818588803b158015610c8e57600080fd5b505af1158015610ca2573d6000803e3d6000fd5b5050336000908152600f602090815260409091208751889550610ccc94509092509084019061331b565b506000858152600e6020908152604080832080546001600160a01b03191633179055600b9091528120600601805460ff191660011790555b600a54811015610d805785600a8281548110610d3057634e487b7160e01b600052603260045260246000fd5b90600052602060002001541415610d6e57600a8181548110610d6257634e487b7160e01b600052603260045260246000fd5b60009182526020822001555b80610d7881614872565b915050610d04565b506040513390610d91908690613a29565b6040519081900381209087907fdbca9a11cad69a5ab275fd9838feb30068a34f31d0f876d995c14a8dd906f70990600090a46000858152600b602052604080822060060154905134926101009092046001600160a01b0316917fe6138e0eb7be5ea87d2296f3ad7469a8364406bface7d4e5de0a21dce1841cdd91a35050505050565b600080610b248361085b565b610931838383604051806020016040528060008152506123e3565b6000908152600b602052604090206006015460ff1690565b6000610e5f6008612e98565b6000610e6b6008612ea1565b9050610e773382612ea5565b610e81818b612f84565b6040518061010001604052808a8a8080601f016020809104026020016040519081016040528093929190818152602001838380828437600092019190915250505090825250604080516020601f8b0181900481028201810190925289815291810191908a908a9081908401838280828437600092019190915250505090825250604080516020601f89018190048102820181019092528781529181019190889088908190840183828082843760009201829052509385525050506020820186905260408201526060810183905260800160038152336020918201526000838152600b825260409020825180519192610f7e9284929091019061331b565b506020828101518051610f97926001850192019061331b565b5060408201518051610fb391600284019160209091019061331b565b50606082015181600301556080820151816004015560a0820151816005015560c08201518160060160006101000a81548160ff0219169083600381111561100a57634e487b7160e01b600052602160045260246000fd5b021790555060e09190910151600690910180546001600160a01b0390921661010002610100600160a81b03199092169190911790556000818152600d6020908152604080832080546001600160a01b0319163317905551611071918c918c91889101613a14565b60408051601f1981840301815282825280516020918201206000868152600c90925291902081905591506110a8908b908b90613a04565b60405190819003812090339084907f4d80549dfe39c90078d620fcd854e5cbf03ace471593a7df725d1191056f30a190600090a4509998505050505050505050565b6000818152600360205260408120546001600160a01b0316806107c15760405162461bcd60e51b81526004016102519061404b565b60006001600160a01b0382166111475760405162461bcd60e51b815260040161025190614001565b506001600160a01b031660009081526004602052604090205490565b61116b612c7c565b6001600160a01b031661117c6119c3565b6001600160a01b0316146111a25760405162461bcd60e51b8152600401610251906143a0565b6111ac6000612fc8565b565b6111b661339f565b6000828152600b602052604090819020815161010081019092528054829082906111df90614837565b80601f016020809104026020016040519081016040528092919081815260200182805461120b90614837565b80156112585780601f1061122d57610100808354040283529160200191611258565b820191906000526020600020905b81548152906001019060200180831161123b57829003601f168201915b5050505050815260200160018201805461127190614837565b80601f016020809104026020016040519081016040528092919081815260200182805461129d90614837565b80156112ea5780601f106112bf576101008083540402835291602001916112ea565b820191906000526020600020905b8154815290600101906020018083116112cd57829003601f168201915b5050505050815260200160028201805461130390614837565b80601f016020809104026020016040519081016040528092919081815260200182805461132f90614837565b801561137c5780601f106113515761010080835404028352916020019161137c565b820191906000526020600020905b81548152906001019060200180831161135f57829003601f168201915b505050918352505060038281015460208301526004830154604083015260058301546060830152600683015460809092019160ff16908111156113cf57634e487b7160e01b600052602160045260246000fd5b60038111156113ee57634e487b7160e01b600052602160045260246000fd5b81526006919091015461010090046001600160a01b031660209091015292915050565b6060600061141f6008612ea1565b90506000805b8281101561147d5733600d600061143d8460016147c8565b81526020810191909152604001600020546001600160a01b0316141561146b578161146781614872565b9250505b8061147581614872565b915050611425565b506000808267ffffffffffffffff8111156114a857634e487b7160e01b600052604160045260246000fd5b6040519080825280602002602001820160405280156114e157816020015b6114ce61339f565b8152602001906001900390816114c65790505b50905060005b848110156117d85733600d60006114ff8460016147c8565b81526020810191909152604001600020546001600160a01b031614156117c657600061152c8260016147c8565b9050600b60008281526020019081526020016000206040518061010001604052908160008201805461155d90614837565b80601f016020809104026020016040519081016040528092919081815260200182805461158990614837565b80156115d65780601f106115ab576101008083540402835291602001916115d6565b820191906000526020600020905b8154815290600101906020018083116115b957829003601f168201915b505050505081526020016001820180546115ef90614837565b80601f016020809104026020016040519081016040528092919081815260200182805461161b90614837565b80156116685780601f1061163d57610100808354040283529160200191611668565b820191906000526020600020905b81548152906001019060200180831161164b57829003601f168201915b5050505050815260200160028201805461168190614837565b80601f01602080910402602001604051908101604052809291908181526020018280546116ad90614837565b80156116fa5780601f106116cf576101008083540402835291602001916116fa565b820191906000526020600020905b8154815290600101906020018083116116dd57829003601f168201915b505050918352505060038281015460208301526004830154604083015260058301546060830152600683015460809092019160ff169081111561174d57634e487b7160e01b600052602160045260246000fd5b600381111561176c57634e487b7160e01b600052602160045260246000fd5b81526006919091015461010090046001600160a01b031660209091015283518490869081106117ab57634e487b7160e01b600052603260045260246000fd5b602002602001018190525083806117c190614872565b945050505b806117d081614872565b9150506114e7565b50935050505090565b6000806000838152600b602052604090206006015460ff16600381111561181857634e487b7160e01b600052602160045260246000fd5b14156118bf5760005b600a5481101561189d5782600a828154811061184d57634e487b7160e01b600052603260045260246000fd5b9060005260206000200154141561188b57600a818154811061187f57634e487b7160e01b600052603260045260246000fd5b60009182526020822001555b8061189581614872565b915050611821565b506000828152600b60205260409020600601805460ff191660031790556119bb565b60016000838152600b602052604090206006015460ff1660038111156118f557634e487b7160e01b600052602160045260246000fd5b14156119135760405162461bcd60e51b81526004016102519061470c565b60026000838152600b602052604090206006015460ff16600381111561194957634e487b7160e01b600052602160045260246000fd5b14156119675760405162461bcd60e51b815260040161025190614551565b60036000838152600b602052604090206006015460ff16600381111561199d57634e487b7160e01b600052602160045260246000fd5b14156119bb5760405162461bcd60e51b815260040161025190613eb6565b506003919050565b6000546001600160a01b031690565b6060600280546107d890614837565b6060600a80548060200260200160405190810160405280929190818152602001828054801561085157602002820191906000526020600020905b815481526020019060010190808311611a1b575050505050905090565b600080610b248361111f565b600a5460609060009067ffffffffffffffff811115611a7357634e487b7160e01b600052604160045260246000fd5b604051908082528060200260200182016040528015611aac57816020015b611a9961339f565b815260200190600190039081611a915790505b50905060005b600a54811015611d88576000600a8281548110611adf57634e487b7160e01b600052603260045260246000fd5b90600052602060002001549050600b600082815260200190815260200160002060405180610100016040529081600082018054611b1b90614837565b80601f0160208091040260200160405190810160405280929190818152602001828054611b4790614837565b8015611b945780601f10611b6957610100808354040283529160200191611b94565b820191906000526020600020905b815481529060010190602001808311611b7757829003601f168201915b50505050508152602001600182018054611bad90614837565b80601f0160208091040260200160405190810160405280929190818152602001828054611bd990614837565b8015611c265780601f10611bfb57610100808354040283529160200191611c26565b820191906000526020600020905b815481529060010190602001808311611c0957829003601f168201915b50505050508152602001600282018054611c3f90614837565b80601f0160208091040260200160405190810160405280929190818152602001828054611c6b90614837565b8015611cb85780601f10611c8d57610100808354040283529160200191611cb8565b820191906000526020600020905b815481529060010190602001808311611c9b57829003601f168201915b505050918352505060038281015460208301526004830154604083015260058301546060830152600683015460809092019160ff1690811115611d0b57634e487b7160e01b600052602160045260246000fd5b6003811115611d2a57634e487b7160e01b600052602160045260246000fd5b81526006919091015461010090046001600160a01b03166020909101528351849084908110611d6957634e487b7160e01b600052603260045260246000fd5b6020026020010181905250508080611d8090614872565b915050611ab2565b50905090565b611d96612c7c565b6001600160a01b0316826001600160a01b03161415611dc75760405162461bcd60e51b815260040161025190613e0d565b8060066000611dd4612c7c565b6001600160a01b03908116825260208083019390935260409182016000908120918716808252919093529120805460ff191692151592909217909155611e18612c7c565b6001600160a01b03167f17307eab39ab6107e8899845ad3d59bd9653f200f220920489ca2b5937696c3183604051611e509190613c04565b60405180910390a35050565b600f6020526000908152604090208054611e7590614837565b80601f0160208091040260200160405190810160405280929190818152602001828054611ea190614837565b8015611eee5780601f10611ec357610100808354040283529160200191611eee565b820191906000526020600020905b815481529060010190602001808311611ed157829003601f168201915b505050505081565b600b60205260009081526040902080548190611f1190614837565b80601f0160208091040260200160405190810160405280929190818152602001828054611f3d90614837565b8015611f8a5780601f10611f5f57610100808354040283529160200191611f8a565b820191906000526020600020905b815481529060010190602001808311611f6d57829003601f168201915b505050505090806001018054611f9f90614837565b80601f0160208091040260200160405190810160405280929190818152602001828054611fcb90614837565b80156120185780601f10611fed57610100808354040283529160200191612018565b820191906000526020600020905b815481529060010190602001808311611ffb57829003601f168201915b50505050509080600201805461202d90614837565b80601f016020809104026020016040519081016040528092919081815260200182805461205990614837565b80156120a65780601f1061207b576101008083540402835291602001916120a6565b820191906000526020600020905b81548152906001019060200180831161208957829003601f168201915b505050506003830154600484015460058501546006909501549394919390925060ff81169061010090046001600160a01b031688565b6000818152600e602052604081205482906001600160a01b031633146121145760405162461bcd60e51b81526004016102519061412a565b8261211f3382612cee565b61213b5760405162461bcd60e51b8152600401610251906141cd565b6000818152600b602052604090206006015460ff16600381111561216f57634e487b7160e01b600052602160045260246000fd5b60021461218e5760405162461bcd60e51b815260040161025190614681565b6000848152600b60205260408082206006015460095491516371d4ed8d60e11b81526101009091046001600160a01b039081169392169063e3a9db1a906121d9908590600401613b0f565b60206040518083038186803b1580156121f157600080fd5b505afa158015612205573d6000803e3d6000fd5b505050506040513d601f19601f820116820180604052508101906122299190613854565b6009546040516351cff8d960e01b81529192506001600160a01b0316906351cff8d99061225a908590600401613b0f565b600060405180830381600087803b15801561227457600080fd5b505af1158015612288573d6000803e3d6000fd5b5050506000878152600e6020908152604080832080546001600160a01b03191690558051808301808352848252338552600f909352922091516122cb935061331b565b506000868152600b602090815260408083206006018054600360ff1990911617610100600160a81b03191633610100810291909117909155600d90925290912080546001600160a01b0319811683179091556001600160a01b03169061233390829089610b46565b60405133906001600160a01b0383169089907f86ff2a738e00d7cf2613e4bd44ae641e080a2877f978be45ac950525d26d04c590600090a460405133906001600160a01b0383169089907ffc99b02f822d46feedca53aafaa97c596bf87bb34925d350b64a13275388de4a90600090a460405182906001600160a01b038316907f033e0f8c9aa8fcdd1b01ad637814ecdb49b6ddc7445f13555d21b3c2959b5d1f90600090a35095945050505050565b6123f46123ee612c7c565b83612cee565b6124105760405162461bcd60e51b815260040161025190614630565b61241c84848484613018565b50505050565b60008082116124435760405162461bcd60e51b815260040161025190613f06565b61244d6008612e98565b60006124596008612ea1565b90506124653382612ea5565b61246f818c612f84565b6040518061010001604052808b8b8080601f016020809104026020016040519081016040528093929190818152602001838380828437600092019190915250505090825250604080516020601f8c018190048102820181019092528a815291810191908b908b9081908401838280828437600092019190915250505090825250604080516020601f8a018190048102820181019092528881529181019190899089908190840183828082843760009201829052509385525050506020820187905260408201869052606082018490526080909101908152336020918201526000838152600b82526040902082518051919261256f9284929091019061331b565b506020828101518051612588926001850192019061331b565b50604082015180516125a491600284019160209091019061331b565b50606082015181600301556080820151816004015560a0820151816005015560c08201518160060160006101000a81548160ff021916908360038111156125fb57634e487b7160e01b600052602160045260246000fd5b021790555060e09190910151600690910180546001600160a01b0390921661010002610100600160a81b03199092169190911790556000818152600d6020908152604080832080546001600160a01b03191633179055600a80546001810182559084527fc65a7bb8d6351c1cf70c95a316cc6a92839c986682d98bc35f958f4883f9d2a80184905551612694918d918d91899101613a14565b60408051601f1981840301815282825280516020918201206000868152600c90925291902081905591506126cb908c908c90613a04565b60405190819003812090339084907f762f1a2f7e87bdc2ebbbeb92df2d742317f8e1353aafc0c70b060981e72271f490600090a4509a9950505050505050505050565b600a818154811061271e57600080fd5b600091825260209091200154905081565b606061273a82612c5f565b6127565760405162461bcd60e51b815260040161025190614252565b6000828152600760205260408120805461276f90614837565b80601f016020809104026020016040519081016040528092919081815260200182805461279b90614837565b80156127e85780601f106127bd576101008083540402835291602001916127e8565b820191906000526020600020905b8154815290600101906020018083116127cb57829003601f168201915b5050505050905060006127f961304b565b905080516000141561280d575090506107c4565b81511561283f578082604051602001612827929190613a45565b604051602081830303815290604052925050506107c4565b6128488461305d565b949350505050565b600080600960009054906101000a90046001600160a01b03166001600160a01b0316638da5cb5b6040518163ffffffff1660e01b815260040160206040518083038186803b1580156128a157600080fd5b505afa1580156128b5573d6000803e3d6000fd5b505050506040513d601f19601f820116820180604052508101906128d9919061350a565b91505090565b6000838152600d602052604090205460609084906001600160a01b0316331461291a5760405162461bcd60e51b8152600401610251906142a3565b6000858152600b60205260409081902060049081015460095492516371d4ed8d60e11b8152889391926001600160a01b039092169163e3a9db1a9161296191339101613b0f565b60206040518083038186803b15801561297957600080fd5b505afa15801561298d573d6000803e3d6000fd5b505050506040513d601f19601f820116820180604052508101906129b19190613854565b146129ce5760405162461bcd60e51b81526004016102519061434c565b6000818152600b602052604090206006015460ff166003811115612a0257634e487b7160e01b600052602160045260246000fd5b600114612a215760405162461bcd60e51b8152600401610251906140e2565b6000868152600e60209081526040808320546001600160a01b0316808452600f8352928190209051612a539201613a74565b604051602081830303815290604052805190602001208686604051602001612a7c929190613a04565b6040516020818303038152906040528051906020012014612aaf5760405162461bcd60e51b8152600401610251906144b3565b6000878152600b60205260409020600601805460ff19166002179055612ad5818861089e565b6000878152600e6020526040908190205490516001600160a01b0390911690612b019088908890613a04565b6040519081900381209089907f39fd051deea672a32743d0c813cc2c161b3dacddbff9e2415abc2acbf2e088fb90600090a485858080601f016020809104026020016040519081016040528093929190818152602001838380828437600092019190915250929a9950505050505050505050565b6001600160a01b0380831660009081526006602090815260408083209385168352929052205460ff165b92915050565b600e602052600090815260409020546001600160a01b031681565b612bc8612c7c565b6001600160a01b0316612bd96119c3565b6001600160a01b031614612bff5760405162461bcd60e51b8152600401610251906143a0565b6001600160a01b038116612c255760405162461bcd60e51b815260040161025190613d4c565b612c2e81612fc8565b50565b6000908152600b602052604090206004015490565b6001600160e01b031981166301ffc9a760e01b14919050565b6000908152600360205260409020546001600160a01b0316151590565b3390565b600081815260056020526040902080546001600160a01b0319166001600160a01b0384169081179091558190612cb5826110ea565b6001600160a01b03167f8c5be1e5ebec7d5bd14f71427d1e84f3dd0314c0f7b2291e5b200ac8c7c3b92560405160405180910390a45050565b6000612cf982612c5f565b612d155760405162461bcd60e51b815260040161025190613f58565b6000612d20836110ea565b9050806001600160a01b0316846001600160a01b03161480612d5b5750836001600160a01b0316612d508461085b565b6001600160a01b0316145b8061284857506128488185612b75565b826001600160a01b0316612d7e826110ea565b6001600160a01b031614612da45760405162461bcd60e51b81526004016102519061441b565b6001600160a01b038216612dca5760405162461bcd60e51b815260040161025190613dc9565b612dd5838383610931565b612de0600082612c80565b6001600160a01b0383166000908152600460205260408120805460019290612e099084906147f4565b90915550506001600160a01b0382166000908152600460205260408120805460019290612e379084906147c8565b909155505060008181526003602052604080822080546001600160a01b0319166001600160a01b0386811691821790925591518493918716917fddf252ad1be2c89b69c2b068fc378daa952ba7f163c4a11628f55a4df523b3ef91a4505050565b80546001019055565b5490565b6001600160a01b038216612ecb5760405162461bcd60e51b81526004016102519061421d565b612ed481612c5f565b15612ef15760405162461bcd60e51b815260040161025190613d92565b612efd60008383610931565b6001600160a01b0382166000908152600460205260408120805460019290612f269084906147c8565b909155505060008181526003602052604080822080546001600160a01b0319166001600160a01b03861690811790915590518392907fddf252ad1be2c89b69c2b068fc378daa952ba7f163c4a11628f55a4df523b3ef908290a45050565b612f8d82612c5f565b612fa95760405162461bcd60e51b815260040161025190614094565b600082815260076020908152604090912082516109319284019061331b565b600080546001600160a01b038381166001600160a01b0319831681178455604051919092169283917f8be0079c531659141344cd1fd0a4f28419497f9722a3daafe3b4186f6b6457e09190a35050565b613023848484612d6b565b61302f848484846130df565b61241c5760405162461bcd60e51b815260040161025190613cfa565b60408051602081019091526000815290565b606061306882612c5f565b6130845760405162461bcd60e51b815260040161025190614464565b600061308e61304b565b905060008151116130ae5760405180602001604052806000815250610b24565b806130b8846131fa565b6040516020016130c9929190613a45565b6040516020818303038152906040529392505050565b60006130f3846001600160a01b0316613315565b156131ef57836001600160a01b031663150b7a0261310f612c7c565b8786866040518563ffffffff1660e01b81526004016131319493929190613b23565b602060405180830381600087803b15801561314b57600080fd5b505af192505050801561317b575060408051601f3d908101601f1916820190925261317891810190613693565b60015b6131d5573d8080156131a9576040519150601f19603f3d011682016040523d82523d6000602084013e6131ae565b606091505b5080516131cd5760405162461bcd60e51b815260040161025190613cfa565b805181602001fd5b6001600160e01b031916630a85bd0160e11b149050612848565b506001949350505050565b60608161321f57506040805180820190915260018152600360fc1b60208201526107c4565b8160005b8115613249578061323381614872565b91506132429050600a836147e0565b9150613223565b60008167ffffffffffffffff81111561327257634e487b7160e01b600052604160045260246000fd5b6040519080825280601f01601f19166020018201604052801561329c576020820181803683370190505b5090505b8415612848576132b16001836147f4565b91506132be600a8661488d565b6132c99060306147c8565b60f81b8183815181106132ec57634e487b7160e01b600052603260045260246000fd5b60200101906001600160f81b031916908160001a90535061330e600a866147e0565b94506132a0565b3b151590565b82805461332790614837565b90600052602060002090601f016020900481019282613349576000855561338f565b82601f1061336257805160ff191683800117855561338f565b8280016001018555821561338f579182015b8281111561338f578251825591602001919060010190613374565b5061339b929150613403565b5090565b604051806101000160405280606081526020016060815260200160608152602001600081526020016000815260200160008152602001600060038111156133f657634e487b7160e01b600052602160045260246000fd5b8152600060209091015290565b5b8082111561339b5760008155600101613404565b600067ffffffffffffffff80841115613433576134336148cd565b604051601f8501601f191681016020018281118282101715613457576134576148cd565b60405284815291508183850186101561346f57600080fd5b8484602083013760006020868301015250509392505050565b60008083601f840112613499578182fd5b50813567ffffffffffffffff8111156134b0578182fd5b6020830191508360208285010111156134c857600080fd5b9250929050565b600082601f8301126134df578081fd5b610b2483833560208501613418565b6000602082840312156134ff578081fd5b8135610b24816148e3565b60006020828403121561351b578081fd5b8151610b24816148e3565b60008060408385031215613538578081fd5b8235613543816148e3565b91506020830135613553816148e3565b809150509250929050565b600080600060608486031215613572578081fd5b833561357d816148e3565b9250602084013561358d816148e3565b929592945050506040919091013590565b600080600080608085870312156135b3578081fd5b84356135be816148e3565b935060208501356135ce816148e3565b925060408501359150606085013567ffffffffffffffff8111156135f0578182fd5b8501601f81018713613600578182fd5b61360f87823560208401613418565b91505092959194509250565b6000806040838503121561362d578182fd5b8235613638816148e3565b915060208301358015158114613553578182fd5b6000806040838503121561365e578182fd5b8235613669816148e3565b946020939093013593505050565b600060208284031215613688578081fd5b8135610b24816148f8565b6000602082840312156136a4578081fd5b8151610b24816148f8565b60008060008060008060008060a0898b0312156136ca578384fd5b883567ffffffffffffffff808211156136e1578586fd5b6136ed8c838d016134cf565b995060208b0135915080821115613702578586fd5b61370e8c838d01613488565b909950975060408b0135915080821115613726578586fd5b6137328c838d01613488565b909750955060608b013591508082111561374a578485fd5b506137578b828c01613488565b999c989b50969995989497949560800135949350505050565b600080600080600080600080600060c08a8c03121561378d578283fd5b893567ffffffffffffffff808211156137a4578485fd5b6137b08d838e016134cf565b9a5060208c01359150808211156137c5578485fd5b6137d18d838e01613488565b909a50985060408c01359150808211156137e9578485fd5b6137f58d838e01613488565b909850965060608c013591508082111561380d578485fd5b5061381a8c828d01613488565b9a9d999c50979a96999598959660808101359660a09091013595509350505050565b60006020828403121561384d578081fd5b5035919050565b600060208284031215613865578081fd5b5051919050565b600080600060408486031215613880578081fd5b83359250602084013567ffffffffffffffff81111561389d578182fd5b6138a986828701613488565b9497909650939450505050565b600080604083850312156138c8578182fd5b82359150602083013567ffffffffffffffff8111156138e5578182fd5b6138f1858286016134cf565b9150509250929050565b6000806040838503121561390d578182fd5b50508035926020909101359150565b6000815180845261393481602086016020860161480b565b601f01601f19169290920160200192915050565b6004811061396657634e487b7160e01b600052602160045260246000fd5b9052565b600061010082518185526139808286018261391c565b9150506020830151848203602086015261399a828261391c565b915050604083015184820360408601526139b4828261391c565b915050606083015160608501526080830151608085015260a083015160a085015260c08301516139e760c0860182613948565b5060e0928301516001600160a01b03169390920192909252919050565b6000828483379101908152919050565b60008385833750909101908152602001919050565b60008251613a3b81846020870161480b565b9190910192915050565b60008351613a5781846020880161480b565b835190830190613a6b81836020880161480b565b01949350505050565b8154600090819060028104600180831680613a9057607f831692505b6020808410821415613ab057634e487b7160e01b87526022600452602487fd5b818015613ac45760018114613ad557613b01565b60ff19861689528489019650613b01565b613ade8a6147bc565b885b86811015613af95781548b820152908501908301613ae0565b505084890196505b509498975050505050505050565b6001600160a01b0391909116815260200190565b6001600160a01b0385811682528416602082015260408101839052608060608201819052600090613b569083018461391c565b9695505050505050565b6000602080830181845280855180835260408601915060408482028701019250838701855b82811015613bb357603f19888603018452613ba185835161396a565b94509285019290850190600101613b85565b5092979650505050505050565b6020808252825182820181905260009190848201906040850190845b81811015613bf857835183529284019291840191600101613bdc565b50909695505050505050565b901515815260200190565b60208101612b9f8284613948565b600060208252610b24602083018461391c565b6000610100808352613c448184018c61391c565b90508281036020840152613c58818b61391c565b90508281036040840152613c6c818a61391c565b9150508660608301528560808301528460a0830152613c8e60c0830185613948565b6001600160a01b039290921660e09190910152979650505050505050565b6020808252602e908201527f5061796d656e7420616d6f756e74206d7573742065786163746c79206d61746360408201526d68206c697374656420707269636560901b606082015260800190565b60208082526032908201527f4552433732313a207472616e7366657220746f206e6f6e20455243373231526560408201527131b2b4bb32b91034b6b83632b6b2b73a32b960711b606082015260800190565b60208082526026908201527f4f776e61626c653a206e6577206f776e657220697320746865207a65726f206160408201526564647265737360d01b606082015260800190565b6020808252601c908201527f4552433732313a20746f6b656e20616c7265616479206d696e74656400000000604082015260600190565b60208082526024908201527f4552433732313a207472616e7366657220746f20746865207a65726f206164646040820152637265737360e01b606082015260800190565b60208082526019908201527f4552433732313a20617070726f766520746f2063616c6c657200000000000000604082015260600190565b6020808252604c908201527f506c6561736520646f206e6f742073656e64207468697320636f6e747261637460408201527f2066756e6473206f722063616c6c20612066756e6374696f6e2074686174206460608201526b1bd95cdb89dd08195e1a5cdd60a21b608082015260a00190565b60208082526030908201527f486f726e20697320616c7265616479206d61726b6564206173206f776e65642060408201526f616e64206e6f7420666f722073616c6560801b606082015260800190565b60208082526032908201527f596f757220486f726e2069732076616c7561626c6520616e642063616e6e6f7460408201527120626520736f6c6420666f7220667265652160701b606082015260800190565b6020808252602c908201527f4552433732313a206f70657261746f7220717565727920666f72206e6f6e657860408201526b34b9ba32b73a103a37b5b2b760a11b606082015260800190565b60208082526038908201527f4552433732313a20617070726f76652063616c6c6572206973206e6f74206f7760408201527f6e6572206e6f7220617070726f76656420666f7220616c6c0000000000000000606082015260800190565b6020808252602a908201527f4552433732313a2062616c616e636520717565727920666f7220746865207a65604082015269726f206164647265737360b01b606082015260800190565b60208082526029908201527f4552433732313a206f776e657220717565727920666f72206e6f6e657869737460408201526832b73a103a37b5b2b760b91b606082015260800190565b6020808252602e908201527f45524337323155524953746f726167653a2055524920736574206f66206e6f6e60408201526d32bc34b9ba32b73a103a37b5b2b760911b606082015260800190565b60208082526028908201527f486f726e20686173206e6f74206265656e206d61726b6564206173207061696460408201526708199bdc881e595d60c21b606082015260800190565b602080825260409082018190527f546869732066756e6374696f6e206d6179206f6e6c792062652063616c6c6564908201527f20627920612062757965722077686f2068617320616c72656164792070616964606082015260800190565b60208082526025908201527f486f726e206973206e6f742063757272656e746c79206c697374656420666f726040820152642073616c6560d81b606082015260800190565b60208082526030908201527f596f75206d75737420666972737420626520617070726f76656420627920637560408201526f393932b73a103437b9371037bbb732b960811b606082015260800190565b6020808252818101527f4552433732313a206d696e7420746f20746865207a65726f2061646472657373604082015260600190565b60208082526031908201527f45524337323155524953746f726167653a2055524920717565727920666f72206040820152703737b732bc34b9ba32b73a103a37b5b2b760791b606082015260800190565b60208082526038908201527f546869732066756e6374696f6e206d6179206f6e6c792062652063616c6c656460408201527f2062792074686520686f726e204e46542773206f776e65720000000000000000606082015260800190565b6020808252602c908201527f4552433732313a20617070726f76656420717565727920666f72206e6f6e657860408201526b34b9ba32b73a103a37b5b2b760a11b606082015260800190565b60208082526034908201527f4275796572206d7573742073656e64207061796d656e7420666f7220486f726e60408201527308139195081d1bc8195cd8dc9bddc8199a5c9cdd60621b606082015260800190565b6020808252818101527f4f776e61626c653a2063616c6c6572206973206e6f7420746865206f776e6572604082015260600190565b60208082526026908201527f486f726e204e4654206d75737420657869737420616e642063616e6e6f74206260408201526565206672656560d01b606082015260800190565b60208082526029908201527f4552433732313a207472616e73666572206f6620746f6b656e2074686174206960408201526839903737ba1037bbb760b91b606082015260800190565b6020808252602f908201527f4552433732314d657461646174613a2055524920717565727920666f72206e6f60408201526e3732bc34b9ba32b73a103a37b5b2b760891b606082015260800190565b6020808252603a908201527f4164647265737320676976656e20646f6573206e6f74206d617463682074686560408201527f206f6e65206f6e2066696c6520666f7220746865206275796572000000000000606082015260800190565b60208082526021908201527f4552433732313a20617070726f76616c20746f2063757272656e74206f776e656040820152603960f91b606082015260800190565b602080825260a6908201527f486f726e2068617320616c7265616479206265656e207368697070656420616e60408201527f64206e6f206c6f6e676572207175616c696669657320666f722061207265667560608201527f6e642c20706c6561736520636f6d706c657465207468652065786368616e676560808201527f20616e64207265646f207468652065786368616e676520696e2072657665727360a08201527f6520696620796f75207769736820746f20737769746368206261636b206f776e60c08201526506572736869760d41b60e08201526101000190565b60208082526031908201527f4552433732313a207472616e736665722063616c6c6572206973206e6f74206f6040820152701ddb995c881b9bdc88185c1c1c9bdd9959607a1b606082015260800190565b60208082526027908201527f486f726e20686173206e6f74206265656e206d61726b656420617320736869706040820152661c1959081e595d60ca1b606082015260800190565b60208082526024908201527f596f757220486f726e20697320616c7265616479206c697374656420666f722060408201526373616c6560e01b606082015260800190565b60208082526068908201527f486f726e2068617320616c7265616479206265656e207075726368617365642060408201527f616e64207061696420666f72206279206120627579657220616e64206f6e2d6360608201527f6861696e20726566756e647320617265206e6f742063757272656e746c7920736080820152671d5c1c1bdc9d195960c21b60a082015260c00190565b600060208252610b24602083018461396a565b90815260200190565b60009081526020902090565b600082198211156147db576147db6148a1565b500190565b6000826147ef576147ef6148b7565b500490565b600082821015614806576148066148a1565b500390565b60005b8381101561482657818101518382015260200161480e565b8381111561241c5750506000910152565b60028104600182168061484b57607f821691505b6020821081141561486c57634e487b7160e01b600052602260045260246000fd5b50919050565b6000600019821415614886576148866148a1565b5060010190565b60008261489c5761489c6148b7565b500690565b634e487b7160e01b600052601160045260246000fd5b634e487b7160e01b600052601260045260246000fd5b634e487b7160e01b600052604160045260246000fd5b6001600160a01b0381168114612c2e57600080fd5b6001600160e01b031981168114612c2e57600080fdfea26469706673582212202e05c88cf84df1af877939b649178c09fefbff60a262b3d16dcf5bb1dc3cd22f64736f6c63430008000033608060405234801561001057600080fd5b5061002161001c610026565b61002a565b61007a565b3390565b600080546001600160a01b038381166001600160a01b0319831681178455604051919092169283917f8be0079c531659141344cd1fd0a4f28419497f9722a3daafe3b4186f6b6457e09190a35050565b610616806100896000396000f3fe6080604052600436106100555760003560e01c806351cff8d91461005a578063715018a61461007c5780638da5cb5b14610091578063e3a9db1a146100bc578063f2fde38b146100e9578063f340fa0114610109575b600080fd5b34801561006657600080fd5b5061007a610075366004610455565b61011c565b005b34801561008857600080fd5b5061007a6101d1565b34801561009d57600080fd5b506100a661021c565b6040516100b3919061047b565b60405180910390f35b3480156100c857600080fd5b506100dc6100d7366004610455565b61022b565b6040516100b3919061059e565b3480156100f557600080fd5b5061007a610104366004610455565b610246565b61007a610117366004610455565b6102b7565b610124610360565b6001600160a01b031661013561021c565b6001600160a01b0316146101645760405162461bcd60e51b815260040161015b90610569565b60405180910390fd5b6001600160a01b038116600081815260016020526040812080549190559061018c9082610364565b816001600160a01b03167f7084f5476618d8e60b11ef0d7d3f06914655adb8793e28ff7f018d4c76d505d5826040516101c5919061059e565b60405180910390a25050565b6101d9610360565b6001600160a01b03166101ea61021c565b6001600160a01b0316146102105760405162461bcd60e51b815260040161015b90610569565b61021a6000610405565b565b6000546001600160a01b031690565b6001600160a01b031660009081526001602052604090205490565b61024e610360565b6001600160a01b031661025f61021c565b6001600160a01b0316146102855760405162461bcd60e51b815260040161015b90610569565b6001600160a01b0381166102ab5760405162461bcd60e51b815260040161015b9061048f565b6102b481610405565b50565b6102bf610360565b6001600160a01b03166102d061021c565b6001600160a01b0316146102f65760405162461bcd60e51b815260040161015b90610569565b6001600160a01b0381166000908152600160205260408120805434928392916103209084906105a7565b92505081905550816001600160a01b03167f2da466a7b24304f47e87fa2e1e5a81b9831ce54fec19055ce277ca2f39ba42c4826040516101c5919061059e565b3390565b804710156103845760405162461bcd60e51b815260040161015b90610532565b6000826001600160a01b03168260405161039d90610478565b60006040518083038185875af1925050503d80600081146103da576040519150601f19603f3d011682016040523d82523d6000602084013e6103df565b606091505b50509050806104005760405162461bcd60e51b815260040161015b906104d5565b505050565b600080546001600160a01b038381166001600160a01b0319831681178455604051919092169283917f8be0079c531659141344cd1fd0a4f28419497f9722a3daafe3b4186f6b6457e09190a35050565b600060208284031215610466578081fd5b8135610471816105cb565b9392505050565b90565b6001600160a01b0391909116815260200190565b60208082526026908201527f4f776e61626c653a206e6577206f776e657220697320746865207a65726f206160408201526564647265737360d01b606082015260800190565b6020808252603a908201527f416464726573733a20756e61626c6520746f2073656e642076616c75652c207260408201527f6563697069656e74206d61792068617665207265766572746564000000000000606082015260800190565b6020808252601d908201527f416464726573733a20696e73756666696369656e742062616c616e6365000000604082015260600190565b6020808252818101527f4f776e61626c653a2063616c6c6572206973206e6f7420746865206f776e6572604082015260600190565b90815260200190565b600082198211156105c657634e487b7160e01b81526011600452602481fd5b500190565b6001600160a01b03811681146102b457600080fdfea26469706673582212201b4f49cf5b99cd6f1965f7902db7a17b9154df54bbb3556be1e31495e133f49a64736f6c63430008000033",
  "linkReferences": {},
  "deployedLinkReferences": {}
}