{
  "_format": "hh-sol-artifact-1",
  "contractName": "Helpers",
  "sourceName": "contracts/Helpers.sol",
  "abi": [
    {
      "anonymous": false,
      "inputs": [
        {
          "indexed": true,
          "internalType": "address",
          "name": "owner",
          "type": "address"
        },
        {
          "indexed": true,
          "internalType": "address",
          "name": "approved",
          "type": "address"
        },
        {
          "indexed": true,
          "internalType": "uint256",
          "name": "tokenId",
          "type": "uint256"
        }
      ],
      "name": "Approval",
      "type": "event"
    },
    {
      "anonymous": false,
      "inputs": [
        {
          "indexed": true,
          "internalType": "address",
          "name": "owner",
          "type": "address"
        },
        {
          "indexed": true,
          "internalType": "address",
          "name": "operator",
          "type": "address"
        },
        {
          "indexed": false,
          "internalType": "bool",
          "name": "approved",
          "type": "bool"
        }
      ],
      "name": "ApprovalForAll",
      "type": "event"
    },
    {
      "anonymous": false,
      "inputs": [
        {
          "indexed": true,
          "internalType": "address",
          "name": "payee",
          "type": "address"
        },
        {
          "indexed": true,
          "internalType": "uint256",
          "name": "amountInWei",
          "type": "uint256"
        }
      ],
      "name": "DepositedToEscrow",
      "type": "event"
    },
    {
      "anonymous": false,
      "inputs": [
        {
          "indexed": true,
          "internalType": "uint256",
          "name": "hornId",
          "type": "uint256"
        },
        {
          "indexed": true,
          "internalType": "address",
          "name": "from",
          "type": "address"
        },
        {
          "indexed": true,
          "internalType": "address",
          "name": "to",
          "type": "address"
        }
      ],
      "name": "HornDeliveredAndNFTOwnershipTransferred",
      "type": "event"
    },
    {
      "anonymous": false,
      "inputs": [
        {
          "indexed": true,
          "internalType": "uint256",
          "name": "hornId",
          "type": "uint256"
        },
        {
          "indexed": true,
          "internalType": "address",
          "name": "seller",
          "type": "address"
        },
        {
          "indexed": true,
          "internalType": "string",
          "name": "make",
          "type": "string"
        }
      ],
      "name": "HornListedForSale",
      "type": "event"
    },
    {
      "anonymous": false,
      "inputs": [
        {
          "indexed": true,
          "internalType": "uint256",
          "name": "hornId",
          "type": "uint256"
        },
        {
          "indexed": true,
          "internalType": "string",
          "name": "shipTo",
          "type": "string"
        },
        {
          "indexed": true,
          "internalType": "address",
          "name": "buyer",
          "type": "address"
        }
      ],
      "name": "HornPurchased",
      "type": "event"
    },
    {
      "anonymous": false,
      "inputs": [
        {
          "indexed": true,
          "internalType": "uint256",
          "name": "hornId",
          "type": "uint256"
        },
        {
          "indexed": true,
          "internalType": "string",
          "name": "shipTo",
          "type": "string"
        },
        {
          "indexed": true,
          "internalType": "address",
          "name": "to",
          "type": "address"
        }
      ],
      "name": "HornShipped",
      "type": "event"
    },
    {
      "anonymous": false,
      "inputs": [
        {
          "indexed": true,
          "internalType": "uint256",
          "name": "hornId",
          "type": "uint256"
        },
        {
          "indexed": true,
          "internalType": "address",
          "name": "seller",
          "type": "address"
        },
        {
          "indexed": true,
          "internalType": "string",
          "name": "make",
          "type": "string"
        }
      ],
      "name": "NewHornNFTMinted",
      "type": "event"
    },
    {
      "anonymous": false,
      "inputs": [
        {
          "indexed": true,
          "internalType": "address",
          "name": "previousOwner",
          "type": "address"
        },
        {
          "indexed": true,
          "internalType": "address",
          "name": "newOwner",
          "type": "address"
        }
      ],
      "name": "OwnershipTransferred",
      "type": "event"
    },
    {
      "anonymous": false,
      "inputs": [
        {
          "indexed": true,
          "internalType": "uint256",
          "name": "hornId",
          "type": "uint256"
        },
        {
          "indexed": true,
          "internalType": "address",
          "name": "payer",
          "type": "address"
        },
        {
          "indexed": true,
          "internalType": "address",
          "name": "payee",
          "type": "address"
        }
      ],
      "name": "SellerPaid",
      "type": "event"
    },
    {
      "anonymous": false,
      "inputs": [
        {
          "indexed": true,
          "internalType": "address",
          "name": "from",
          "type": "address"
        },
        {
          "indexed": true,
          "internalType": "address",
          "name": "to",
          "type": "address"
        },
        {
          "indexed": true,
          "internalType": "uint256",
          "name": "tokenId",
          "type": "uint256"
        }
      ],
      "name": "Transfer",
      "type": "event"
    },
    {
      "anonymous": false,
      "inputs": [
        {
          "indexed": true,
          "internalType": "address",
          "name": "payee",
          "type": "address"
        },
        {
          "indexed": true,
          "internalType": "uint256",
          "name": "amountInWei",
          "type": "uint256"
        }
      ],
      "name": "WithdrawnFromEscrow",
      "type": "event"
    },
    {
      "stateMutability": "nonpayable",
      "type": "fallback"
    },
    {
      "inputs": [
        {
          "internalType": "address",
          "name": "to",
          "type": "address"
        },
        {
          "internalType": "uint256",
          "name": "tokenId",
          "type": "uint256"
        }
      ],
      "name": "approve",
      "outputs": [],
      "stateMutability": "nonpayable",
      "type": "function"
    },
    {
      "inputs": [
        {
          "internalType": "address",
          "name": "owner",
          "type": "address"
        }
      ],
      "name": "balanceOf",
      "outputs": [
        {
          "internalType": "uint256",
          "name": "",
          "type": "uint256"
        }
      ],
      "stateMutability": "view",
      "type": "function"
    },
    {
      "inputs": [
        {
          "internalType": "uint256",
          "name": "",
          "type": "uint256"
        }
      ],
      "name": "buyers",
      "outputs": [
        {
          "internalType": "address",
          "name": "",
          "type": "address"
        }
      ],
      "stateMutability": "view",
      "type": "function"
    },
    {
      "inputs": [
        {
          "internalType": "uint256",
          "name": "tokenId",
          "type": "uint256"
        }
      ],
      "name": "getApproved",
      "outputs": [
        {
          "internalType": "address",
          "name": "",
          "type": "address"
        }
      ],
      "stateMutability": "view",
      "type": "function"
    },
    {
      "inputs": [
        {
          "internalType": "uint256",
          "name": "_tokenId",
          "type": "uint256"
        }
      ],
      "name": "getApprovedToSpend",
      "outputs": [
        {
          "internalType": "address",
          "name": "",
          "type": "address"
        }
      ],
      "stateMutability": "view",
      "type": "function"
    },
    {
      "inputs": [
        {
          "internalType": "address",
          "name": "_owner",
          "type": "address"
        }
      ],
      "name": "getBalanceOf",
      "outputs": [
        {
          "internalType": "uint256",
          "name": "",
          "type": "uint256"
        }
      ],
      "stateMutability": "view",
      "type": "function"
    },
    {
      "inputs": [],
      "name": "getCurrentHornsForSale",
      "outputs": [
        {
          "internalType": "uint256[]",
          "name": "",
          "type": "uint256[]"
        }
      ],
      "stateMutability": "view",
      "type": "function"
    },
    {
      "inputs": [
        {
          "internalType": "uint256",
          "name": "__hornId",
          "type": "uint256"
        }
      ],
      "name": "getCurrentOwnerByMapping",
      "outputs": [
        {
          "internalType": "address payable",
          "name": "",
          "type": "address"
        }
      ],
      "stateMutability": "view",
      "type": "function"
    },
    {
      "inputs": [
        {
          "internalType": "uint256",
          "name": "__hornId",
          "type": "uint256"
        }
      ],
      "name": "getCurrentOwnerByStructAttribute",
      "outputs": [
        {
          "internalType": "address payable",
          "name": "",
          "type": "address"
        }
      ],
      "stateMutability": "view",
      "type": "function"
    },
    {
      "inputs": [],
      "name": "getCurrentlyListedHorns",
      "outputs": [
        {
          "components": [
            {
              "internalType": "string",
              "name": "make",
              "type": "string"
            },
            {
              "internalType": "string",
              "name": "model",
              "type": "string"
            },
            {
              "internalType": "string",
              "name": "style",
              "type": "string"
            },
            {
              "internalType": "uint256",
              "name": "serialNumber",
              "type": "uint256"
            },
            {
              "internalType": "uint256",
              "name": "listPrice",
              "type": "uint256"
            },
            {
              "internalType": "uint256",
              "name": "tokenId",
              "type": "uint256"
            },
            {
              "internalType": "enum HornMarketplace.HornStatus",
              "name": "status",
              "type": "uint8"
            },
            {
              "internalType": "address payable",
              "name": "currentOwner",
              "type": "address"
            }
          ],
          "internalType": "struct HornMarketplace.Horn[]",
          "name": "",
          "type": "tuple[]"
        }
      ],
      "stateMutability": "view",
      "type": "function"
    },
    {
      "inputs": [],
      "name": "getCurrentlyOwnedHorns",
      "outputs": [
        {
          "components": [
            {
              "internalType": "string",
              "name": "make",
              "type": "string"
            },
            {
              "internalType": "string",
              "name": "model",
              "type": "string"
            },
            {
              "internalType": "string",
              "name": "style",
              "type": "string"
            },
            {
              "internalType": "uint256",
              "name": "serialNumber",
              "type": "uint256"
            },
            {
              "internalType": "uint256",
              "name": "listPrice",
              "type": "uint256"
            },
            {
              "internalType": "uint256",
              "name": "tokenId",
              "type": "uint256"
            },
            {
              "internalType": "enum HornMarketplace.HornStatus",
              "name": "status",
              "type": "uint8"
            },
            {
              "internalType": "address payable",
              "name": "currentOwner",
              "type": "address"
            }
          ],
          "internalType": "struct HornMarketplace.Horn[]",
          "name": "",
          "type": "tuple[]"
        }
      ],
      "stateMutability": "view",
      "type": "function"
    },
    {
      "inputs": [
        {
          "internalType": "address",
          "name": "payee",
          "type": "address"
        }
      ],
      "name": "getEscrowDepositValue",
      "outputs": [
        {
          "internalType": "uint256",
          "name": "",
          "type": "uint256"
        }
      ],
      "stateMutability": "view",
      "type": "function"
    },
    {
      "inputs": [],
      "name": "getEscrowOwner",
      "outputs": [
        {
          "internalType": "address",
          "name": "",
          "type": "address"
        }
      ],
      "stateMutability": "view",
      "type": "function"
    },
    {
      "inputs": [
        {
          "internalType": "uint256",
          "name": "_index",
          "type": "uint256"
        }
      ],
      "name": "getHornById",
      "outputs": [
        {
          "components": [
            {
              "internalType": "string",
              "name": "make",
              "type": "string"
            },
            {
              "internalType": "string",
              "name": "model",
              "type": "string"
            },
            {
              "internalType": "string",
              "name": "style",
              "type": "string"
            },
            {
              "internalType": "uint256",
              "name": "serialNumber",
              "type": "uint256"
            },
            {
              "internalType": "uint256",
              "name": "listPrice",
              "type": "uint256"
            },
            {
              "internalType": "uint256",
              "name": "tokenId",
              "type": "uint256"
            },
            {
              "internalType": "enum HornMarketplace.HornStatus",
              "name": "status",
              "type": "uint8"
            },
            {
              "internalType": "address payable",
              "name": "currentOwner",
              "type": "address"
            }
          ],
          "internalType": "struct HornMarketplace.Horn",
          "name": "",
          "type": "tuple"
        }
      ],
      "stateMutability": "view",
      "type": "function"
    },
    {
      "inputs": [
        {
          "internalType": "uint256",
          "name": "__hornId",
          "type": "uint256"
        }
      ],
      "name": "getListPriceByHornId",
      "outputs": [
        {
          "internalType": "uint256",
          "name": "",
          "type": "uint256"
        }
      ],
      "stateMutability": "view",
      "type": "function"
    },
    {
      "inputs": [],
      "name": "getShippingAddress",
      "outputs": [
        {
          "internalType": "string",
          "name": "",
          "type": "string"
        }
      ],
      "stateMutability": "view",
      "type": "function"
    },
    {
      "inputs": [
        {
          "internalType": "uint256",
          "name": "__hornId",
          "type": "uint256"
        }
      ],
      "name": "getStatusOfHornByHornId",
      "outputs": [
        {
          "internalType": "enum HornMarketplace.HornStatus",
          "name": "",
          "type": "uint8"
        }
      ],
      "stateMutability": "view",
      "type": "function"
    },
    {
      "inputs": [
        {
          "internalType": "uint256",
          "name": "",
          "type": "uint256"
        }
      ],
      "name": "horns",
      "outputs": [
        {
          "internalType": "string",
          "name": "make",
          "type": "string"
        },
        {
          "internalType": "string",
          "name": "model",
          "type": "string"
        },
        {
          "internalType": "string",
          "name": "style",
          "type": "string"
        },
        {
          "internalType": "uint256",
          "name": "serialNumber",
          "type": "uint256"
        },
        {
          "internalType": "uint256",
          "name": "listPrice",
          "type": "uint256"
        },
        {
          "internalType": "uint256",
          "name": "tokenId",
          "type": "uint256"
        },
        {
          "internalType": "enum HornMarketplace.HornStatus",
          "name": "status",
          "type": "uint8"
        },
        {
          "internalType": "address payable",
          "name": "currentOwner",
          "type": "address"
        }
      ],
      "stateMutability": "view",
      "type": "function"
    },
    {
      "inputs": [
        {
          "internalType": "uint256",
          "name": "",
          "type": "uint256"
        }
      ],
      "name": "hornsForSale",
      "outputs": [
        {
          "internalType": "uint256",
          "name": "",
          "type": "uint256"
        }
      ],
      "stateMutability": "view",
      "type": "function"
    },
    {
      "inputs": [
        {
          "internalType": "address",
          "name": "owner",
          "type": "address"
        },
        {
          "internalType": "address",
          "name": "operator",
          "type": "address"
        }
      ],
      "name": "isApprovedForAll",
      "outputs": [
        {
          "internalType": "bool",
          "name": "",
          "type": "bool"
        }
      ],
      "stateMutability": "view",
      "type": "function"
    },
    {
      "inputs": [
        {
          "internalType": "uint256",
          "name": "__hornId",
          "type": "uint256"
        },
        {
          "internalType": "uint256",
          "name": "_desiredPrice",
          "type": "uint256"
        }
      ],
      "name": "listExistingHornNFT",
      "outputs": [
        {
          "internalType": "uint256",
          "name": "",
          "type": "uint256"
        }
      ],
      "stateMutability": "nonpayable",
      "type": "function"
    },
    {
      "inputs": [
        {
          "internalType": "uint256",
          "name": "__hornId",
          "type": "uint256"
        }
      ],
      "name": "markHornDeliveredAndOwnershipTransferred",
      "outputs": [
        {
          "internalType": "uint256",
          "name": "",
          "type": "uint256"
        }
      ],
      "stateMutability": "nonpayable",
      "type": "function"
    },
    {
      "inputs": [
        {
          "internalType": "uint256",
          "name": "__hornId",
          "type": "uint256"
        },
        {
          "internalType": "string",
          "name": "shippedTo",
          "type": "string"
        }
      ],
      "name": "markHornShipped",
      "outputs": [
        {
          "internalType": "string",
          "name": "",
          "type": "string"
        }
      ],
      "stateMutability": "nonpayable",
      "type": "function"
    },
    {
      "inputs": [
        {
          "internalType": "string",
          "name": "tokenUri",
          "type": "string"
        },
        {
          "internalType": "string",
          "name": "_make",
          "type": "string"
        },
        {
          "internalType": "string",
          "name": "_model",
          "type": "string"
        },
        {
          "internalType": "string",
          "name": "_style",
          "type": "string"
        },
        {
          "internalType": "uint256",
          "name": "_serialNumber",
          "type": "uint256"
        }
      ],
      "name": "mintButDontListNewHornNFT",
      "outputs": [
        {
          "internalType": "uint256",
          "name": "",
          "type": "uint256"
        }
      ],
      "stateMutability": "nonpayable",
      "type": "function"
    },
    {
      "inputs": [
        {
          "internalType": "string",
          "name": "tokenUri",
          "type": "string"
        },
        {
          "internalType": "string",
          "name": "_make",
          "type": "string"
        },
        {
          "internalType": "string",
          "name": "_model",
          "type": "string"
        },
        {
          "internalType": "string",
          "name": "_style",
          "type": "string"
        },
        {
          "internalType": "uint256",
          "name": "_serialNumber",
          "type": "uint256"
        },
        {
          "internalType": "uint256",
          "name": "_desiredPrice",
          "type": "uint256"
        }
      ],
      "name": "mintThenListNewHornNFT",
      "outputs": [
        {
          "internalType": "uint256",
          "name": "",
          "type": "uint256"
        }
      ],
      "stateMutability": "nonpayable",
      "type": "function"
    },
    {
      "inputs": [],
      "name": "name",
      "outputs": [
        {
          "internalType": "string",
          "name": "",
          "type": "string"
        }
      ],
      "stateMutability": "view",
      "type": "function"
    },
    {
      "inputs": [],
      "name": "owner",
      "outputs": [
        {
          "internalType": "address",
          "name": "",
          "type": "address"
        }
      ],
      "stateMutability": "view",
      "type": "function"
    },
    {
      "inputs": [
        {
          "internalType": "uint256",
          "name": "tokenId",
          "type": "uint256"
        }
      ],
      "name": "ownerOf",
      "outputs": [
        {
          "internalType": "address",
          "name": "",
          "type": "address"
        }
      ],
      "stateMutability": "view",
      "type": "function"
    },
    {
      "inputs": [
        {
          "internalType": "uint256",
          "name": "__hornId",
          "type": "uint256"
        },
        {
          "internalType": "string",
          "name": "_shipTo",
          "type": "string"
        }
      ],
      "name": "purchaseHornByHornId",
      "outputs": [],
      "stateMutability": "payable",
      "type": "function"
    },
    {
      "inputs": [],
      "name": "renounceOwnership",
      "outputs": [],
      "stateMutability": "nonpayable",
      "type": "function"
    },
    {
      "inputs": [
        {
          "internalType": "address",
          "name": "from",
          "type": "address"
        },
        {
          "internalType": "address",
          "name": "to",
          "type": "address"
        },
        {
          "internalType": "uint256",
          "name": "tokenId",
          "type": "uint256"
        }
      ],
      "name": "safeTransferFrom",
      "outputs": [],
      "stateMutability": "nonpayable",
      "type": "function"
    },
    {
      "inputs": [
        {
          "internalType": "address",
          "name": "from",
          "type": "address"
        },
        {
          "internalType": "address",
          "name": "to",
          "type": "address"
        },
        {
          "internalType": "uint256",
          "name": "tokenId",
          "type": "uint256"
        },
        {
          "internalType": "bytes",
          "name": "_data",
          "type": "bytes"
        }
      ],
      "name": "safeTransferFrom",
      "outputs": [],
      "stateMutability": "nonpayable",
      "type": "function"
    },
    {
      "inputs": [
        {
          "internalType": "uint256",
          "name": "__hornId",
          "type": "uint256"
        }
      ],
      "name": "sellerInitiateRefundOrSetStatusToOwnedNotForSale",
      "outputs": [
        {
          "internalType": "enum HornMarketplace.HornStatus",
          "name": "",
          "type": "uint8"
        }
      ],
      "stateMutability": "nonpayable",
      "type": "function"
    },
    {
      "inputs": [
        {
          "internalType": "address",
          "name": "operator",
          "type": "address"
        },
        {
          "internalType": "bool",
          "name": "approved",
          "type": "bool"
        }
      ],
      "name": "setApprovalForAll",
      "outputs": [],
      "stateMutability": "nonpayable",
      "type": "function"
    },
    {
      "inputs": [
        {
          "internalType": "address",
          "name": "",
          "type": "address"
        }
      ],
      "name": "shippingAddresses",
      "outputs": [
        {
          "internalType": "string",
          "name": "",
          "type": "string"
        }
      ],
      "stateMutability": "view",
      "type": "function"
    },
    {
      "inputs": [
        {
          "internalType": "bytes4",
          "name": "interfaceId",
          "type": "bytes4"
        }
      ],
      "name": "supportsInterface",
      "outputs": [
        {
          "internalType": "bool",
          "name": "",
          "type": "bool"
        }
      ],
      "stateMutability": "view",
      "type": "function"
    },
    {
      "inputs": [],
      "name": "symbol",
      "outputs": [
        {
          "internalType": "string",
          "name": "",
          "type": "string"
        }
      ],
      "stateMutability": "view",
      "type": "function"
    },
    {
      "inputs": [
        {
          "internalType": "uint256",
          "name": "tokenId",
          "type": "uint256"
        }
      ],
      "name": "tokenURI",
      "outputs": [
        {
          "internalType": "string",
          "name": "",
          "type": "string"
        }
      ],
      "stateMutability": "view",
      "type": "function"
    },
    {
      "inputs": [
        {
          "internalType": "address",
          "name": "from",
          "type": "address"
        },
        {
          "internalType": "address",
          "name": "to",
          "type": "address"
        },
        {
          "internalType": "uint256",
          "name": "tokenId",
          "type": "uint256"
        }
      ],
      "name": "transferFrom",
      "outputs": [],
      "stateMutability": "nonpayable",
      "type": "function"
    },
    {
      "inputs": [
        {
          "internalType": "address",
          "name": "newOwner",
          "type": "address"
        }
      ],
      "name": "transferOwnership",
      "outputs": [],
      "stateMutability": "nonpayable",
      "type": "function"
    },
    {
      "stateMutability": "payable",
      "type": "receive"
    }
  ],
  "bytecode": "0x60806040523480156200001157600080fd5b50604051806040016040528060048152602001632437b93760e11b815250604051806040016040528060048152602001632427a92760e11b8152506200006662000060620000e660201b60201c565b620000ea565b81516200007b9060019060208501906200013a565b508051620000919060029060208401906200013a565b505050604051620000a290620001c9565b604051809103906000f080158015620000bf573d6000803e3d6000fd5b50600980546001600160a01b0319166001600160a01b03929092169190911790556200022b565b3390565b600080546001600160a01b038381166001600160a01b0319831681178455604051919092169283917f8be0079c531659141344cd1fd0a4f28419497f9722a3daafe3b4186f6b6457e09190a35050565b8280546200014890620001ee565b90600052602060002090601f0160209004810192826200016c5760008555620001b7565b82601f106200018757805160ff1916838001178555620001b7565b82800160010185558215620001b7579182015b82811115620001b75782518255916020019190600101906200019a565b50620001c5929150620001d7565b5090565b61069f8062004bbd83390190565b5b80821115620001c55760008155600101620001d8565b6002810460018216806200020357607f821691505b602082108114156200022557634e487b7160e01b600052602260045260246000fd5b50919050565b614982806200023b6000396000f3fe60806040526004361061023f5760003560e01c80638da5cb5b1161012e578063b88d4fde116100ab578063cf44981a1161006f578063cf44981a14610701578063e985e9c514610721578063f2aa821814610741578063f2fde38b14610761578063fd92de011461078157610265565b8063b88d4fde1461066c578063ba80a2c41461068c578063c0227bbb146106ac578063c87b56dd146106cc578063cce44056146106ec57610265565b8063a081feb1116100f2578063a081feb1146105c3578063a22cb465146105d8578063b15fca9e146105f8578063b5178ed514610618578063b7d002f41461064c57610265565b80638da5cb5b14610542578063914b37a11461055757806395d89b411461056c57806398960435146105815780639b96eece146105a357610265565b80633dda1fca116101bc57806370a082311161018057806370a082311461049e578063715018a6146104be57806376cb00ee146104d357806378b5270c146105005780638007eb481461052257610265565b80633dda1fca146103f157806342842e0e1461041157806349870e5314610431578063625475011461045e5780636352211e1461047e57610265565b8063125bba3711610203578063125bba371461035157806319df66f41461037e5780631c5e1d5e1461039e57806323b872dd146103be5780633a770745146103de57610265565b806301ffc9a71461028a57806306fdde03146102c0578063081812fc146102e2578063095ea7b31461030f57806311723dc21461033157610265565b366102655760405162461bcd60e51b815260040161025c90613e82565b60405180910390fd5b34801561027157600080fd5b5060405162461bcd60e51b815260040161025c90613e82565b34801561029657600080fd5b506102aa6102a53660046136b5565b6107a1565b6040516102b79190613c42565b60405180910390f35b3480156102cc57600080fd5b506102d56107e9565b6040516102b79190613c5b565b3480156102ee57600080fd5b506103026102fd36600461387a565b61087b565b6040516102b79190613b4d565b34801561031b57600080fd5b5061032f61032a36600461368a565b6108be565b005b34801561033d57600080fd5b5061030261034c36600461387a565b610956565b34801561035d57600080fd5b5061037161036c366004613939565b610979565b6040516102b791906147f1565b34801561038a57600080fd5b5061037161039936600461352c565b610abf565b3480156103aa57600080fd5b506103026103b936600461387a565b610b4b565b3480156103ca57600080fd5b5061032f6103d936600461359c565b610b66565b61032f6103ec3660046138f4565b610b9e565b3480156103fd57600080fd5b5061030261040c36600461387a565b610e34565b34801561041d57600080fd5b5061032f61042c36600461359c565b610e40565b34801561043d57600080fd5b5061045161044c36600461387a565b610e5b565b6040516102b79190613c4d565b34801561046a57600080fd5b506103716104793660046136ed565b610e73565b34801561048a57600080fd5b5061030261049936600461387a565b61110a565b3480156104aa57600080fd5b506103716104b936600461352c565b61113f565b3480156104ca57600080fd5b5061032f611183565b3480156104df57600080fd5b506104f36104ee36600461387a565b6111ce565b6040516102b791906147de565b34801561050c57600080fd5b50610515611431565b6040516102b79190613b9e565b34801561052e57600080fd5b5061045161053d36600461387a565b611801565b34801561054e57600080fd5b506103026119e3565b34801561056357600080fd5b506102d56119f2565b34801561057857600080fd5b506102d5611a10565b34801561058d57600080fd5b50610596611a1f565b6040516102b79190613bfe565b3480156105af57600080fd5b506103716105be36600461352c565b611a76565b3480156105cf57600080fd5b50610515611a82565b3480156105e457600080fd5b5061032f6105f3366004613659565b611dcc565b34801561060457600080fd5b506102d561061336600461352c565b611e9a565b34801561062457600080fd5b5061063861063336600461387a565b611f34565b6040516102b7989796959493929190613c6e565b34801561065857600080fd5b5061037161066736600461387a565b61211a565b34801561067857600080fd5b5061032f6106873660046135dc565b612421565b34801561069857600080fd5b506103716106a73660046137ae565b612460565b3480156106b857600080fd5b506103716106c736600461387a565b61274c565b3480156106d857600080fd5b506102d56106e736600461387a565b61276d565b3480156106f857600080fd5b5061030261288e565b34801561070d57600080fd5b506102d561071c3660046138aa565b61291d565b34801561072d57600080fd5b506102aa61073c366004613564565b612bb3565b34801561074d57600080fd5b5061030261075c36600461387a565b612be3565b34801561076d57600080fd5b5061032f61077c36600461352c565b612bfe565b34801561078d57600080fd5b5061037161079c36600461387a565b612c6f565b60006001600160e01b031982166380ac58cd60e01b14806107d257506001600160e01b03198216635b5e139f60e01b145b806107e157506107e182612c84565b90505b919050565b6060600180546107f890614875565b80601f016020809104026020016040519081016040528092919081815260200182805461082490614875565b80156108715780601f1061084657610100808354040283529160200191610871565b820191906000526020600020905b81548152906001019060200180831161085457829003601f168201915b5050505050905090565b600061088682612c9d565b6108a25760405162461bcd60e51b815260040161025c9061433e565b506000908152600560205260409020546001600160a01b031690565b60006108c98261110a565b9050806001600160a01b0316836001600160a01b031614156108fd5760405162461bcd60e51b815260040161025c9061454e565b806001600160a01b031661090f612cba565b6001600160a01b0316148061092b575061092b8161073c612cba565b6109475760405162461bcd60e51b815260040161025c90613fe2565b6109518383612cbe565b505050565b6000908152600b602052604090206006015461010090046001600160a01b031690565b6000828152600d602052604081205483906001600160a01b031633146109b15760405162461bcd60e51b815260040161025c906142e1565b600083116109d15760405162461bcd60e51b815260040161025c90613f44565b6000848152600b602052604081206006015460ff166003811115610a0557634e487b7160e01b600052602160045260246000fd5b1415610a235760405162461bcd60e51b815260040161025c90614706565b600a8054600181019091557fc65a7bb8d6351c1cf70c95a316cc6a92839c986682d98bc35f958f4883f9d2a8018490556000848152600b6020526040908190206004810185905560068101805460ff1916905590518591610a8391613ab2565b60405190819003812090339083907f762f1a2f7e87bdc2ebbbeb92df2d742317f8e1353aafc0c70b060981e72271f490600090a4949350505050565b6009546040516371d4ed8d60e11b815260009182916001600160a01b039091169063e3a9db1a90610af4908690600401613b4d565b60206040518083038186803b158015610b0c57600080fd5b505afa158015610b20573d6000803e3d6000fd5b505050506040513d601f19601f82011682018060405250810190610b449190613892565b9392505050565b6000908152600d60205260409020546001600160a01b031690565b610b77610b71612cba565b82612d2c565b610b935760405162461bcd60e51b815260040161025c9061466e565b610951838383612da9565b6000828152600b60205260409020600401548290610bce5760405162461bcd60e51b815260040161025c90614413565b6000818152600b602052604090206006015460ff166003811115610c0257634e487b7160e01b600052602160045260246000fd5b15610c1f5760405162461bcd60e51b815260040161025c906141c6565b6000838152600b602052604090206004015483903414610c515760405162461bcd60e51b815260040161025c90613cea565b6009546000858152600d60205260409081902054905163f340fa0160e01b81526001600160a01b039283169263f340fa01923492610c959290911690600401613b4d565b6000604051808303818588803b158015610cae57600080fd5b505af1158015610cc2573d6000803e3d6000fd5b5050336000908152600f602090815260409091208751889550610cec945090925090840190613359565b506000858152600e6020908152604080832080546001600160a01b03191633179055600b9091528120600601805460ff191660011790555b600a54811015610da05785600a8281548110610d5057634e487b7160e01b600052603260045260246000fd5b90600052602060002001541415610d8e57600a8181548110610d8257634e487b7160e01b600052603260045260246000fd5b60009182526020822001555b80610d98816148b0565b915050610d24565b506040513390610db1908690613a67565b6040519081900381209087907fdbca9a11cad69a5ab275fd9838feb30068a34f31d0f876d995c14a8dd906f70990600090a46000858152600b602052604080822060060154905134926101009092046001600160a01b0316917fe6138e0eb7be5ea87d2296f3ad7469a8364406bface7d4e5de0a21dce1841cdd91a35050505050565b600080610b448361087b565b61095183838360405180602001604052806000815250612421565b6000908152600b602052604090206006015460ff1690565b6000610e7f6008612ed6565b6000610e8b6008612edf565b9050610e973382612ee3565b610ea1818b612fc2565b6040518061010001604052808a8a8080601f016020809104026020016040519081016040528093929190818152602001838380828437600092019190915250505090825250604080516020601f8b0181900481028201810190925289815291810191908a908a9081908401838280828437600092019190915250505090825250604080516020601f89018190048102820181019092528781529181019190889088908190840183828082843760009201829052509385525050506020820186905260408201526060810183905260800160038152336020918201526000838152600b825260409020825180519192610f9e92849290910190613359565b506020828101518051610fb79260018501920190613359565b5060408201518051610fd3916002840191602090910190613359565b50606082015181600301556080820151816004015560a0820151816005015560c08201518160060160006101000a81548160ff0219169083600381111561102a57634e487b7160e01b600052602160045260246000fd5b021790555060e09190910151600690910180546001600160a01b0390921661010002610100600160a81b03199092169190911790556000818152600d6020908152604080832080546001600160a01b0319163317905551611091918c918c91889101613a52565b60408051601f1981840301815282825280516020918201206000868152600c90925291902081905591506110c8908b908b90613a42565b60405190819003812090339084907f4d80549dfe39c90078d620fcd854e5cbf03ace471593a7df725d1191056f30a190600090a4509998505050505050505050565b6000818152600360205260408120546001600160a01b0316806107e15760405162461bcd60e51b815260040161025c90614089565b60006001600160a01b0382166111675760405162461bcd60e51b815260040161025c9061403f565b506001600160a01b031660009081526004602052604090205490565b61118b612cba565b6001600160a01b031661119c6119e3565b6001600160a01b0316146111c25760405162461bcd60e51b815260040161025c906143de565b6111cc6000613006565b565b6111d66133dd565b6000828152600b602052604090819020815161010081019092528054829082906111ff90614875565b80601f016020809104026020016040519081016040528092919081815260200182805461122b90614875565b80156112785780601f1061124d57610100808354040283529160200191611278565b820191906000526020600020905b81548152906001019060200180831161125b57829003601f168201915b5050505050815260200160018201805461129190614875565b80601f01602080910402602001604051908101604052809291908181526020018280546112bd90614875565b801561130a5780601f106112df5761010080835404028352916020019161130a565b820191906000526020600020905b8154815290600101906020018083116112ed57829003601f168201915b5050505050815260200160028201805461132390614875565b80601f016020809104026020016040519081016040528092919081815260200182805461134f90614875565b801561139c5780601f106113715761010080835404028352916020019161139c565b820191906000526020600020905b81548152906001019060200180831161137f57829003601f168201915b505050918352505060038281015460208301526004830154604083015260058301546060830152600683015460809092019160ff16908111156113ef57634e487b7160e01b600052602160045260246000fd5b600381111561140e57634e487b7160e01b600052602160045260246000fd5b81526006919091015461010090046001600160a01b031660209091015292915050565b6060600061143f6008612edf565b90506000805b8281101561149d5733600d600061145d846001614806565b81526020810191909152604001600020546001600160a01b0316141561148b5781611487816148b0565b9250505b80611495816148b0565b915050611445565b506000808267ffffffffffffffff8111156114c857634e487b7160e01b600052604160045260246000fd5b60405190808252806020026020018201604052801561150157816020015b6114ee6133dd565b8152602001906001900390816114e65790505b50905060005b848110156117f85733600d600061151f846001614806565b81526020810191909152604001600020546001600160a01b031614156117e657600061154c826001614806565b9050600b60008281526020019081526020016000206040518061010001604052908160008201805461157d90614875565b80601f01602080910402602001604051908101604052809291908181526020018280546115a990614875565b80156115f65780601f106115cb576101008083540402835291602001916115f6565b820191906000526020600020905b8154815290600101906020018083116115d957829003601f168201915b5050505050815260200160018201805461160f90614875565b80601f016020809104026020016040519081016040528092919081815260200182805461163b90614875565b80156116885780601f1061165d57610100808354040283529160200191611688565b820191906000526020600020905b81548152906001019060200180831161166b57829003601f168201915b505050505081526020016002820180546116a190614875565b80601f01602080910402602001604051908101604052809291908181526020018280546116cd90614875565b801561171a5780601f106116ef5761010080835404028352916020019161171a565b820191906000526020600020905b8154815290600101906020018083116116fd57829003601f168201915b505050918352505060038281015460208301526004830154604083015260058301546060830152600683015460809092019160ff169081111561176d57634e487b7160e01b600052602160045260246000fd5b600381111561178c57634e487b7160e01b600052602160045260246000fd5b81526006919091015461010090046001600160a01b031660209091015283518490869081106117cb57634e487b7160e01b600052603260045260246000fd5b602002602001018190525083806117e1906148b0565b945050505b806117f0816148b0565b915050611507565b50935050505090565b6000806000838152600b602052604090206006015460ff16600381111561183857634e487b7160e01b600052602160045260246000fd5b14156118df5760005b600a548110156118bd5782600a828154811061186d57634e487b7160e01b600052603260045260246000fd5b906000526020600020015414156118ab57600a818154811061189f57634e487b7160e01b600052603260045260246000fd5b60009182526020822001555b806118b5816148b0565b915050611841565b506000828152600b60205260409020600601805460ff191660031790556119db565b60016000838152600b602052604090206006015460ff16600381111561191557634e487b7160e01b600052602160045260246000fd5b14156119335760405162461bcd60e51b815260040161025c9061474a565b60026000838152600b602052604090206006015460ff16600381111561196957634e487b7160e01b600052602160045260246000fd5b14156119875760405162461bcd60e51b815260040161025c9061458f565b60036000838152600b602052604090206006015460ff1660038111156119bd57634e487b7160e01b600052602160045260246000fd5b14156119db5760405162461bcd60e51b815260040161025c90613ef4565b506003919050565b6000546001600160a01b031690565b336000908152600f602052604090208054606091906107f890614875565b6060600280546107f890614875565b6060600a80548060200260200160405190810160405280929190818152602001828054801561087157602002820191906000526020600020905b815481526020019060010190808311611a59575050505050905090565b600080610b448361113f565b600a5460609060009067ffffffffffffffff811115611ab157634e487b7160e01b600052604160045260246000fd5b604051908082528060200260200182016040528015611aea57816020015b611ad76133dd565b815260200190600190039081611acf5790505b50905060005b600a54811015611dc6576000600a8281548110611b1d57634e487b7160e01b600052603260045260246000fd5b90600052602060002001549050600b600082815260200190815260200160002060405180610100016040529081600082018054611b5990614875565b80601f0160208091040260200160405190810160405280929190818152602001828054611b8590614875565b8015611bd25780601f10611ba757610100808354040283529160200191611bd2565b820191906000526020600020905b815481529060010190602001808311611bb557829003601f168201915b50505050508152602001600182018054611beb90614875565b80601f0160208091040260200160405190810160405280929190818152602001828054611c1790614875565b8015611c645780601f10611c3957610100808354040283529160200191611c64565b820191906000526020600020905b815481529060010190602001808311611c4757829003601f168201915b50505050508152602001600282018054611c7d90614875565b80601f0160208091040260200160405190810160405280929190818152602001828054611ca990614875565b8015611cf65780601f10611ccb57610100808354040283529160200191611cf6565b820191906000526020600020905b815481529060010190602001808311611cd957829003601f168201915b505050918352505060038281015460208301526004830154604083015260058301546060830152600683015460809092019160ff1690811115611d4957634e487b7160e01b600052602160045260246000fd5b6003811115611d6857634e487b7160e01b600052602160045260246000fd5b81526006919091015461010090046001600160a01b03166020909101528351849084908110611da757634e487b7160e01b600052603260045260246000fd5b6020026020010181905250508080611dbe906148b0565b915050611af0565b50905090565b611dd4612cba565b6001600160a01b0316826001600160a01b03161415611e055760405162461bcd60e51b815260040161025c90613e4b565b8060066000611e12612cba565b6001600160a01b03908116825260208083019390935260409182016000908120918716808252919093529120805460ff191692151592909217909155611e56612cba565b6001600160a01b03167f17307eab39ab6107e8899845ad3d59bd9653f200f220920489ca2b5937696c3183604051611e8e9190613c42565b60405180910390a35050565b600f6020526000908152604090208054611eb390614875565b80601f0160208091040260200160405190810160405280929190818152602001828054611edf90614875565b8015611f2c5780601f10611f0157610100808354040283529160200191611f2c565b820191906000526020600020905b815481529060010190602001808311611f0f57829003601f168201915b505050505081565b600b60205260009081526040902080548190611f4f90614875565b80601f0160208091040260200160405190810160405280929190818152602001828054611f7b90614875565b8015611fc85780601f10611f9d57610100808354040283529160200191611fc8565b820191906000526020600020905b815481529060010190602001808311611fab57829003601f168201915b505050505090806001018054611fdd90614875565b80601f016020809104026020016040519081016040528092919081815260200182805461200990614875565b80156120565780601f1061202b57610100808354040283529160200191612056565b820191906000526020600020905b81548152906001019060200180831161203957829003601f168201915b50505050509080600201805461206b90614875565b80601f016020809104026020016040519081016040528092919081815260200182805461209790614875565b80156120e45780601f106120b9576101008083540402835291602001916120e4565b820191906000526020600020905b8154815290600101906020018083116120c757829003601f168201915b505050506003830154600484015460058501546006909501549394919390925060ff81169061010090046001600160a01b031688565b6000818152600e602052604081205482906001600160a01b031633146121525760405162461bcd60e51b815260040161025c90614168565b8261215d3382612d2c565b6121795760405162461bcd60e51b815260040161025c9061420b565b6000818152600b602052604090206006015460ff1660038111156121ad57634e487b7160e01b600052602160045260246000fd5b6002146121cc5760405162461bcd60e51b815260040161025c906146bf565b6000848152600b60205260408082206006015460095491516371d4ed8d60e11b81526101009091046001600160a01b039081169392169063e3a9db1a90612217908590600401613b4d565b60206040518083038186803b15801561222f57600080fd5b505afa158015612243573d6000803e3d6000fd5b505050506040513d601f19601f820116820180604052508101906122679190613892565b6009546040516351cff8d960e01b81529192506001600160a01b0316906351cff8d990612298908590600401613b4d565b600060405180830381600087803b1580156122b257600080fd5b505af11580156122c6573d6000803e3d6000fd5b5050506000878152600e6020908152604080832080546001600160a01b03191690558051808301808352848252338552600f909352922091516123099350613359565b506000868152600b602090815260408083206006018054600360ff1990911617610100600160a81b03191633610100810291909117909155600d90925290912080546001600160a01b0319811683179091556001600160a01b03169061237190829089610b66565b60405133906001600160a01b0383169089907f86ff2a738e00d7cf2613e4bd44ae641e080a2877f978be45ac950525d26d04c590600090a460405133906001600160a01b0383169089907ffc99b02f822d46feedca53aafaa97c596bf87bb34925d350b64a13275388de4a90600090a460405182906001600160a01b038316907f033e0f8c9aa8fcdd1b01ad637814ecdb49b6ddc7445f13555d21b3c2959b5d1f90600090a35095945050505050565b61243261242c612cba565b83612d2c565b61244e5760405162461bcd60e51b815260040161025c9061466e565b61245a84848484613056565b50505050565b60008082116124815760405162461bcd60e51b815260040161025c90613f44565b61248b6008612ed6565b60006124976008612edf565b90506124a33382612ee3565b6124ad818c612fc2565b6040518061010001604052808b8b8080601f016020809104026020016040519081016040528093929190818152602001838380828437600092019190915250505090825250604080516020601f8c018190048102820181019092528a815291810191908b908b9081908401838280828437600092019190915250505090825250604080516020601f8a018190048102820181019092528881529181019190899089908190840183828082843760009201829052509385525050506020820187905260408201869052606082018490526080909101908152336020918201526000838152600b8252604090208251805191926125ad92849290910190613359565b5060208281015180516125c69260018501920190613359565b50604082015180516125e2916002840191602090910190613359565b50606082015181600301556080820151816004015560a0820151816005015560c08201518160060160006101000a81548160ff0219169083600381111561263957634e487b7160e01b600052602160045260246000fd5b021790555060e09190910151600690910180546001600160a01b0390921661010002610100600160a81b03199092169190911790556000818152600d6020908152604080832080546001600160a01b03191633179055600a80546001810182559084527fc65a7bb8d6351c1cf70c95a316cc6a92839c986682d98bc35f958f4883f9d2a801849055516126d2918d918d91899101613a52565b60408051601f1981840301815282825280516020918201206000868152600c9092529190208190559150612709908c908c90613a42565b60405190819003812090339084907f762f1a2f7e87bdc2ebbbeb92df2d742317f8e1353aafc0c70b060981e72271f490600090a4509a9950505050505050505050565b600a818154811061275c57600080fd5b600091825260209091200154905081565b606061277882612c9d565b6127945760405162461bcd60e51b815260040161025c90614290565b600082815260076020526040812080546127ad90614875565b80601f01602080910402602001604051908101604052809291908181526020018280546127d990614875565b80156128265780601f106127fb57610100808354040283529160200191612826565b820191906000526020600020905b81548152906001019060200180831161280957829003601f168201915b505050505090506000612837613089565b905080516000141561284b575090506107e4565b81511561287d578082604051602001612865929190613a83565b604051602081830303815290604052925050506107e4565b6128868461309b565b949350505050565b600080600960009054906101000a90046001600160a01b03166001600160a01b0316638da5cb5b6040518163ffffffff1660e01b815260040160206040518083038186803b1580156128df57600080fd5b505afa1580156128f3573d6000803e3d6000fd5b505050506040513d601f19601f820116820180604052508101906129179190613548565b91505090565b6000838152600d602052604090205460609084906001600160a01b031633146129585760405162461bcd60e51b815260040161025c906142e1565b6000858152600b60205260409081902060049081015460095492516371d4ed8d60e11b8152889391926001600160a01b039092169163e3a9db1a9161299f91339101613b4d565b60206040518083038186803b1580156129b757600080fd5b505afa1580156129cb573d6000803e3d6000fd5b505050506040513d601f19601f820116820180604052508101906129ef9190613892565b14612a0c5760405162461bcd60e51b815260040161025c9061438a565b6000818152600b602052604090206006015460ff166003811115612a4057634e487b7160e01b600052602160045260246000fd5b600114612a5f5760405162461bcd60e51b815260040161025c90614120565b6000868152600e60209081526040808320546001600160a01b0316808452600f8352928190209051612a919201613ab2565b604051602081830303815290604052805190602001208686604051602001612aba929190613a42565b6040516020818303038152906040528051906020012014612aed5760405162461bcd60e51b815260040161025c906144f1565b6000878152600b60205260409020600601805460ff19166002179055612b1381886108be565b6000878152600e6020526040908190205490516001600160a01b0390911690612b3f9088908890613a42565b6040519081900381209089907f39fd051deea672a32743d0c813cc2c161b3dacddbff9e2415abc2acbf2e088fb90600090a485858080601f016020809104026020016040519081016040528093929190818152602001838380828437600092019190915250929a9950505050505050505050565b6001600160a01b0380831660009081526006602090815260408083209385168352929052205460ff165b92915050565b600e602052600090815260409020546001600160a01b031681565b612c06612cba565b6001600160a01b0316612c176119e3565b6001600160a01b031614612c3d5760405162461bcd60e51b815260040161025c906143de565b6001600160a01b038116612c635760405162461bcd60e51b815260040161025c90613d8a565b612c6c81613006565b50565b6000908152600b602052604090206004015490565b6001600160e01b031981166301ffc9a760e01b14919050565b6000908152600360205260409020546001600160a01b0316151590565b3390565b600081815260056020526040902080546001600160a01b0319166001600160a01b0384169081179091558190612cf38261110a565b6001600160a01b03167f8c5be1e5ebec7d5bd14f71427d1e84f3dd0314c0f7b2291e5b200ac8c7c3b92560405160405180910390a45050565b6000612d3782612c9d565b612d535760405162461bcd60e51b815260040161025c90613f96565b6000612d5e8361110a565b9050806001600160a01b0316846001600160a01b03161480612d995750836001600160a01b0316612d8e8461087b565b6001600160a01b0316145b8061288657506128868185612bb3565b826001600160a01b0316612dbc8261110a565b6001600160a01b031614612de25760405162461bcd60e51b815260040161025c90614459565b6001600160a01b038216612e085760405162461bcd60e51b815260040161025c90613e07565b612e13838383610951565b612e1e600082612cbe565b6001600160a01b0383166000908152600460205260408120805460019290612e47908490614832565b90915550506001600160a01b0382166000908152600460205260408120805460019290612e75908490614806565b909155505060008181526003602052604080822080546001600160a01b0319166001600160a01b0386811691821790925591518493918716917fddf252ad1be2c89b69c2b068fc378daa952ba7f163c4a11628f55a4df523b3ef91a4505050565b80546001019055565b5490565b6001600160a01b038216612f095760405162461bcd60e51b815260040161025c9061425b565b612f1281612c9d565b15612f2f5760405162461bcd60e51b815260040161025c90613dd0565b612f3b60008383610951565b6001600160a01b0382166000908152600460205260408120805460019290612f64908490614806565b909155505060008181526003602052604080822080546001600160a01b0319166001600160a01b03861690811790915590518392907fddf252ad1be2c89b69c2b068fc378daa952ba7f163c4a11628f55a4df523b3ef908290a45050565b612fcb82612c9d565b612fe75760405162461bcd60e51b815260040161025c906140d2565b6000828152600760209081526040909120825161095192840190613359565b600080546001600160a01b038381166001600160a01b0319831681178455604051919092169283917f8be0079c531659141344cd1fd0a4f28419497f9722a3daafe3b4186f6b6457e09190a35050565b613061848484612da9565b61306d8484848461311d565b61245a5760405162461bcd60e51b815260040161025c90613d38565b60408051602081019091526000815290565b60606130a682612c9d565b6130c25760405162461bcd60e51b815260040161025c906144a2565b60006130cc613089565b905060008151116130ec5760405180602001604052806000815250610b44565b806130f684613238565b604051602001613107929190613a83565b6040516020818303038152906040529392505050565b6000613131846001600160a01b0316613353565b1561322d57836001600160a01b031663150b7a0261314d612cba565b8786866040518563ffffffff1660e01b815260040161316f9493929190613b61565b602060405180830381600087803b15801561318957600080fd5b505af19250505080156131b9575060408051601f3d908101601f191682019092526131b6918101906136d1565b60015b613213573d8080156131e7576040519150601f19603f3d011682016040523d82523d6000602084013e6131ec565b606091505b50805161320b5760405162461bcd60e51b815260040161025c90613d38565b805181602001fd5b6001600160e01b031916630a85bd0160e11b149050612886565b506001949350505050565b60608161325d57506040805180820190915260018152600360fc1b60208201526107e4565b8160005b81156132875780613271816148b0565b91506132809050600a8361481e565b9150613261565b60008167ffffffffffffffff8111156132b057634e487b7160e01b600052604160045260246000fd5b6040519080825280601f01601f1916602001820160405280156132da576020820181803683370190505b5090505b8415612886576132ef600183614832565b91506132fc600a866148cb565b613307906030614806565b60f81b81838151811061332a57634e487b7160e01b600052603260045260246000fd5b60200101906001600160f81b031916908160001a90535061334c600a8661481e565b94506132de565b3b151590565b82805461336590614875565b90600052602060002090601f01602090048101928261338757600085556133cd565b82601f106133a057805160ff19168380011785556133cd565b828001600101855582156133cd579182015b828111156133cd5782518255916020019190600101906133b2565b506133d9929150613441565b5090565b6040518061010001604052806060815260200160608152602001606081526020016000815260200160008152602001600081526020016000600381111561343457634e487b7160e01b600052602160045260246000fd5b8152600060209091015290565b5b808211156133d95760008155600101613442565b600067ffffffffffffffff808411156134715761347161490b565b604051601f8501601f1916810160200182811182821017156134955761349561490b565b6040528481529150818385018610156134ad57600080fd5b8484602083013760006020868301015250509392505050565b60008083601f8401126134d7578182fd5b50813567ffffffffffffffff8111156134ee578182fd5b60208301915083602082850101111561350657600080fd5b9250929050565b600082601f83011261351d578081fd5b610b4483833560208501613456565b60006020828403121561353d578081fd5b8135610b4481614921565b600060208284031215613559578081fd5b8151610b4481614921565b60008060408385031215613576578081fd5b823561358181614921565b9150602083013561359181614921565b809150509250929050565b6000806000606084860312156135b0578081fd5b83356135bb81614921565b925060208401356135cb81614921565b929592945050506040919091013590565b600080600080608085870312156135f1578081fd5b84356135fc81614921565b9350602085013561360c81614921565b925060408501359150606085013567ffffffffffffffff81111561362e578182fd5b8501601f8101871361363e578182fd5b61364d87823560208401613456565b91505092959194509250565b6000806040838503121561366b578182fd5b823561367681614921565b915060208301358015158114613591578182fd5b6000806040838503121561369c578182fd5b82356136a781614921565b946020939093013593505050565b6000602082840312156136c6578081fd5b8135610b4481614936565b6000602082840312156136e2578081fd5b8151610b4481614936565b60008060008060008060008060a0898b031215613708578384fd5b883567ffffffffffffffff8082111561371f578586fd5b61372b8c838d0161350d565b995060208b0135915080821115613740578586fd5b61374c8c838d016134c6565b909950975060408b0135915080821115613764578586fd5b6137708c838d016134c6565b909750955060608b0135915080821115613788578485fd5b506137958b828c016134c6565b999c989b50969995989497949560800135949350505050565b600080600080600080600080600060c08a8c0312156137cb578283fd5b893567ffffffffffffffff808211156137e2578485fd5b6137ee8d838e0161350d565b9a5060208c0135915080821115613803578485fd5b61380f8d838e016134c6565b909a50985060408c0135915080821115613827578485fd5b6138338d838e016134c6565b909850965060608c013591508082111561384b578485fd5b506138588c828d016134c6565b9a9d999c50979a96999598959660808101359660a09091013595509350505050565b60006020828403121561388b578081fd5b5035919050565b6000602082840312156138a3578081fd5b5051919050565b6000806000604084860312156138be578081fd5b83359250602084013567ffffffffffffffff8111156138db578182fd5b6138e7868287016134c6565b9497909650939450505050565b60008060408385031215613906578182fd5b82359150602083013567ffffffffffffffff811115613923578182fd5b61392f8582860161350d565b9150509250929050565b6000806040838503121561394b578182fd5b50508035926020909101359150565b60008151808452613972816020860160208601614849565b601f01601f19169290920160200192915050565b600481106139a457634e487b7160e01b600052602160045260246000fd5b9052565b600061010082518185526139be8286018261395a565b915050602083015184820360208601526139d8828261395a565b915050604083015184820360408601526139f2828261395a565b915050606083015160608501526080830151608085015260a083015160a085015260c0830151613a2560c0860182613986565b5060e0928301516001600160a01b03169390920192909252919050565b6000828483379101908152919050565b60008385833750909101908152602001919050565b60008251613a79818460208701614849565b9190910192915050565b60008351613a95818460208801614849565b835190830190613aa9818360208801614849565b01949350505050565b8154600090819060028104600180831680613ace57607f831692505b6020808410821415613aee57634e487b7160e01b87526022600452602487fd5b818015613b025760018114613b1357613b3f565b60ff19861689528489019650613b3f565b613b1c8a6147fa565b885b86811015613b375781548b820152908501908301613b1e565b505084890196505b509498975050505050505050565b6001600160a01b0391909116815260200190565b6001600160a01b0385811682528416602082015260408101839052608060608201819052600090613b949083018461395a565b9695505050505050565b6000602080830181845280855180835260408601915060408482028701019250838701855b82811015613bf157603f19888603018452613bdf8583516139a8565b94509285019290850190600101613bc3565b5092979650505050505050565b6020808252825182820181905260009190848201906040850190845b81811015613c3657835183529284019291840191600101613c1a565b50909695505050505050565b901515815260200190565b60208101612bdd8284613986565b600060208252610b44602083018461395a565b6000610100808352613c828184018c61395a565b90508281036020840152613c96818b61395a565b90508281036040840152613caa818a61395a565b9150508660608301528560808301528460a0830152613ccc60c0830185613986565b6001600160a01b039290921660e09190910152979650505050505050565b6020808252602e908201527f5061796d656e7420616d6f756e74206d7573742065786163746c79206d61746360408201526d68206c697374656420707269636560901b606082015260800190565b60208082526032908201527f4552433732313a207472616e7366657220746f206e6f6e20455243373231526560408201527131b2b4bb32b91034b6b83632b6b2b73a32b960711b606082015260800190565b60208082526026908201527f4f776e61626c653a206e6577206f776e657220697320746865207a65726f206160408201526564647265737360d01b606082015260800190565b6020808252601c908201527f4552433732313a20746f6b656e20616c7265616479206d696e74656400000000604082015260600190565b60208082526024908201527f4552433732313a207472616e7366657220746f20746865207a65726f206164646040820152637265737360e01b606082015260800190565b60208082526019908201527f4552433732313a20617070726f766520746f2063616c6c657200000000000000604082015260600190565b6020808252604c908201527f506c6561736520646f206e6f742073656e64207468697320636f6e747261637460408201527f2066756e6473206f722063616c6c20612066756e6374696f6e2074686174206460608201526b1bd95cdb89dd08195e1a5cdd60a21b608082015260a00190565b60208082526030908201527f486f726e20697320616c7265616479206d61726b6564206173206f776e65642060408201526f616e64206e6f7420666f722073616c6560801b606082015260800190565b60208082526032908201527f596f757220486f726e2069732076616c7561626c6520616e642063616e6e6f7460408201527120626520736f6c6420666f7220667265652160701b606082015260800190565b6020808252602c908201527f4552433732313a206f70657261746f7220717565727920666f72206e6f6e657860408201526b34b9ba32b73a103a37b5b2b760a11b606082015260800190565b60208082526038908201527f4552433732313a20617070726f76652063616c6c6572206973206e6f74206f7760408201527f6e6572206e6f7220617070726f76656420666f7220616c6c0000000000000000606082015260800190565b6020808252602a908201527f4552433732313a2062616c616e636520717565727920666f7220746865207a65604082015269726f206164647265737360b01b606082015260800190565b60208082526029908201527f4552433732313a206f776e657220717565727920666f72206e6f6e657869737460408201526832b73a103a37b5b2b760b91b606082015260800190565b6020808252602e908201527f45524337323155524953746f726167653a2055524920736574206f66206e6f6e60408201526d32bc34b9ba32b73a103a37b5b2b760911b606082015260800190565b60208082526028908201527f486f726e20686173206e6f74206265656e206d61726b6564206173207061696460408201526708199bdc881e595d60c21b606082015260800190565b602080825260409082018190527f546869732066756e6374696f6e206d6179206f6e6c792062652063616c6c6564908201527f20627920612062757965722077686f2068617320616c72656164792070616964606082015260800190565b60208082526025908201527f486f726e206973206e6f742063757272656e746c79206c697374656420666f726040820152642073616c6560d81b606082015260800190565b60208082526030908201527f596f75206d75737420666972737420626520617070726f76656420627920637560408201526f393932b73a103437b9371037bbb732b960811b606082015260800190565b6020808252818101527f4552433732313a206d696e7420746f20746865207a65726f2061646472657373604082015260600190565b60208082526031908201527f45524337323155524953746f726167653a2055524920717565727920666f72206040820152703737b732bc34b9ba32b73a103a37b5b2b760791b606082015260800190565b60208082526038908201527f546869732066756e6374696f6e206d6179206f6e6c792062652063616c6c656460408201527f2062792074686520686f726e204e46542773206f776e65720000000000000000606082015260800190565b6020808252602c908201527f4552433732313a20617070726f76656420717565727920666f72206e6f6e657860408201526b34b9ba32b73a103a37b5b2b760a11b606082015260800190565b60208082526034908201527f4275796572206d7573742073656e64207061796d656e7420666f7220486f726e60408201527308139195081d1bc8195cd8dc9bddc8199a5c9cdd60621b606082015260800190565b6020808252818101527f4f776e61626c653a2063616c6c6572206973206e6f7420746865206f776e6572604082015260600190565b60208082526026908201527f486f726e204e4654206d75737420657869737420616e642063616e6e6f74206260408201526565206672656560d01b606082015260800190565b60208082526029908201527f4552433732313a207472616e73666572206f6620746f6b656e2074686174206960408201526839903737ba1037bbb760b91b606082015260800190565b6020808252602f908201527f4552433732314d657461646174613a2055524920717565727920666f72206e6f60408201526e3732bc34b9ba32b73a103a37b5b2b760891b606082015260800190565b6020808252603a908201527f4164647265737320676976656e20646f6573206e6f74206d617463682074686560408201527f206f6e65206f6e2066696c6520666f7220746865206275796572000000000000606082015260800190565b60208082526021908201527f4552433732313a20617070726f76616c20746f2063757272656e74206f776e656040820152603960f91b606082015260800190565b602080825260a6908201527f486f726e2068617320616c7265616479206265656e207368697070656420616e60408201527f64206e6f206c6f6e676572207175616c696669657320666f722061207265667560608201527f6e642c20706c6561736520636f6d706c657465207468652065786368616e676560808201527f20616e64207265646f207468652065786368616e676520696e2072657665727360a08201527f6520696620796f75207769736820746f20737769746368206261636b206f776e60c08201526506572736869760d41b60e08201526101000190565b60208082526031908201527f4552433732313a207472616e736665722063616c6c6572206973206e6f74206f6040820152701ddb995c881b9bdc88185c1c1c9bdd9959607a1b606082015260800190565b60208082526027908201527f486f726e20686173206e6f74206265656e206d61726b656420617320736869706040820152661c1959081e595d60ca1b606082015260800190565b60208082526024908201527f596f757220486f726e20697320616c7265616479206c697374656420666f722060408201526373616c6560e01b606082015260800190565b60208082526068908201527f486f726e2068617320616c7265616479206265656e207075726368617365642060408201527f616e64207061696420666f72206279206120627579657220616e64206f6e2d6360608201527f6861696e20726566756e647320617265206e6f742063757272656e746c7920736080820152671d5c1c1bdc9d195960c21b60a082015260c00190565b600060208252610b4460208301846139a8565b90815260200190565b60009081526020902090565b60008219821115614819576148196148df565b500190565b60008261482d5761482d6148f5565b500490565b600082821015614844576148446148df565b500390565b60005b8381101561486457818101518382015260200161484c565b8381111561245a5750506000910152565b60028104600182168061488957607f821691505b602082108114156148aa57634e487b7160e01b600052602260045260246000fd5b50919050565b60006000198214156148c4576148c46148df565b5060010190565b6000826148da576148da6148f5565b500690565b634e487b7160e01b600052601160045260246000fd5b634e487b7160e01b600052601260045260246000fd5b634e487b7160e01b600052604160045260246000fd5b6001600160a01b0381168114612c6c57600080fd5b6001600160e01b031981168114612c6c57600080fdfea2646970667358221220e1f933c3abd46a59009dedc3c2b9d0128cdb8c478ccd944b8ca221266236718964736f6c63430008000033608060405234801561001057600080fd5b5061002161001c610026565b61002a565b61007a565b3390565b600080546001600160a01b038381166001600160a01b0319831681178455604051919092169283917f8be0079c531659141344cd1fd0a4f28419497f9722a3daafe3b4186f6b6457e09190a35050565b610616806100896000396000f3fe6080604052600436106100555760003560e01c806351cff8d91461005a578063715018a61461007c5780638da5cb5b14610091578063e3a9db1a146100bc578063f2fde38b146100e9578063f340fa0114610109575b600080fd5b34801561006657600080fd5b5061007a610075366004610455565b61011c565b005b34801561008857600080fd5b5061007a6101d1565b34801561009d57600080fd5b506100a661021c565b6040516100b3919061047b565b60405180910390f35b3480156100c857600080fd5b506100dc6100d7366004610455565b61022b565b6040516100b3919061059e565b3480156100f557600080fd5b5061007a610104366004610455565b610246565b61007a610117366004610455565b6102b7565b610124610360565b6001600160a01b031661013561021c565b6001600160a01b0316146101645760405162461bcd60e51b815260040161015b90610569565b60405180910390fd5b6001600160a01b038116600081815260016020526040812080549190559061018c9082610364565b816001600160a01b03167f7084f5476618d8e60b11ef0d7d3f06914655adb8793e28ff7f018d4c76d505d5826040516101c5919061059e565b60405180910390a25050565b6101d9610360565b6001600160a01b03166101ea61021c565b6001600160a01b0316146102105760405162461bcd60e51b815260040161015b90610569565b61021a6000610405565b565b6000546001600160a01b031690565b6001600160a01b031660009081526001602052604090205490565b61024e610360565b6001600160a01b031661025f61021c565b6001600160a01b0316146102855760405162461bcd60e51b815260040161015b90610569565b6001600160a01b0381166102ab5760405162461bcd60e51b815260040161015b9061048f565b6102b481610405565b50565b6102bf610360565b6001600160a01b03166102d061021c565b6001600160a01b0316146102f65760405162461bcd60e51b815260040161015b90610569565b6001600160a01b0381166000908152600160205260408120805434928392916103209084906105a7565b92505081905550816001600160a01b03167f2da466a7b24304f47e87fa2e1e5a81b9831ce54fec19055ce277ca2f39ba42c4826040516101c5919061059e565b3390565b804710156103845760405162461bcd60e51b815260040161015b90610532565b6000826001600160a01b03168260405161039d90610478565b60006040518083038185875af1925050503d80600081146103da576040519150601f19603f3d011682016040523d82523d6000602084013e6103df565b606091505b50509050806104005760405162461bcd60e51b815260040161015b906104d5565b505050565b600080546001600160a01b038381166001600160a01b0319831681178455604051919092169283917f8be0079c531659141344cd1fd0a4f28419497f9722a3daafe3b4186f6b6457e09190a35050565b600060208284031215610466578081fd5b8135610471816105cb565b9392505050565b90565b6001600160a01b0391909116815260200190565b60208082526026908201527f4f776e61626c653a206e6577206f776e657220697320746865207a65726f206160408201526564647265737360d01b606082015260800190565b6020808252603a908201527f416464726573733a20756e61626c6520746f2073656e642076616c75652c207260408201527f6563697069656e74206d61792068617665207265766572746564000000000000606082015260800190565b6020808252601d908201527f416464726573733a20696e73756666696369656e742062616c616e6365000000604082015260600190565b6020808252818101527f4f776e61626c653a2063616c6c6572206973206e6f7420746865206f776e6572604082015260600190565b90815260200190565b600082198211156105c657634e487b7160e01b81526011600452602481fd5b500190565b6001600160a01b03811681146102b457600080fdfea26469706673582212201b4f49cf5b99cd6f1965f7902db7a17b9154df54bbb3556be1e31495e133f49a64736f6c63430008000033",
  "linkReferences": {},
  "deployedLinkReferences": {}
}