{
  "_format": "hh-sol-artifact-1",
  "contractName": "Escrow",
  "sourceName": "contracts/Escrow.sol",
  "abi": [
    {
      "anonymous": false,
      "inputs": [
        {
          "indexed": true,
          "internalType": "address",
          "name": "payee",
          "type": "address"
        },
        {
          "indexed": false,
          "internalType": "uint256",
          "name": "weiAmount",
          "type": "uint256"
        }
      ],
      "name": "Deposited",
      "type": "event"
    },
    {
      "anonymous": false,
      "inputs": [
        {
          "indexed": true,
          "internalType": "address",
          "name": "previousOwner",
          "type": "address"
        },
        {
          "indexed": true,
          "internalType": "address",
          "name": "newOwner",
          "type": "address"
        }
      ],
      "name": "OwnershipTransferred",
      "type": "event"
    },
    {
      "anonymous": false,
      "inputs": [
        {
          "indexed": true,
          "internalType": "address",
          "name": "payee",
          "type": "address"
        },
        {
          "indexed": false,
          "internalType": "uint256",
          "name": "weiAmount",
          "type": "uint256"
        }
      ],
      "name": "Withdrawn",
      "type": "event"
    },
    {
      "inputs": [
        {
          "internalType": "address",
          "name": "payee",
          "type": "address"
        }
      ],
      "name": "deposit",
      "outputs": [],
      "stateMutability": "payable",
      "type": "function"
    },
    {
      "inputs": [
        {
          "internalType": "address",
          "name": "payee",
          "type": "address"
        }
      ],
      "name": "depositsOf",
      "outputs": [
        {
          "internalType": "uint256",
          "name": "",
          "type": "uint256"
        }
      ],
      "stateMutability": "view",
      "type": "function"
    },
    {
      "inputs": [],
      "name": "owner",
      "outputs": [
        {
          "internalType": "address",
          "name": "",
          "type": "address"
        }
      ],
      "stateMutability": "view",
      "type": "function"
    },
    {
      "inputs": [],
      "name": "renounceOwnership",
      "outputs": [],
      "stateMutability": "nonpayable",
      "type": "function"
    },
    {
      "inputs": [
        {
          "internalType": "address",
          "name": "newOwner",
          "type": "address"
        }
      ],
      "name": "transferOwnership",
      "outputs": [],
      "stateMutability": "nonpayable",
      "type": "function"
    },
    {
      "inputs": [
        {
          "internalType": "address payable",
          "name": "payee",
          "type": "address"
        },
        {
          "internalType": "uint256",
          "name": "amt",
          "type": "uint256"
        }
      ],
      "name": "withdraw",
      "outputs": [],
      "stateMutability": "nonpayable",
      "type": "function"
    }
  ],
  "bytecode": "0x608060405234801561001057600080fd5b5061002161001c610026565b61002a565b61007a565b3390565b600080546001600160a01b038381166001600160a01b0319831681178455604051919092169283917f8be0079c531659141344cd1fd0a4f28419497f9722a3daafe3b4186f6b6457e09190a35050565b61068a806100896000396000f3fe6080604052600436106100555760003560e01c8063715018a61461005a5780638da5cb5b14610071578063e3a9db1a1461009c578063f2fde38b146100c9578063f340fa01146100e9578063f3fef3a3146100fc575b600080fd5b34801561006657600080fd5b5061006f61011c565b005b34801561007d57600080fd5b50610086610170565b60405161009391906104ce565b60405180910390f35b3480156100a857600080fd5b506100bc6100b736600461047d565b61017f565b60405161009391906105f1565b3480156100d557600080fd5b5061006f6100e436600461047d565b61019a565b61006f6100f736600461047d565b61020b565b34801561010857600080fd5b5061006f6101173660046104a0565b6102c0565b610124610388565b6001600160a01b0316610135610170565b6001600160a01b0316146101645760405162461bcd60e51b815260040161015b906105bc565b60405180910390fd5b61016e600061038c565b565b6000546001600160a01b031690565b6001600160a01b031660009081526001602052604090205490565b6101a2610388565b6001600160a01b03166101b3610170565b6001600160a01b0316146101d95760405162461bcd60e51b815260040161015b906105bc565b6001600160a01b0381166101ff5760405162461bcd60e51b815260040161015b906104e2565b6102088161038c565b50565b610213610388565b6001600160a01b0316610224610170565b6001600160a01b03161461024a5760405162461bcd60e51b815260040161015b906105bc565b6001600160a01b0381166000908152600160205260408120805434928392916102749084906105fa565b92505081905550816001600160a01b03167f2da466a7b24304f47e87fa2e1e5a81b9831ce54fec19055ce277ca2f39ba42c4826040516102b491906105f1565b60405180910390a25050565b6102c8610388565b6001600160a01b03166102d9610170565b6001600160a01b0316146102ff5760405162461bcd60e51b815260040161015b906105bc565b6001600160a01b038216600090815260016020526040812080548392839291610329908490610612565b9091555061034290506001600160a01b038416826103dc565b826001600160a01b03167f7084f5476618d8e60b11ef0d7d3f06914655adb8793e28ff7f018d4c76d505d58260405161037b91906105f1565b60405180910390a2505050565b3390565b600080546001600160a01b038381166001600160a01b0319831681178455604051919092169283917f8be0079c531659141344cd1fd0a4f28419497f9722a3daafe3b4186f6b6457e09190a35050565b804710156103fc5760405162461bcd60e51b815260040161015b90610585565b6000826001600160a01b031682604051610415906104cb565b60006040518083038185875af1925050503d8060008114610452576040519150601f19603f3d011682016040523d82523d6000602084013e610457565b606091505b50509050806104785760405162461bcd60e51b815260040161015b90610528565b505050565b60006020828403121561048e578081fd5b81356104998161063f565b9392505050565b600080604083850312156104b2578081fd5b82356104bd8161063f565b946020939093013593505050565b90565b6001600160a01b0391909116815260200190565b60208082526026908201527f4f776e61626c653a206e6577206f776e657220697320746865207a65726f206160408201526564647265737360d01b606082015260800190565b6020808252603a908201527f416464726573733a20756e61626c6520746f2073656e642076616c75652c207260408201527f6563697069656e74206d61792068617665207265766572746564000000000000606082015260800190565b6020808252601d908201527f416464726573733a20696e73756666696369656e742062616c616e6365000000604082015260600190565b6020808252818101527f4f776e61626c653a2063616c6c6572206973206e6f7420746865206f776e6572604082015260600190565b90815260200190565b6000821982111561060d5761060d610629565b500190565b60008282101561062457610624610629565b500390565b634e487b7160e01b600052601160045260246000fd5b6001600160a01b038116811461020857600080fdfea26469706673582212208a96f2cb85741bd40e1b1ee7bbaedd233f6f9cdfde2bfb9ee374a8201816935264736f6c63430008000033",
  "linkReferences": {},
  "deployedLinkReferences": {}
}